{
  "_format": "hh-sol-artifact-1",
  "contractName": "TicketNFT",
  "sourceName": "contracts/TicketNFT.sol",
  "abi": [
    {
      "inputs": [],
      "stateMutability": "nonpayable",
      "type": "constructor"
    },
    {
      "anonymous": false,
      "inputs": [
        {
          "indexed": true,
          "internalType": "address",
          "name": "owner",
          "type": "address"
        },
        {
          "indexed": true,
          "internalType": "address",
          "name": "approved",
          "type": "address"
        },
        {
          "indexed": true,
          "internalType": "uint256",
          "name": "tokenId",
          "type": "uint256"
        }
      ],
      "name": "Approval",
      "type": "event"
    },
    {
      "anonymous": false,
      "inputs": [
        {
          "indexed": true,
          "internalType": "address",
          "name": "owner",
          "type": "address"
        },
        {
          "indexed": true,
          "internalType": "address",
          "name": "operator",
          "type": "address"
        },
        {
          "indexed": false,
          "internalType": "bool",
          "name": "approved",
          "type": "bool"
        }
      ],
      "name": "ApprovalForAll",
      "type": "event"
    },
    {
      "anonymous": false,
      "inputs": [
        {
          "indexed": true,
          "internalType": "address",
          "name": "previousOwner",
          "type": "address"
        },
        {
          "indexed": true,
          "internalType": "address",
          "name": "newOwner",
          "type": "address"
        }
      ],
      "name": "OwnershipTransferred",
      "type": "event"
    },
    {
      "anonymous": false,
      "inputs": [
        {
          "indexed": true,
          "internalType": "uint256",
          "name": "tokenId",
          "type": "uint256"
        },
        {
          "indexed": true,
          "internalType": "address",
          "name": "owner",
          "type": "address"
        },
        {
          "indexed": false,
          "internalType": "string",
          "name": "eventName",
          "type": "string"
        },
        {
          "indexed": false,
          "internalType": "uint256",
          "name": "eventDate",
          "type": "uint256"
        },
        {
          "indexed": false,
          "internalType": "string",
          "name": "seat",
          "type": "string"
        }
      ],
      "name": "TicketMinted",
      "type": "event"
    },
    {
      "anonymous": false,
      "inputs": [
        {
          "indexed": true,
          "internalType": "address",
          "name": "from",
          "type": "address"
        },
        {
          "indexed": true,
          "internalType": "address",
          "name": "to",
          "type": "address"
        },
        {
          "indexed": true,
          "internalType": "uint256",
          "name": "tokenId",
          "type": "uint256"
        }
      ],
      "name": "Transfer",
      "type": "event"
    },
    {
      "inputs": [
        {
          "internalType": "address",
          "name": "to",
          "type": "address"
        },
        {
          "internalType": "uint256",
          "name": "tokenId",
          "type": "uint256"
        }
      ],
      "name": "approve",
      "outputs": [],
      "stateMutability": "nonpayable",
      "type": "function"
    },
    {
      "inputs": [
        {
          "internalType": "address",
          "name": "owner",
          "type": "address"
        }
      ],
      "name": "balanceOf",
      "outputs": [
        {
          "internalType": "uint256",
          "name": "",
          "type": "uint256"
        }
      ],
      "stateMutability": "view",
      "type": "function"
    },
    {
      "inputs": [
        {
          "internalType": "uint256",
          "name": "tokenId",
          "type": "uint256"
        }
      ],
      "name": "burn",
      "outputs": [],
      "stateMutability": "nonpayable",
      "type": "function"
    },
    {
      "inputs": [
        {
          "internalType": "uint256",
          "name": "tokenId",
          "type": "uint256"
        }
      ],
      "name": "getApproved",
      "outputs": [
        {
          "internalType": "address",
          "name": "",
          "type": "address"
        }
      ],
      "stateMutability": "view",
      "type": "function"
    },
    {
      "inputs": [
        {
          "internalType": "uint256",
          "name": "tokenId",
          "type": "uint256"
        }
      ],
      "name": "getTicketDetails",
      "outputs": [
        {
          "internalType": "string",
          "name": "",
          "type": "string"
        },
        {
          "internalType": "uint256",
          "name": "",
          "type": "uint256"
        },
        {
          "internalType": "string",
          "name": "",
          "type": "string"
        }
      ],
      "stateMutability": "view",
      "type": "function"
    },
    {
      "inputs": [
        {
          "internalType": "address",
          "name": "owner",
          "type": "address"
        },
        {
          "internalType": "address",
          "name": "operator",
          "type": "address"
        }
      ],
      "name": "isApprovedForAll",
      "outputs": [
        {
          "internalType": "bool",
          "name": "",
          "type": "bool"
        }
      ],
      "stateMutability": "view",
      "type": "function"
    },
    {
      "inputs": [
        {
          "internalType": "string",
          "name": "eventName",
          "type": "string"
        },
        {
          "internalType": "uint256",
          "name": "eventDate",
          "type": "uint256"
        },
        {
          "internalType": "string",
          "name": "seat",
          "type": "string"
        }
      ],
      "name": "mintTicket",
      "outputs": [
        {
          "internalType": "uint256",
          "name": "",
          "type": "uint256"
        }
      ],
      "stateMutability": "nonpayable",
      "type": "function"
    },
    {
      "inputs": [],
      "name": "name",
      "outputs": [
        {
          "internalType": "string",
          "name": "",
          "type": "string"
        }
      ],
      "stateMutability": "view",
      "type": "function"
    },
    {
      "inputs": [],
      "name": "owner",
      "outputs": [
        {
          "internalType": "address",
          "name": "",
          "type": "address"
        }
      ],
      "stateMutability": "view",
      "type": "function"
    },
    {
      "inputs": [
        {
          "internalType": "uint256",
          "name": "tokenId",
          "type": "uint256"
        }
      ],
      "name": "ownerOf",
      "outputs": [
        {
          "internalType": "address",
          "name": "",
          "type": "address"
        }
      ],
      "stateMutability": "view",
      "type": "function"
    },
    {
      "inputs": [],
      "name": "renounceOwnership",
      "outputs": [],
      "stateMutability": "nonpayable",
      "type": "function"
    },
    {
      "inputs": [
        {
          "internalType": "address",
          "name": "from",
          "type": "address"
        },
        {
          "internalType": "address",
          "name": "to",
          "type": "address"
        },
        {
          "internalType": "uint256",
          "name": "tokenId",
          "type": "uint256"
        }
      ],
      "name": "safeTransferFrom",
      "outputs": [],
      "stateMutability": "nonpayable",
      "type": "function"
    },
    {
      "inputs": [
        {
          "internalType": "address",
          "name": "from",
          "type": "address"
        },
        {
          "internalType": "address",
          "name": "to",
          "type": "address"
        },
        {
          "internalType": "uint256",
          "name": "tokenId",
          "type": "uint256"
        },
        {
          "internalType": "bytes",
          "name": "data",
          "type": "bytes"
        }
      ],
      "name": "safeTransferFrom",
      "outputs": [],
      "stateMutability": "nonpayable",
      "type": "function"
    },
    {
      "inputs": [
        {
          "internalType": "address",
          "name": "operator",
          "type": "address"
        },
        {
          "internalType": "bool",
          "name": "approved",
          "type": "bool"
        }
      ],
      "name": "setApprovalForAll",
      "outputs": [],
      "stateMutability": "nonpayable",
      "type": "function"
    },
    {
      "inputs": [
        {
          "internalType": "bytes4",
          "name": "interfaceId",
          "type": "bytes4"
        }
      ],
      "name": "supportsInterface",
      "outputs": [
        {
          "internalType": "bool",
          "name": "",
          "type": "bool"
        }
      ],
      "stateMutability": "view",
      "type": "function"
    },
    {
      "inputs": [],
      "name": "symbol",
      "outputs": [
        {
          "internalType": "string",
          "name": "",
          "type": "string"
        }
      ],
      "stateMutability": "view",
      "type": "function"
    },
    {
      "inputs": [
        {
          "internalType": "uint256",
          "name": "index",
          "type": "uint256"
        }
      ],
      "name": "tokenByIndex",
      "outputs": [
        {
          "internalType": "uint256",
          "name": "",
          "type": "uint256"
        }
      ],
      "stateMutability": "view",
      "type": "function"
    },
    {
      "inputs": [
        {
          "internalType": "address",
          "name": "owner",
          "type": "address"
        },
        {
          "internalType": "uint256",
          "name": "index",
          "type": "uint256"
        }
      ],
      "name": "tokenOfOwnerByIndex",
      "outputs": [
        {
          "internalType": "uint256",
          "name": "",
          "type": "uint256"
        }
      ],
      "stateMutability": "view",
      "type": "function"
    },
    {
      "inputs": [
        {
          "internalType": "uint256",
          "name": "tokenId",
          "type": "uint256"
        }
      ],
      "name": "tokenURI",
      "outputs": [
        {
          "internalType": "string",
          "name": "",
          "type": "string"
        }
      ],
      "stateMutability": "view",
      "type": "function"
    },
    {
      "inputs": [],
      "name": "totalSupply",
      "outputs": [
        {
          "internalType": "uint256",
          "name": "",
          "type": "uint256"
        }
      ],
      "stateMutability": "view",
      "type": "function"
    },
    {
      "inputs": [
        {
          "internalType": "address",
          "name": "from",
          "type": "address"
        },
        {
          "internalType": "address",
          "name": "to",
          "type": "address"
        },
        {
          "internalType": "uint256",
          "name": "tokenId",
          "type": "uint256"
        }
      ],
      "name": "transferFrom",
      "outputs": [],
      "stateMutability": "nonpayable",
      "type": "function"
    },
    {
      "inputs": [
        {
          "internalType": "address",
          "name": "newOwner",
          "type": "address"
        }
      ],
      "name": "transferOwnership",
      "outputs": [],
      "stateMutability": "nonpayable",
      "type": "function"
    }
  ],
  "bytecode": "0x60806040523480156200001157600080fd5b506040518060400160405280600981526020017f5469636b65744e465400000000000000000000000000000000000000000000008152506040518060400160405280600481526020017f544e46540000000000000000000000000000000000000000000000000000000081525081600090816200008f919062000412565b508060019081620000a1919062000412565b505050620000c4620000b8620000ca60201b60201c565b620000d260201b60201c565b620004f9565b600033905090565b6000600a60009054906101000a900473ffffffffffffffffffffffffffffffffffffffff16905081600a60006101000a81548173ffffffffffffffffffffffffffffffffffffffff021916908373ffffffffffffffffffffffffffffffffffffffff1602179055508173ffffffffffffffffffffffffffffffffffffffff168173ffffffffffffffffffffffffffffffffffffffff167f8be0079c531659141344cd1fd0a4f28419497f9722a3daafe3b4186f6b6457e060405160405180910390a35050565b600081519050919050565b7f4e487b7100000000000000000000000000000000000000000000000000000000600052604160045260246000fd5b7f4e487b7100000000000000000000000000000000000000000000000000000000600052602260045260246000fd5b600060028204905060018216806200021a57607f821691505b60208210810362000230576200022f620001d2565b5b50919050565b60008190508160005260206000209050919050565b60006020601f8301049050919050565b600082821b905092915050565b6000600883026200029a7fffffffffffffffffffffffffffffffffffffffffffffffffffffffffffffffff826200025b565b620002a686836200025b565b95508019841693508086168417925050509392505050565b6000819050919050565b6000819050919050565b6000620002f3620002ed620002e784620002be565b620002c8565b620002be565b9050919050565b6000819050919050565b6200030f83620002d2565b620003276200031e82620002fa565b84845462000268565b825550505050565b600090565b6200033e6200032f565b6200034b81848462000304565b505050565b5b8181101562000373576200036760008262000334565b60018101905062000351565b5050565b601f821115620003c2576200038c8162000236565b62000397846200024b565b81016020851015620003a7578190505b620003bf620003b6856200024b565b83018262000350565b50505b505050565b600082821c905092915050565b6000620003e760001984600802620003c7565b1980831691505092915050565b6000620004028383620003d4565b9150826002028217905092915050565b6200041d8262000198565b67ffffffffffffffff811115620004395762000438620001a3565b5b62000445825462000201565b6200045282828562000377565b600060209050601f8311600181146200048a576000841562000475578287015190505b620004818582620003f4565b865550620004f1565b601f1984166200049a8662000236565b60005b82811015620004c4578489015182556001820191506020850194506020810190506200049d565b86831015620004e45784890151620004e0601f891682620003d4565b8355505b6001600288020188555050505b505050505050565b613d2280620005096000396000f3fe608060405234801561001057600080fd5b50600436106101425760003560e01c80636352211e116100b8578063a102d0d11161007c578063a102d0d11461038b578063a22cb465146103bb578063b88d4fde146103d7578063c87b56dd146103f3578063e985e9c514610423578063f2fde38b1461045357610142565b80636352211e146102e557806370a0823114610315578063715018a6146103455780638da5cb5b1461034f57806395d89b411461036d57610142565b806323b872dd1161010a57806323b872dd146101ff57806324c141601461021b5780632f745c591461024d57806342842e0e1461027d57806342966c68146102995780634f6ccce7146102b557610142565b806301ffc9a71461014757806306fdde0314610177578063081812fc14610195578063095ea7b3146101c557806318160ddd146101e1575b600080fd5b610161600480360381019061015c919061272a565b61046f565b60405161016e9190612772565b60405180910390f35b61017f6104e9565b60405161018c919061281d565b60405180910390f35b6101af60048036038101906101aa9190612875565b61057b565b6040516101bc91906128e3565b60405180910390f35b6101df60048036038101906101da919061292a565b6105c1565b005b6101e96106d8565b6040516101f69190612979565b60405180910390f35b61021960048036038101906102149190612994565b6106e5565b005b61023560048036038101906102309190612875565b610745565b604051610244939291906129e7565b60405180910390f35b6102676004803603810190610262919061292a565b610900565b6040516102749190612979565b60405180910390f35b61029760048036038101906102929190612994565b6109a5565b005b6102b360048036038101906102ae9190612875565b6109c5565b005b6102cf60048036038101906102ca9190612875565b610b39565b6040516102dc9190612979565b60405180910390f35b6102ff60048036038101906102fa9190612875565b610baa565b60405161030c91906128e3565b60405180910390f35b61032f600480360381019061032a9190612a2c565b610c30565b60405161033c9190612979565b60405180910390f35b61034d610ce7565b005b610357610cfb565b60405161036491906128e3565b60405180910390f35b610375610d25565b604051610382919061281d565b60405180910390f35b6103a560048036038101906103a09190612b8e565b610db7565b6040516103b29190612979565b60405180910390f35b6103d560048036038101906103d09190612c45565b610ea0565b005b6103f160048036038101906103ec9190612d26565b610eb6565b005b61040d60048036038101906104089190612875565b610f18565b60405161041a919061281d565b60405180910390f35b61043d60048036038101906104389190612da9565b610f80565b60405161044a9190612772565b60405180910390f35b61046d60048036038101906104689190612a2c565b611014565b005b60007f780e9d63000000000000000000000000000000000000000000000000000000007bffffffffffffffffffffffffffffffffffffffffffffffffffffffff1916827bffffffffffffffffffffffffffffffffffffffffffffffffffffffff191614806104e257506104e182611097565b5b9050919050565b6060600080546104f890612e18565b80601f016020809104026020016040519081016040528092919081815260200182805461052490612e18565b80156105715780601f1061054657610100808354040283529160200191610571565b820191906000526020600020905b81548152906001019060200180831161055457829003601f168201915b5050505050905090565b600061058682611179565b6004600083815260200190815260200160002060009054906101000a900473ffffffffffffffffffffffffffffffffffffffff169050919050565b60006105cc82610baa565b90508073ffffffffffffffffffffffffffffffffffffffff168373ffffffffffffffffffffffffffffffffffffffff160361063c576040517f08c379a000000000000000000000000000000000000000000000000000000000815260040161063390612ebb565b60405180910390fd5b8073ffffffffffffffffffffffffffffffffffffffff1661065b6111c4565b73ffffffffffffffffffffffffffffffffffffffff16148061068a5750610689816106846111c4565b610f80565b5b6106c9576040517f08c379a00000000000000000000000000000000000000000000000000000000081526004016106c090612f4d565b60405180910390fd5b6106d383836111cc565b505050565b6000600880549050905090565b6106f66106f06111c4565b82611285565b610735576040517f08c379a000000000000000000000000000000000000000000000000000000000815260040161072c90612fdf565b60405180910390fd5b61074083838361131a565b505050565b60606000606061075484611613565b610793576040517f08c379a000000000000000000000000000000000000000000000000000000000815260040161078a90613071565b60405180910390fd5b6000600c60008681526020019081526020016000206040518060600160405290816000820180546107c390612e18565b80601f01602080910402602001604051908101604052809291908181526020018280546107ef90612e18565b801561083c5780601f106108115761010080835404028352916020019161083c565b820191906000526020600020905b81548152906001019060200180831161081f57829003601f168201915b505050505081526020016001820154815260200160028201805461085f90612e18565b80601f016020809104026020016040519081016040528092919081815260200182805461088b90612e18565b80156108d85780601f106108ad576101008083540402835291602001916108d8565b820191906000526020600020905b8154815290600101906020018083116108bb57829003601f168201915b5050505050815250509050806000015181602001518260400151935093509350509193909250565b600061090b83610c30565b821061094c576040517f08c379a000000000000000000000000000000000000000000000000000000000815260040161094390613103565b60405180910390fd5b600660008473ffffffffffffffffffffffffffffffffffffffff1673ffffffffffffffffffffffffffffffffffffffff168152602001908152602001600020600083815260200190815260200160002054905092915050565b6109c083838360405180602001604052806000815250610eb6565b505050565b6109ce81611613565b610a0d576040517f08c379a0000000000000000000000000000000000000000000000000000000008152600401610a049061316f565b60405180910390fd5b610a156111c4565b73ffffffffffffffffffffffffffffffffffffffff16610a3482610baa565b73ffffffffffffffffffffffffffffffffffffffff161480610a905750610a596111c4565b73ffffffffffffffffffffffffffffffffffffffff16610a788261057b565b73ffffffffffffffffffffffffffffffffffffffff16145b80610ab05750610aaf610aa282610baa565b610aaa6111c4565b610f80565b5b610aef576040517f08c379a0000000000000000000000000000000000000000000000000000000008152600401610ae690613201565b60405180910390fd5b610af881611654565b600c600082815260200190815260200160002060008082016000610b1c9190612661565b6001820160009055600282016000610b349190612661565b505050565b6000610b436106d8565b8210610b84576040517f08c379a0000000000000000000000000000000000000000000000000000000008152600401610b7b90613293565b60405180910390fd5b60088281548110610b9857610b976132b3565b5b90600052602060002001549050919050565b600080610bb6836117a2565b9050600073ffffffffffffffffffffffffffffffffffffffff168173ffffffffffffffffffffffffffffffffffffffff1603610c27576040517f08c379a0000000000000000000000000000000000000000000000000000000008152600401610c1e9061332e565b60405180910390fd5b80915050919050565b60008073ffffffffffffffffffffffffffffffffffffffff168273ffffffffffffffffffffffffffffffffffffffff1603610ca0576040517f08c379a0000000000000000000000000000000000000000000000000000000008152600401610c97906133c0565b60405180910390fd5b600360008373ffffffffffffffffffffffffffffffffffffffff1673ffffffffffffffffffffffffffffffffffffffff168152602001908152602001600020549050919050565b610cef6117df565b610cf9600061185d565b565b6000600a60009054906101000a900473ffffffffffffffffffffffffffffffffffffffff16905090565b606060018054610d3490612e18565b80601f0160208091040260200160405190810160405280929190818152602001828054610d6090612e18565b8015610dad5780601f10610d8257610100808354040283529160200191610dad565b820191906000526020600020905b815481529060010190602001808311610d9057829003601f168201915b5050505050905090565b6000610dc3600b611923565b6000610dcf600b611939565b9050610ddb3382611947565b604051806060016040528086815260200185815260200184815250600c60008381526020019081526020016000206000820151816000019081610e1e919061358c565b50602082015181600101556040820151816002019081610e3e919061358c565b509050503373ffffffffffffffffffffffffffffffffffffffff16817f7df64a5bf1a805f0e4d3130d1ea33b28e7595015e89f284a52e9f38fc176fddc878787604051610e8d939291906129e7565b60405180910390a3809150509392505050565b610eb2610eab6111c4565b8383611965565b5050565b610ec7610ec16111c4565b83611285565b610f06576040517f08c379a0000000000000000000000000000000000000000000000000000000008152600401610efd90612fdf565b60405180910390fd5b610f1284848484611ad1565b50505050565b6060610f2382611179565b6000610f2d611b2d565b90506000815111610f4d5760405180602001604052806000815250610f78565b80610f5784611b44565b604051602001610f6892919061369a565b6040516020818303038152906040525b915050919050565b6000600560008473ffffffffffffffffffffffffffffffffffffffff1673ffffffffffffffffffffffffffffffffffffffff16815260200190815260200160002060008373ffffffffffffffffffffffffffffffffffffffff1673ffffffffffffffffffffffffffffffffffffffff16815260200190815260200160002060009054906101000a900460ff16905092915050565b61101c6117df565b600073ffffffffffffffffffffffffffffffffffffffff168173ffffffffffffffffffffffffffffffffffffffff160361108b576040517f08c379a000000000000000000000000000000000000000000000000000000000815260040161108290613730565b60405180910390fd5b6110948161185d565b50565b60007f80ac58cd000000000000000000000000000000000000000000000000000000007bffffffffffffffffffffffffffffffffffffffffffffffffffffffff1916827bffffffffffffffffffffffffffffffffffffffffffffffffffffffff1916148061116257507f5b5e139f000000000000000000000000000000000000000000000000000000007bffffffffffffffffffffffffffffffffffffffffffffffffffffffff1916827bffffffffffffffffffffffffffffffffffffffffffffffffffffffff1916145b80611172575061117182611c12565b5b9050919050565b61118281611613565b6111c1576040517f08c379a00000000000000000000000000000000000000000000000000000000081526004016111b89061332e565b60405180910390fd5b50565b600033905090565b816004600083815260200190815260200160002060006101000a81548173ffffffffffffffffffffffffffffffffffffffff021916908373ffffffffffffffffffffffffffffffffffffffff160217905550808273ffffffffffffffffffffffffffffffffffffffff1661123f83610baa565b73ffffffffffffffffffffffffffffffffffffffff167f8c5be1e5ebec7d5bd14f71427d1e84f3dd0314c0f7b2291e5b200ac8c7c3b92560405160405180910390a45050565b60008061129183610baa565b90508073ffffffffffffffffffffffffffffffffffffffff168473ffffffffffffffffffffffffffffffffffffffff1614806112d357506112d28185610f80565b5b8061131157508373ffffffffffffffffffffffffffffffffffffffff166112f98461057b565b73ffffffffffffffffffffffffffffffffffffffff16145b91505092915050565b8273ffffffffffffffffffffffffffffffffffffffff1661133a82610baa565b73ffffffffffffffffffffffffffffffffffffffff1614611390576040517f08c379a0000000000000000000000000000000000000000000000000000000008152600401611387906137c2565b60405180910390fd5b600073ffffffffffffffffffffffffffffffffffffffff168273ffffffffffffffffffffffffffffffffffffffff16036113ff576040517f08c379a00000000000000000000000000000000000000000000000000000000081526004016113f690613854565b60405180910390fd5b61140c8383836001611c7c565b8273ffffffffffffffffffffffffffffffffffffffff1661142c82610baa565b73ffffffffffffffffffffffffffffffffffffffff1614611482576040517f08c379a0000000000000000000000000000000000000000000000000000000008152600401611479906137c2565b60405180910390fd5b6004600082815260200190815260200160002060006101000a81549073ffffffffffffffffffffffffffffffffffffffff02191690556001600360008573ffffffffffffffffffffffffffffffffffffffff1673ffffffffffffffffffffffffffffffffffffffff168152602001908152602001600020600082825403925050819055506001600360008473ffffffffffffffffffffffffffffffffffffffff1673ffffffffffffffffffffffffffffffffffffffff16815260200190815260200160002060008282540192505081905550816002600083815260200190815260200160002060006101000a81548173ffffffffffffffffffffffffffffffffffffffff021916908373ffffffffffffffffffffffffffffffffffffffff160217905550808273ffffffffffffffffffffffffffffffffffffffff168473ffffffffffffffffffffffffffffffffffffffff167fddf252ad1be2c89b69c2b068fc378daa952ba7f163c4a11628f55a4df523b3ef60405160405180910390a461160e8383836001611dda565b505050565b60008073ffffffffffffffffffffffffffffffffffffffff16611635836117a2565b73ffffffffffffffffffffffffffffffffffffffff1614159050919050565b600061165f82610baa565b905061166f816000846001611c7c565b61167882610baa565b90506004600083815260200190815260200160002060006101000a81549073ffffffffffffffffffffffffffffffffffffffff02191690556001600360008373ffffffffffffffffffffffffffffffffffffffff1673ffffffffffffffffffffffffffffffffffffffff168152602001908152602001600020600082825403925050819055506002600083815260200190815260200160002060006101000a81549073ffffffffffffffffffffffffffffffffffffffff021916905581600073ffffffffffffffffffffffffffffffffffffffff168273ffffffffffffffffffffffffffffffffffffffff167fddf252ad1be2c89b69c2b068fc378daa952ba7f163c4a11628f55a4df523b3ef60405160405180910390a461179e816000846001611dda565b5050565b60006002600083815260200190815260200160002060009054906101000a900473ffffffffffffffffffffffffffffffffffffffff169050919050565b6117e76111c4565b73ffffffffffffffffffffffffffffffffffffffff16611805610cfb565b73ffffffffffffffffffffffffffffffffffffffff161461185b576040517f08c379a0000000000000000000000000000000000000000000000000000000008152600401611852906138c0565b60405180910390fd5b565b6000600a60009054906101000a900473ffffffffffffffffffffffffffffffffffffffff16905081600a60006101000a81548173ffffffffffffffffffffffffffffffffffffffff021916908373ffffffffffffffffffffffffffffffffffffffff1602179055508173ffffffffffffffffffffffffffffffffffffffff168173ffffffffffffffffffffffffffffffffffffffff167f8be0079c531659141344cd1fd0a4f28419497f9722a3daafe3b4186f6b6457e060405160405180910390a35050565b6001816000016000828254019250508190555050565b600081600001549050919050565b611961828260405180602001604052806000815250611de0565b5050565b8173ffffffffffffffffffffffffffffffffffffffff168373ffffffffffffffffffffffffffffffffffffffff16036119d3576040517f08c379a00000000000000000000000000000000000000000000000000000000081526004016119ca9061392c565b60405180910390fd5b80600560008573ffffffffffffffffffffffffffffffffffffffff1673ffffffffffffffffffffffffffffffffffffffff16815260200190815260200160002060008473ffffffffffffffffffffffffffffffffffffffff1673ffffffffffffffffffffffffffffffffffffffff16815260200190815260200160002060006101000a81548160ff0219169083151502179055508173ffffffffffffffffffffffffffffffffffffffff168373ffffffffffffffffffffffffffffffffffffffff167f17307eab39ab6107e8899845ad3d59bd9653f200f220920489ca2b5937696c3183604051611ac49190612772565b60405180910390a3505050565b611adc84848461131a565b611ae884848484611e3b565b611b27576040517f08c379a0000000000000000000000000000000000000000000000000000000008152600401611b1e906139be565b60405180910390fd5b50505050565b606060405180602001604052806000815250905090565b606060006001611b5384611fc2565b01905060008167ffffffffffffffff811115611b7257611b71612a63565b5b6040519080825280601f01601f191660200182016040528015611ba45781602001600182028036833780820191505090505b509050600082602001820190505b600115611c07578080600190039150507f3031323334353637383961626364656600000000000000000000000000000000600a86061a8153600a8581611bfb57611bfa6139de565b5b04945060008503611bb2575b819350505050919050565b60007f01ffc9a7000000000000000000000000000000000000000000000000000000007bffffffffffffffffffffffffffffffffffffffffffffffffffffffff1916827bffffffffffffffffffffffffffffffffffffffffffffffffffffffff1916149050919050565b611c8884848484612115565b6001811115611ccc576040517f08c379a0000000000000000000000000000000000000000000000000000000008152600401611cc390613a7f565b60405180910390fd5b6000829050600073ffffffffffffffffffffffffffffffffffffffff168573ffffffffffffffffffffffffffffffffffffffff1603611d1357611d0e8161211b565b611d52565b8373ffffffffffffffffffffffffffffffffffffffff168573ffffffffffffffffffffffffffffffffffffffff1614611d5157611d508582612164565b5b5b600073ffffffffffffffffffffffffffffffffffffffff168473ffffffffffffffffffffffffffffffffffffffff1603611d9457611d8f816122d1565b611dd3565b8473ffffffffffffffffffffffffffffffffffffffff168473ffffffffffffffffffffffffffffffffffffffff1614611dd257611dd184826123a2565b5b5b5050505050565b50505050565b611dea8383612421565b611df76000848484611e3b565b611e36576040517f08c379a0000000000000000000000000000000000000000000000000000000008152600401611e2d906139be565b60405180910390fd5b505050565b6000611e5c8473ffffffffffffffffffffffffffffffffffffffff1661263e565b15611fb5578373ffffffffffffffffffffffffffffffffffffffff1663150b7a02611e856111c4565b8786866040518563ffffffff1660e01b8152600401611ea79493929190613af4565b6020604051808303816000875af1925050508015611ee357506040513d601f19601f82011682018060405250810190611ee09190613b55565b60015b611f65573d8060008114611f13576040519150601f19603f3d011682016040523d82523d6000602084013e611f18565b606091505b506000815103611f5d576040517f08c379a0000000000000000000000000000000000000000000000000000000008152600401611f54906139be565b60405180910390fd5b805181602001fd5b63150b7a0260e01b7bffffffffffffffffffffffffffffffffffffffffffffffffffffffff1916817bffffffffffffffffffffffffffffffffffffffffffffffffffffffff191614915050611fba565b600190505b949350505050565b600080600090507a184f03e93ff9f4daa797ed6e38ed64bf6a1f0100000000000000008310612020577a184f03e93ff9f4daa797ed6e38ed64bf6a1f0100000000000000008381612016576120156139de565b5b0492506040810190505b6d04ee2d6d415b85acef8100000000831061205d576d04ee2d6d415b85acef81000000008381612053576120526139de565b5b0492506020810190505b662386f26fc10000831061208c57662386f26fc100008381612082576120816139de565b5b0492506010810190505b6305f5e10083106120b5576305f5e10083816120ab576120aa6139de565b5b0492506008810190505b61271083106120da5761271083816120d0576120cf6139de565b5b0492506004810190505b606483106120fd57606483816120f3576120f26139de565b5b0492506002810190505b600a831061210c576001810190505b80915050919050565b50505050565b6008805490506009600083815260200190815260200160002081905550600881908060018154018082558091505060019003906000526020600020016000909190919091505550565b6000600161217184610c30565b61217b9190613bb1565b9050600060076000848152602001908152602001600020549050818114612260576000600660008673ffffffffffffffffffffffffffffffffffffffff1673ffffffffffffffffffffffffffffffffffffffff168152602001908152602001600020600084815260200190815260200160002054905080600660008773ffffffffffffffffffffffffffffffffffffffff1673ffffffffffffffffffffffffffffffffffffffff168152602001908152602001600020600084815260200190815260200160002081905550816007600083815260200190815260200160002081905550505b6007600084815260200190815260200160002060009055600660008573ffffffffffffffffffffffffffffffffffffffff1673ffffffffffffffffffffffffffffffffffffffff16815260200190815260200160002060008381526020019081526020016000206000905550505050565b600060016008805490506122e59190613bb1565b9050600060096000848152602001908152602001600020549050600060088381548110612315576123146132b3565b5b906000526020600020015490508060088381548110612337576123366132b3565b5b90600052602060002001819055508160096000838152602001908152602001600020819055506009600085815260200190815260200160002060009055600880548061238657612385613be5565b5b6001900381819060005260206000200160009055905550505050565b60006123ad83610c30565b905081600660008573ffffffffffffffffffffffffffffffffffffffff1673ffffffffffffffffffffffffffffffffffffffff168152602001908152602001600020600083815260200190815260200160002081905550806007600084815260200190815260200160002081905550505050565b600073ffffffffffffffffffffffffffffffffffffffff168273ffffffffffffffffffffffffffffffffffffffff1603612490576040517f08c379a000000000000000000000000000000000000000000000000000000000815260040161248790613c60565b60405180910390fd5b61249981611613565b156124d9576040517f08c379a00000000000000000000000000000000000000000000000000000000081526004016124d090613ccc565b60405180910390fd5b6124e7600083836001611c7c565b6124f081611613565b15612530576040517f08c379a000000000000000000000000000000000000000000000000000000000815260040161252790613ccc565b60405180910390fd5b6001600360008473ffffffffffffffffffffffffffffffffffffffff1673ffffffffffffffffffffffffffffffffffffffff16815260200190815260200160002060008282540192505081905550816002600083815260200190815260200160002060006101000a81548173ffffffffffffffffffffffffffffffffffffffff021916908373ffffffffffffffffffffffffffffffffffffffff160217905550808273ffffffffffffffffffffffffffffffffffffffff16600073ffffffffffffffffffffffffffffffffffffffff167fddf252ad1be2c89b69c2b068fc378daa952ba7f163c4a11628f55a4df523b3ef60405160405180910390a461263a600083836001611dda565b5050565b6000808273ffffffffffffffffffffffffffffffffffffffff163b119050919050565b50805461266d90612e18565b6000825580601f1061267f575061269e565b601f01602090049060005260206000209081019061269d91906126a1565b5b50565b5b808211156126ba5760008160009055506001016126a2565b5090565b6000604051905090565b600080fd5b600080fd5b60007fffffffff0000000000000000000000000000000000000000000000000000000082169050919050565b612707816126d2565b811461271257600080fd5b50565b600081359050612724816126fe565b92915050565b6000602082840312156127405761273f6126c8565b5b600061274e84828501612715565b91505092915050565b60008115159050919050565b61276c81612757565b82525050565b60006020820190506127876000830184612763565b92915050565b600081519050919050565b600082825260208201905092915050565b60005b838110156127c75780820151818401526020810190506127ac565b60008484015250505050565b6000601f19601f8301169050919050565b60006127ef8261278d565b6127f98185612798565b93506128098185602086016127a9565b612812816127d3565b840191505092915050565b6000602082019050818103600083015261283781846127e4565b905092915050565b6000819050919050565b6128528161283f565b811461285d57600080fd5b50565b60008135905061286f81612849565b92915050565b60006020828403121561288b5761288a6126c8565b5b600061289984828501612860565b91505092915050565b600073ffffffffffffffffffffffffffffffffffffffff82169050919050565b60006128cd826128a2565b9050919050565b6128dd816128c2565b82525050565b60006020820190506128f860008301846128d4565b92915050565b612907816128c2565b811461291257600080fd5b50565b600081359050612924816128fe565b92915050565b60008060408385031215612941576129406126c8565b5b600061294f85828601612915565b925050602061296085828601612860565b9150509250929050565b6129738161283f565b82525050565b600060208201905061298e600083018461296a565b92915050565b6000806000606084860312156129ad576129ac6126c8565b5b60006129bb86828701612915565b93505060206129cc86828701612915565b92505060406129dd86828701612860565b9150509250925092565b60006060820190508181036000830152612a0181866127e4565b9050612a10602083018561296a565b8181036040830152612a2281846127e4565b9050949350505050565b600060208284031215612a4257612a416126c8565b5b6000612a5084828501612915565b91505092915050565b600080fd5b600080fd5b7f4e487b7100000000000000000000000000000000000000000000000000000000600052604160045260246000fd5b612a9b826127d3565b810181811067ffffffffffffffff82111715612aba57612ab9612a63565b5b80604052505050565b6000612acd6126be565b9050612ad98282612a92565b919050565b600067ffffffffffffffff821115612af957612af8612a63565b5b612b02826127d3565b9050602081019050919050565b82818337600083830152505050565b6000612b31612b2c84612ade565b612ac3565b905082815260208101848484011115612b4d57612b4c612a5e565b5b612b58848285612b0f565b509392505050565b600082601f830112612b7557612b74612a59565b5b8135612b85848260208601612b1e565b91505092915050565b600080600060608486031215612ba757612ba66126c8565b5b600084013567ffffffffffffffff811115612bc557612bc46126cd565b5b612bd186828701612b60565b9350506020612be286828701612860565b925050604084013567ffffffffffffffff811115612c0357612c026126cd565b5b612c0f86828701612b60565b9150509250925092565b612c2281612757565b8114612c2d57600080fd5b50565b600081359050612c3f81612c19565b92915050565b60008060408385031215612c5c57612c5b6126c8565b5b6000612c6a85828601612915565b9250506020612c7b85828601612c30565b9150509250929050565b600067ffffffffffffffff821115612ca057612c9f612a63565b5b612ca9826127d3565b9050602081019050919050565b6000612cc9612cc484612c85565b612ac3565b905082815260208101848484011115612ce557612ce4612a5e565b5b612cf0848285612b0f565b509392505050565b600082601f830112612d0d57612d0c612a59565b5b8135612d1d848260208601612cb6565b91505092915050565b60008060008060808587031215612d4057612d3f6126c8565b5b6000612d4e87828801612915565b9450506020612d5f87828801612915565b9350506040612d7087828801612860565b925050606085013567ffffffffffffffff811115612d9157612d906126cd565b5b612d9d87828801612cf8565b91505092959194509250565b60008060408385031215612dc057612dbf6126c8565b5b6000612dce85828601612915565b9250506020612ddf85828601612915565b9150509250929050565b7f4e487b7100000000000000000000000000000000000000000000000000000000600052602260045260246000fd5b60006002820490506001821680612e3057607f821691505b602082108103612e4357612e42612de9565b5b50919050565b7f4552433732313a20617070726f76616c20746f2063757272656e74206f776e6560008201527f7200000000000000000000000000000000000000000000000000000000000000602082015250565b6000612ea5602183612798565b9150612eb082612e49565b604082019050919050565b60006020820190508181036000830152612ed481612e98565b9050919050565b7f4552433732313a20617070726f76652063616c6c6572206973206e6f7420746f60008201527f6b656e206f776e6572206f7220617070726f76656420666f7220616c6c000000602082015250565b6000612f37603d83612798565b9150612f4282612edb565b604082019050919050565b60006020820190508181036000830152612f6681612f2a565b9050919050565b7f4552433732313a2063616c6c6572206973206e6f7420746f6b656e206f776e6560008201527f72206f7220617070726f76656400000000000000000000000000000000000000602082015250565b6000612fc9602d83612798565b9150612fd482612f6d565b604082019050919050565b60006020820190508181036000830152612ff881612fbc565b9050919050565b7f5469636b65744e46543a20517565727920666f72206e6f6e6578697374656e7460008201527f20746f6b656e0000000000000000000000000000000000000000000000000000602082015250565b600061305b602683612798565b915061306682612fff565b604082019050919050565b6000602082019050818103600083015261308a8161304e565b9050919050565b7f455243373231456e756d657261626c653a206f776e657220696e646578206f7560008201527f74206f6620626f756e6473000000000000000000000000000000000000000000602082015250565b60006130ed602b83612798565b91506130f882613091565b604082019050919050565b6000602082019050818103600083015261311c816130e0565b9050919050565b7f5469636b65744e46543a20546f6b656e20646f6573206e6f7420657869737400600082015250565b6000613159601f83612798565b915061316482613123565b602082019050919050565b600060208201905081810360008301526131888161314c565b9050919050565b7f5469636b65744e46543a2063616c6c6572206973206e6f74206f776e6572206e60008201527f6f7220617070726f766564000000000000000000000000000000000000000000602082015250565b60006131eb602b83612798565b91506131f68261318f565b604082019050919050565b6000602082019050818103600083015261321a816131de565b9050919050565b7f455243373231456e756d657261626c653a20676c6f62616c20696e646578206f60008201527f7574206f6620626f756e64730000000000000000000000000000000000000000602082015250565b600061327d602c83612798565b915061328882613221565b604082019050919050565b600060208201905081810360008301526132ac81613270565b9050919050565b7f4e487b7100000000000000000000000000000000000000000000000000000000600052603260045260246000fd5b7f4552433732313a20696e76616c696420746f6b656e2049440000000000000000600082015250565b6000613318601883612798565b9150613323826132e2565b602082019050919050565b600060208201905081810360008301526133478161330b565b9050919050565b7f4552433732313a2061646472657373207a65726f206973206e6f74206120766160008201527f6c6964206f776e65720000000000000000000000000000000000000000000000602082015250565b60006133aa602983612798565b91506133b58261334e565b604082019050919050565b600060208201905081810360008301526133d98161339d565b9050919050565b60008190508160005260206000209050919050565b60006020601f8301049050919050565b600082821b905092915050565b6000600883026134427fffffffffffffffffffffffffffffffffffffffffffffffffffffffffffffffff82613405565b61344c8683613405565b95508019841693508086168417925050509392505050565b6000819050919050565b600061348961348461347f8461283f565b613464565b61283f565b9050919050565b6000819050919050565b6134a38361346e565b6134b76134af82613490565b848454613412565b825550505050565b600090565b6134cc6134bf565b6134d781848461349a565b505050565b5b818110156134fb576134f06000826134c4565b6001810190506134dd565b5050565b601f82111561354057613511816133e0565b61351a846133f5565b81016020851015613529578190505b61353d613535856133f5565b8301826134dc565b50505b505050565b600082821c905092915050565b600061356360001984600802613545565b1980831691505092915050565b600061357c8383613552565b9150826002028217905092915050565b6135958261278d565b67ffffffffffffffff8111156135ae576135ad612a63565b5b6135b88254612e18565b6135c38282856134ff565b600060209050601f8311600181146135f657600084156135e4578287015190505b6135ee8582613570565b865550613656565b601f198416613604866133e0565b60005b8281101561362c57848901518255600182019150602085019450602081019050613607565b868310156136495784890151613645601f891682613552565b8355505b6001600288020188555050505b505050505050565b600081905092915050565b60006136748261278d565b61367e818561365e565b935061368e8185602086016127a9565b80840191505092915050565b60006136a68285613669565b91506136b28284613669565b91508190509392505050565b7f4f776e61626c653a206e6577206f776e657220697320746865207a65726f206160008201527f6464726573730000000000000000000000000000000000000000000000000000602082015250565b600061371a602683612798565b9150613725826136be565b604082019050919050565b600060208201905081810360008301526137498161370d565b9050919050565b7f4552433732313a207472616e736665722066726f6d20696e636f72726563742060008201527f6f776e6572000000000000000000000000000000000000000000000000000000602082015250565b60006137ac602583612798565b91506137b782613750565b604082019050919050565b600060208201905081810360008301526137db8161379f565b9050919050565b7f4552433732313a207472616e7366657220746f20746865207a65726f2061646460008201527f7265737300000000000000000000000000000000000000000000000000000000602082015250565b600061383e602483612798565b9150613849826137e2565b604082019050919050565b6000602082019050818103600083015261386d81613831565b9050919050565b7f4f776e61626c653a2063616c6c6572206973206e6f7420746865206f776e6572600082015250565b60006138aa602083612798565b91506138b582613874565b602082019050919050565b600060208201905081810360008301526138d98161389d565b9050919050565b7f4552433732313a20617070726f766520746f2063616c6c657200000000000000600082015250565b6000613916601983612798565b9150613921826138e0565b602082019050919050565b6000602082019050818103600083015261394581613909565b9050919050565b7f4552433732313a207472616e7366657220746f206e6f6e20455243373231526560008201527f63656976657220696d706c656d656e7465720000000000000000000000000000602082015250565b60006139a8603283612798565b91506139b38261394c565b604082019050919050565b600060208201905081810360008301526139d78161399b565b9050919050565b7f4e487b7100000000000000000000000000000000000000000000000000000000600052601260045260246000fd5b7f455243373231456e756d657261626c653a20636f6e736563757469766520747260008201527f616e7366657273206e6f7420737570706f727465640000000000000000000000602082015250565b6000613a69603583612798565b9150613a7482613a0d565b604082019050919050565b60006020820190508181036000830152613a9881613a5c565b9050919050565b600081519050919050565b600082825260208201905092915050565b6000613ac682613a9f565b613ad08185613aaa565b9350613ae08185602086016127a9565b613ae9816127d3565b840191505092915050565b6000608082019050613b0960008301876128d4565b613b1660208301866128d4565b613b23604083018561296a565b8181036060830152613b358184613abb565b905095945050505050565b600081519050613b4f816126fe565b92915050565b600060208284031215613b6b57613b6a6126c8565b5b6000613b7984828501613b40565b91505092915050565b7f4e487b7100000000000000000000000000000000000000000000000000000000600052601160045260246000fd5b6000613bbc8261283f565b9150613bc78361283f565b9250828203905081811115613bdf57613bde613b82565b5b92915050565b7f4e487b7100000000000000000000000000000000000000000000000000000000600052603160045260246000fd5b7f4552433732313a206d696e7420746f20746865207a65726f2061646472657373600082015250565b6000613c4a602083612798565b9150613c5582613c14565b602082019050919050565b60006020820190508181036000830152613c7981613c3d565b9050919050565b7f4552433732313a20746f6b656e20616c7265616479206d696e74656400000000600082015250565b6000613cb6601c83612798565b9150613cc182613c80565b602082019050919050565b60006020820190508181036000830152613ce581613ca9565b905091905056fea2646970667358221220f577716e0bc21c1186e9401a77fc12bf838aa028005c6328ec344f1603404d6564736f6c63430008130033",
  "linkReferences": {},
  "deployedLinkReferences": {}
}