{
  "_format": "hh-sol-artifact-1",
  "contractName": "TicketNFT",
  "sourceName": "contracts/TicketNFT.sol",
  "abi": [
    {
      "inputs": [
        {
          "internalType": "address",
          "name": "_eventManager",
          "type": "address"
        }
      ],
      "stateMutability": "nonpayable",
      "type": "constructor"
    },
    {
      "anonymous": false,
      "inputs": [
        {
          "indexed": true,
          "internalType": "address",
          "name": "owner",
          "type": "address"
        },
        {
          "indexed": true,
          "internalType": "address",
          "name": "approved",
          "type": "address"
        },
        {
          "indexed": true,
          "internalType": "uint256",
          "name": "tokenId",
          "type": "uint256"
        }
      ],
      "name": "Approval",
      "type": "event"
    },
    {
      "anonymous": false,
      "inputs": [
        {
          "indexed": true,
          "internalType": "address",
          "name": "owner",
          "type": "address"
        },
        {
          "indexed": true,
          "internalType": "address",
          "name": "operator",
          "type": "address"
        },
        {
          "indexed": false,
          "internalType": "bool",
          "name": "approved",
          "type": "bool"
        }
      ],
      "name": "ApprovalForAll",
      "type": "event"
    },
    {
      "anonymous": false,
      "inputs": [
        {
          "indexed": false,
          "internalType": "uint256[]",
          "name": "tokenIds",
          "type": "uint256[]"
        },
        {
          "indexed": true,
          "internalType": "address",
          "name": "owner",
          "type": "address"
        },
        {
          "indexed": true,
          "internalType": "uint256",
          "name": "eventId",
          "type": "uint256"
        },
        {
          "indexed": false,
          "internalType": "string",
          "name": "eventName",
          "type": "string"
        },
        {
          "indexed": false,
          "internalType": "uint64",
          "name": "eventDate",
          "type": "uint64"
        },
        {
          "indexed": false,
          "internalType": "enum TicketNFT.EventType",
          "name": "eventType",
          "type": "uint8"
        }
      ],
      "name": "BatchTicketsMinted",
      "type": "event"
    },
    {
      "anonymous": false,
      "inputs": [
        {
          "indexed": true,
          "internalType": "address",
          "name": "previousOwner",
          "type": "address"
        },
        {
          "indexed": true,
          "internalType": "address",
          "name": "newOwner",
          "type": "address"
        }
      ],
      "name": "OwnershipTransferred",
      "type": "event"
    },
    {
      "anonymous": false,
      "inputs": [
        {
          "indexed": true,
          "internalType": "uint256",
          "name": "tokenId",
          "type": "uint256"
        },
        {
          "indexed": true,
          "internalType": "address",
          "name": "owner",
          "type": "address"
        },
        {
          "indexed": true,
          "internalType": "uint256",
          "name": "eventId",
          "type": "uint256"
        },
        {
          "indexed": false,
          "internalType": "string",
          "name": "eventName",
          "type": "string"
        },
        {
          "indexed": false,
          "internalType": "uint64",
          "name": "eventDate",
          "type": "uint64"
        },
        {
          "indexed": false,
          "internalType": "enum TicketNFT.EventType",
          "name": "eventType",
          "type": "uint8"
        },
        {
          "indexed": false,
          "internalType": "string",
          "name": "seatingInfo",
          "type": "string"
        }
      ],
      "name": "TicketMinted",
      "type": "event"
    },
    {
      "anonymous": false,
      "inputs": [
        {
          "indexed": true,
          "internalType": "address",
          "name": "from",
          "type": "address"
        },
        {
          "indexed": true,
          "internalType": "address",
          "name": "to",
          "type": "address"
        },
        {
          "indexed": true,
          "internalType": "uint256",
          "name": "tokenId",
          "type": "uint256"
        }
      ],
      "name": "Transfer",
      "type": "event"
    },
    {
      "inputs": [],
      "name": "MAX_BATCH_SIZE",
      "outputs": [
        {
          "internalType": "uint256",
          "name": "",
          "type": "uint256"
        }
      ],
      "stateMutability": "view",
      "type": "function"
    },
    {
      "inputs": [
        {
          "internalType": "address",
          "name": "to",
          "type": "address"
        },
        {
          "internalType": "uint256",
          "name": "tokenId",
          "type": "uint256"
        }
      ],
      "name": "approve",
      "outputs": [],
      "stateMutability": "nonpayable",
      "type": "function"
    },
    {
      "inputs": [
        {
          "internalType": "address",
          "name": "owner",
          "type": "address"
        }
      ],
      "name": "balanceOf",
      "outputs": [
        {
          "internalType": "uint256",
          "name": "",
          "type": "uint256"
        }
      ],
      "stateMutability": "view",
      "type": "function"
    },
    {
      "inputs": [
        {
          "internalType": "uint256",
          "name": "_eventId",
          "type": "uint256"
        },
        {
          "internalType": "string",
          "name": "_eventName",
          "type": "string"
        },
        {
          "internalType": "uint64",
          "name": "_eventDate",
          "type": "uint64"
        },
        {
          "internalType": "enum TicketNFT.EventType",
          "name": "_eventType",
          "type": "uint8"
        },
        {
          "internalType": "string[]",
          "name": "_seatingInfoList",
          "type": "string[]"
        }
      ],
      "name": "batchMintTickets",
      "outputs": [
        {
          "internalType": "uint256[]",
          "name": "",
          "type": "uint256[]"
        }
      ],
      "stateMutability": "payable",
      "type": "function"
    },
    {
      "inputs": [],
      "name": "eventManager",
      "outputs": [
        {
          "internalType": "contract EventManager",
          "name": "",
          "type": "address"
        }
      ],
      "stateMutability": "view",
      "type": "function"
    },
    {
      "inputs": [
        {
          "internalType": "uint256",
          "name": "tokenId",
          "type": "uint256"
        }
      ],
      "name": "getApproved",
      "outputs": [
        {
          "internalType": "address",
          "name": "",
          "type": "address"
        }
      ],
      "stateMutability": "view",
      "type": "function"
    },
    {
      "inputs": [
        {
          "internalType": "uint256",
          "name": "tokenId",
          "type": "uint256"
        }
      ],
      "name": "getTicketDetails",
      "outputs": [
        {
          "internalType": "uint256",
          "name": "",
          "type": "uint256"
        },
        {
          "internalType": "string",
          "name": "",
          "type": "string"
        },
        {
          "internalType": "uint64",
          "name": "",
          "type": "uint64"
        },
        {
          "internalType": "enum TicketNFT.EventType",
          "name": "",
          "type": "uint8"
        },
        {
          "internalType": "string",
          "name": "",
          "type": "string"
        }
      ],
      "stateMutability": "view",
      "type": "function"
    },
    {
      "inputs": [
        {
          "internalType": "address",
          "name": "owner",
          "type": "address"
        },
        {
          "internalType": "address",
          "name": "operator",
          "type": "address"
        }
      ],
      "name": "isApprovedForAll",
      "outputs": [
        {
          "internalType": "bool",
          "name": "",
          "type": "bool"
        }
      ],
      "stateMutability": "view",
      "type": "function"
    },
    {
      "inputs": [],
      "name": "mintFee",
      "outputs": [
        {
          "internalType": "uint256",
          "name": "",
          "type": "uint256"
        }
      ],
      "stateMutability": "view",
      "type": "function"
    },
    {
      "inputs": [
        {
          "internalType": "uint256",
          "name": "_eventId",
          "type": "uint256"
        },
        {
          "internalType": "string",
          "name": "_eventName",
          "type": "string"
        },
        {
          "internalType": "uint64",
          "name": "_eventDate",
          "type": "uint64"
        },
        {
          "internalType": "enum TicketNFT.EventType",
          "name": "_eventType",
          "type": "uint8"
        },
        {
          "internalType": "string",
          "name": "_seatingInfo",
          "type": "string"
        }
      ],
      "name": "mintTicket",
      "outputs": [
        {
          "internalType": "uint256",
          "name": "",
          "type": "uint256"
        }
      ],
      "stateMutability": "payable",
      "type": "function"
    },
    {
      "inputs": [],
      "name": "name",
      "outputs": [
        {
          "internalType": "string",
          "name": "",
          "type": "string"
        }
      ],
      "stateMutability": "view",
      "type": "function"
    },
    {
      "inputs": [],
      "name": "owner",
      "outputs": [
        {
          "internalType": "address",
          "name": "",
          "type": "address"
        }
      ],
      "stateMutability": "view",
      "type": "function"
    },
    {
      "inputs": [
        {
          "internalType": "uint256",
          "name": "tokenId",
          "type": "uint256"
        }
      ],
      "name": "ownerOf",
      "outputs": [
        {
          "internalType": "address",
          "name": "",
          "type": "address"
        }
      ],
      "stateMutability": "view",
      "type": "function"
    },
    {
      "inputs": [],
      "name": "renounceOwnership",
      "outputs": [],
      "stateMutability": "nonpayable",
      "type": "function"
    },
    {
      "inputs": [
        {
          "internalType": "address",
          "name": "from",
          "type": "address"
        },
        {
          "internalType": "address",
          "name": "to",
          "type": "address"
        },
        {
          "internalType": "uint256",
          "name": "tokenId",
          "type": "uint256"
        }
      ],
      "name": "safeTransferFrom",
      "outputs": [],
      "stateMutability": "nonpayable",
      "type": "function"
    },
    {
      "inputs": [
        {
          "internalType": "address",
          "name": "from",
          "type": "address"
        },
        {
          "internalType": "address",
          "name": "to",
          "type": "address"
        },
        {
          "internalType": "uint256",
          "name": "tokenId",
          "type": "uint256"
        },
        {
          "internalType": "bytes",
          "name": "data",
          "type": "bytes"
        }
      ],
      "name": "safeTransferFrom",
      "outputs": [],
      "stateMutability": "nonpayable",
      "type": "function"
    },
    {
      "inputs": [
        {
          "internalType": "address",
          "name": "operator",
          "type": "address"
        },
        {
          "internalType": "bool",
          "name": "approved",
          "type": "bool"
        }
      ],
      "name": "setApprovalForAll",
      "outputs": [],
      "stateMutability": "nonpayable",
      "type": "function"
    },
    {
      "inputs": [
        {
          "internalType": "address",
          "name": "_eventManager",
          "type": "address"
        }
      ],
      "name": "setEventManager",
      "outputs": [],
      "stateMutability": "nonpayable",
      "type": "function"
    },
    {
      "inputs": [
        {
          "internalType": "uint256",
          "name": "newFee",
          "type": "uint256"
        }
      ],
      "name": "setMintFee",
      "outputs": [],
      "stateMutability": "nonpayable",
      "type": "function"
    },
    {
      "inputs": [
        {
          "internalType": "bytes4",
          "name": "interfaceId",
          "type": "bytes4"
        }
      ],
      "name": "supportsInterface",
      "outputs": [
        {
          "internalType": "bool",
          "name": "",
          "type": "bool"
        }
      ],
      "stateMutability": "view",
      "type": "function"
    },
    {
      "inputs": [],
      "name": "symbol",
      "outputs": [
        {
          "internalType": "string",
          "name": "",
          "type": "string"
        }
      ],
      "stateMutability": "view",
      "type": "function"
    },
    {
      "inputs": [
        {
          "internalType": "uint256",
          "name": "tokenId",
          "type": "uint256"
        }
      ],
      "name": "tokenURI",
      "outputs": [
        {
          "internalType": "string",
          "name": "",
          "type": "string"
        }
      ],
      "stateMutability": "view",
      "type": "function"
    },
    {
      "inputs": [
        {
          "internalType": "address",
          "name": "from",
          "type": "address"
        },
        {
          "internalType": "address",
          "name": "to",
          "type": "address"
        },
        {
          "internalType": "uint256",
          "name": "tokenId",
          "type": "uint256"
        }
      ],
      "name": "transferFrom",
      "outputs": [],
      "stateMutability": "nonpayable",
      "type": "function"
    },
    {
      "inputs": [
        {
          "internalType": "address",
          "name": "newOwner",
          "type": "address"
        }
      ],
      "name": "transferOwnership",
      "outputs": [],
      "stateMutability": "nonpayable",
      "type": "function"
    },
    {
      "inputs": [],
      "name": "withdrawFees",
      "outputs": [],
      "stateMutability": "nonpayable",
      "type": "function"
    }
  ],
  "bytecode": "0x608060405266038d7ea4c68000600a553480156200001c57600080fd5b506040516200450d3803806200450d83398181016040528101906200004291906200027c565b6040518060400160405280600981526020017f5469636b65744e465400000000000000000000000000000000000000000000008152506040518060400160405280600481526020017f544e4654000000000000000000000000000000000000000000000000000000008152508160009081620000bf919062000528565b508060019081620000d1919062000528565b5050506001600681905550620000fc620000f06200014460201b60201c565b6200014c60201b60201c565b80600b60006101000a81548173ffffffffffffffffffffffffffffffffffffffff021916908373ffffffffffffffffffffffffffffffffffffffff160217905550506200060f565b600033905090565b6000600760009054906101000a900473ffffffffffffffffffffffffffffffffffffffff16905081600760006101000a81548173ffffffffffffffffffffffffffffffffffffffff021916908373ffffffffffffffffffffffffffffffffffffffff1602179055508173ffffffffffffffffffffffffffffffffffffffff168173ffffffffffffffffffffffffffffffffffffffff167f8be0079c531659141344cd1fd0a4f28419497f9722a3daafe3b4186f6b6457e060405160405180910390a35050565b600080fd5b600073ffffffffffffffffffffffffffffffffffffffff82169050919050565b6000620002448262000217565b9050919050565b620002568162000237565b81146200026257600080fd5b50565b60008151905062000276816200024b565b92915050565b60006020828403121562000295576200029462000212565b5b6000620002a58482850162000265565b91505092915050565b600081519050919050565b7f4e487b7100000000000000000000000000000000000000000000000000000000600052604160045260246000fd5b7f4e487b7100000000000000000000000000000000000000000000000000000000600052602260045260246000fd5b600060028204905060018216806200033057607f821691505b602082108103620003465762000345620002e8565b5b50919050565b60008190508160005260206000209050919050565b60006020601f8301049050919050565b600082821b905092915050565b600060088302620003b07fffffffffffffffffffffffffffffffffffffffffffffffffffffffffffffffff8262000371565b620003bc868362000371565b95508019841693508086168417925050509392505050565b6000819050919050565b6000819050919050565b60006200040962000403620003fd84620003d4565b620003de565b620003d4565b9050919050565b6000819050919050565b6200042583620003e8565b6200043d620004348262000410565b8484546200037e565b825550505050565b600090565b6200045462000445565b620004618184846200041a565b505050565b5b8181101562000489576200047d6000826200044a565b60018101905062000467565b5050565b601f821115620004d857620004a2816200034c565b620004ad8462000361565b81016020851015620004bd578190505b620004d5620004cc8562000361565b83018262000466565b50505b505050565b600082821c905092915050565b6000620004fd60001984600802620004dd565b1980831691505092915050565b6000620005188383620004ea565b9150826002028217905092915050565b6200053382620002ae565b67ffffffffffffffff8111156200054f576200054e620002b9565b5b6200055b825462000317565b620005688282856200048d565b600060209050601f831160018114620005a057600084156200058b578287015190505b6200059785826200050a565b86555062000607565b601f198416620005b0866200034c565b60005b82811015620005da57848901518255600182019150602085019450602081019050620005b3565b86831015620005fa5784890151620005f6601f891682620004ea565b8355505b6001600288020188555050505b505050505050565b613eee806200061f6000396000f3fe6080604052600436106101665760003560e01c806370a08231116100d1578063a22cb4651161008a578063cfdbf25411610064578063cfdbf25414610538578063e985e9c514610563578063eddd0d9c146105a0578063f2fde38b146105c957610166565b8063a22cb465146104a9578063b88d4fde146104d2578063c87b56dd146104fb57610166565b806370a08231146103a4578063715018a6146103e15780637b14e7c4146103f85780638da5cb5b146104285780638fd611be1461045357806395d89b411461047e57610166565b806324c141601161012357806324c141601461028d57806327f32904146102ce57806342842e0e146102fe578063476343ee14610327578063596fd76e1461033e5780636352211e1461036757610166565b806301ffc9a71461016b57806306fdde03146101a8578063081812fc146101d3578063095ea7b31461021057806313966db51461023957806323b872dd14610264575b600080fd5b34801561017757600080fd5b50610192600480360381019061018d9190612565565b6105f2565b60405161019f91906125ad565b60405180910390f35b3480156101b457600080fd5b506101bd6106d4565b6040516101ca9190612658565b60405180910390f35b3480156101df57600080fd5b506101fa60048036038101906101f591906126b0565b610766565b604051610207919061271e565b60405180910390f35b34801561021c57600080fd5b5061023760048036038101906102329190612765565b6107ac565b005b34801561024557600080fd5b5061024e6108c3565b60405161025b91906127b4565b60405180910390f35b34801561027057600080fd5b5061028b600480360381019061028691906127cf565b6108c9565b005b34801561029957600080fd5b506102b460048036038101906102af91906126b0565b610929565b6040516102c59594939291906128bc565b60405180910390f35b6102e860048036038101906102e39190612b89565b610af5565b6040516102f59190612cfa565b60405180910390f35b34801561030a57600080fd5b50610325600480360381019061032091906127cf565b610d9e565b005b34801561033357600080fd5b5061033c610dbe565b005b34801561034a57600080fd5b5061036560048036038101906103609190612d1c565b610e1c565b005b34801561037357600080fd5b5061038e600480360381019061038991906126b0565b610e68565b60405161039b919061271e565b60405180910390f35b3480156103b057600080fd5b506103cb60048036038101906103c69190612d1c565b610eee565b6040516103d891906127b4565b60405180910390f35b3480156103ed57600080fd5b506103f6610fa5565b005b610412600480360381019061040d9190612d49565b610fb9565b60405161041f91906127b4565b60405180910390f35b34801561043457600080fd5b5061043d611104565b60405161044a919061271e565b60405180910390f35b34801561045f57600080fd5b5061046861112e565b6040516104759190612e5b565b60405180910390f35b34801561048a57600080fd5b50610493611154565b6040516104a09190612658565b60405180910390f35b3480156104b557600080fd5b506104d060048036038101906104cb9190612ea2565b6111e6565b005b3480156104de57600080fd5b506104f960048036038101906104f49190612f83565b6111fc565b005b34801561050757600080fd5b50610522600480360381019061051d91906126b0565b61125e565b60405161052f9190612658565b60405180910390f35b34801561054457600080fd5b5061054d6112c6565b60405161055a91906127b4565b60405180910390f35b34801561056f57600080fd5b5061058a60048036038101906105859190613006565b6112cb565b60405161059791906125ad565b60405180910390f35b3480156105ac57600080fd5b506105c760048036038101906105c291906126b0565b61135f565b005b3480156105d557600080fd5b506105f060048036038101906105eb9190612d1c565b611371565b005b60007f80ac58cd000000000000000000000000000000000000000000000000000000007bffffffffffffffffffffffffffffffffffffffffffffffffffffffff1916827bffffffffffffffffffffffffffffffffffffffffffffffffffffffff191614806106bd57507f5b5e139f000000000000000000000000000000000000000000000000000000007bffffffffffffffffffffffffffffffffffffffffffffffffffffffff1916827bffffffffffffffffffffffffffffffffffffffffffffffffffffffff1916145b806106cd57506106cc826113f4565b5b9050919050565b6060600080546106e390613075565b80601f016020809104026020016040519081016040528092919081815260200182805461070f90613075565b801561075c5780601f106107315761010080835404028352916020019161075c565b820191906000526020600020905b81548152906001019060200180831161073f57829003601f168201915b5050505050905090565b60006107718261145e565b6004600083815260200190815260200160002060009054906101000a900473ffffffffffffffffffffffffffffffffffffffff169050919050565b60006107b782610e68565b90508073ffffffffffffffffffffffffffffffffffffffff168373ffffffffffffffffffffffffffffffffffffffff1603610827576040517f08c379a000000000000000000000000000000000000000000000000000000000815260040161081e90613118565b60405180910390fd5b8073ffffffffffffffffffffffffffffffffffffffff166108466114a9565b73ffffffffffffffffffffffffffffffffffffffff16148061087557506108748161086f6114a9565b6112cb565b5b6108b4576040517f08c379a00000000000000000000000000000000000000000000000000000000081526004016108ab906131aa565b60405180910390fd5b6108be83836114b1565b505050565b600a5481565b6108da6108d46114a9565b8261156a565b610919576040517f08c379a00000000000000000000000000000000000000000000000000000000081526004016109109061323c565b60405180910390fd5b6109248383836115ff565b505050565b60006060600080606061093b866118f8565b61097a576040517f08c379a0000000000000000000000000000000000000000000000000000000008152600401610971906132a8565b60405180910390fd5b60006009600088815260200190815260200160002090508060000154816002018260010160009054906101000a900467ffffffffffffffff168360030160009054906101000a900460ff16846004018380546109d590613075565b80601f0160208091040260200160405190810160405280929190818152602001828054610a0190613075565b8015610a4e5780601f10610a2357610100808354040283529160200191610a4e565b820191906000526020600020905b815481529060010190602001808311610a3157829003601f168201915b50505050509350808054610a6190613075565b80601f0160208091040260200160405190810160405280929190818152602001828054610a8d90613075565b8015610ada5780601f10610aaf57610100808354040283529160200191610ada565b820191906000526020600020905b815481529060010190602001808311610abd57829003601f168201915b50505050509050955095509550955095505091939590929450565b6060610aff611939565b600082519050600081118015610b16575060648111155b610b55576040517f08c379a0000000000000000000000000000000000000000000000000000000008152600401610b4c90613314565b60405180910390fd5b80600a54610b639190613363565b341015610ba5576040517f08c379a0000000000000000000000000000000000000000000000000000000008152600401610b9c906133f1565b60405180910390fd5b600b60009054906101000a900473ffffffffffffffffffffffffffffffffffffffff1673ffffffffffffffffffffffffffffffffffffffff166349287c0b886040518263ffffffff1660e01b8152600401610c0091906127b4565b602060405180830381865afa158015610c1d573d6000803e3d6000fd5b505050506040513d601f19601f82011682018060405250810190610c419190613426565b610c80576040517f08c379a0000000000000000000000000000000000000000000000000000000008152600401610c779061349f565b60405180910390fd5b60008167ffffffffffffffff811115610c9c57610c9b612927565b5b604051908082528060200260200182016040528015610cca5781602001602082028036833780820191505090505b50905060005b82811015610d3257610d00338a8a8a8a8a8781518110610cf357610cf26134bf565b5b6020026020010151611988565b828281518110610d1357610d126134bf565b5b6020026020010181815250508080610d2a906134ee565b915050610cd0565b50873373ffffffffffffffffffffffffffffffffffffffff167ff3790a3000899dc5e6aa36ff05ac7f3051c008373000b71c591985ad5aa1c0eb838a8a8a604051610d809493929190613536565b60405180910390a38092505050610d95611afe565b95945050505050565b610db9838383604051806020016040528060008152506111fc565b505050565b610dc6611b08565b6000479050610dd3611104565b73ffffffffffffffffffffffffffffffffffffffff166108fc829081150290604051600060405180830381858888f19350505050158015610e18573d6000803e3d6000fd5b5050565b610e24611b08565b80600b60006101000a81548173ffffffffffffffffffffffffffffffffffffffff021916908373ffffffffffffffffffffffffffffffffffffffff16021790555050565b600080610e7483611b86565b9050600073ffffffffffffffffffffffffffffffffffffffff168173ffffffffffffffffffffffffffffffffffffffff1603610ee5576040517f08c379a0000000000000000000000000000000000000000000000000000000008152600401610edc906132a8565b60405180910390fd5b80915050919050565b60008073ffffffffffffffffffffffffffffffffffffffff168273ffffffffffffffffffffffffffffffffffffffff1603610f5e576040517f08c379a0000000000000000000000000000000000000000000000000000000008152600401610f55906135fb565b60405180910390fd5b600360008373ffffffffffffffffffffffffffffffffffffffff1673ffffffffffffffffffffffffffffffffffffffff168152602001908152602001600020549050919050565b610fad611b08565b610fb76000611bc3565b565b6000610fc3611939565b600a54341015611008576040517f08c379a0000000000000000000000000000000000000000000000000000000008152600401610fff906133f1565b60405180910390fd5b600b60009054906101000a900473ffffffffffffffffffffffffffffffffffffffff1673ffffffffffffffffffffffffffffffffffffffff166349287c0b876040518263ffffffff1660e01b815260040161106391906127b4565b602060405180830381865afa158015611080573d6000803e3d6000fd5b505050506040513d601f19601f820116820180604052508101906110a49190613426565b6110e3576040517f08c379a00000000000000000000000000000000000000000000000000000000081526004016110da9061349f565b60405180910390fd5b6110f1338787878787611988565b90506110fb611afe565b95945050505050565b6000600760009054906101000a900473ffffffffffffffffffffffffffffffffffffffff16905090565b600b60009054906101000a900473ffffffffffffffffffffffffffffffffffffffff1681565b60606001805461116390613075565b80601f016020809104026020016040519081016040528092919081815260200182805461118f90613075565b80156111dc5780601f106111b1576101008083540402835291602001916111dc565b820191906000526020600020905b8154815290600101906020018083116111bf57829003601f168201915b5050505050905090565b6111f86111f16114a9565b8383611c89565b5050565b61120d6112076114a9565b8361156a565b61124c576040517f08c379a00000000000000000000000000000000000000000000000000000000081526004016112439061323c565b60405180910390fd5b61125884848484611df5565b50505050565b60606112698261145e565b6000611273611e51565b9050600081511161129357604051806020016040528060008152506112be565b8061129d84611e68565b6040516020016112ae929190613657565b6040516020818303038152906040525b915050919050565b606481565b6000600560008473ffffffffffffffffffffffffffffffffffffffff1673ffffffffffffffffffffffffffffffffffffffff16815260200190815260200160002060008373ffffffffffffffffffffffffffffffffffffffff1673ffffffffffffffffffffffffffffffffffffffff16815260200190815260200160002060009054906101000a900460ff16905092915050565b611367611b08565b80600a8190555050565b611379611b08565b600073ffffffffffffffffffffffffffffffffffffffff168173ffffffffffffffffffffffffffffffffffffffff16036113e8576040517f08c379a00000000000000000000000000000000000000000000000000000000081526004016113df906136ed565b60405180910390fd5b6113f181611bc3565b50565b60007f01ffc9a7000000000000000000000000000000000000000000000000000000007bffffffffffffffffffffffffffffffffffffffffffffffffffffffff1916827bffffffffffffffffffffffffffffffffffffffffffffffffffffffff1916149050919050565b611467816118f8565b6114a6576040517f08c379a000000000000000000000000000000000000000000000000000000000815260040161149d906132a8565b60405180910390fd5b50565b600033905090565b816004600083815260200190815260200160002060006101000a81548173ffffffffffffffffffffffffffffffffffffffff021916908373ffffffffffffffffffffffffffffffffffffffff160217905550808273ffffffffffffffffffffffffffffffffffffffff1661152483610e68565b73ffffffffffffffffffffffffffffffffffffffff167f8c5be1e5ebec7d5bd14f71427d1e84f3dd0314c0f7b2291e5b200ac8c7c3b92560405160405180910390a45050565b60008061157683610e68565b90508073ffffffffffffffffffffffffffffffffffffffff168473ffffffffffffffffffffffffffffffffffffffff1614806115b857506115b781856112cb565b5b806115f657508373ffffffffffffffffffffffffffffffffffffffff166115de84610766565b73ffffffffffffffffffffffffffffffffffffffff16145b91505092915050565b8273ffffffffffffffffffffffffffffffffffffffff1661161f82610e68565b73ffffffffffffffffffffffffffffffffffffffff1614611675576040517f08c379a000000000000000000000000000000000000000000000000000000000815260040161166c9061377f565b60405180910390fd5b600073ffffffffffffffffffffffffffffffffffffffff168273ffffffffffffffffffffffffffffffffffffffff16036116e4576040517f08c379a00000000000000000000000000000000000000000000000000000000081526004016116db90613811565b60405180910390fd5b6116f18383836001611f36565b8273ffffffffffffffffffffffffffffffffffffffff1661171182610e68565b73ffffffffffffffffffffffffffffffffffffffff1614611767576040517f08c379a000000000000000000000000000000000000000000000000000000000815260040161175e9061377f565b60405180910390fd5b6004600082815260200190815260200160002060006101000a81549073ffffffffffffffffffffffffffffffffffffffff02191690556001600360008573ffffffffffffffffffffffffffffffffffffffff1673ffffffffffffffffffffffffffffffffffffffff168152602001908152602001600020600082825403925050819055506001600360008473ffffffffffffffffffffffffffffffffffffffff1673ffffffffffffffffffffffffffffffffffffffff16815260200190815260200160002060008282540192505081905550816002600083815260200190815260200160002060006101000a81548173ffffffffffffffffffffffffffffffffffffffff021916908373ffffffffffffffffffffffffffffffffffffffff160217905550808273ffffffffffffffffffffffffffffffffffffffff168473ffffffffffffffffffffffffffffffffffffffff167fddf252ad1be2c89b69c2b068fc378daa952ba7f163c4a11628f55a4df523b3ef60405160405180910390a46118f38383836001611f3c565b505050565b60008073ffffffffffffffffffffffffffffffffffffffff1661191a83611b86565b73ffffffffffffffffffffffffffffffffffffffff1614159050919050565b60026006540361197e576040517f08c379a00000000000000000000000000000000000000000000000000000000081526004016119759061387d565b60405180910390fd5b6002600681905550565b60006119946008611f42565b60006119a06008611f58565b90506119ac8882611f66565b6040518060a001604052808881526020018667ffffffffffffffff1681526020018781526020018560048111156119e6576119e5612845565b5b815260200184815250600960008381526020019081526020016000206000820151816000015560208201518160010160006101000a81548167ffffffffffffffff021916908367ffffffffffffffff1602179055506040820151816002019081611a509190613a3f565b5060608201518160030160006101000a81548160ff02191690836004811115611a7c57611a7b612845565b5b02179055506080820151816004019081611a969190613a3f565b50905050868873ffffffffffffffffffffffffffffffffffffffff16827f8a864dd959b62056f64b462f7f12942be56df0da50c500a6e36a823c5f3b1fd989898989604051611ae89493929190613b11565b60405180910390a4809150509695505050505050565b6001600681905550565b611b106114a9565b73ffffffffffffffffffffffffffffffffffffffff16611b2e611104565b73ffffffffffffffffffffffffffffffffffffffff1614611b84576040517f08c379a0000000000000000000000000000000000000000000000000000000008152600401611b7b90613bb0565b60405180910390fd5b565b60006002600083815260200190815260200160002060009054906101000a900473ffffffffffffffffffffffffffffffffffffffff169050919050565b6000600760009054906101000a900473ffffffffffffffffffffffffffffffffffffffff16905081600760006101000a81548173ffffffffffffffffffffffffffffffffffffffff021916908373ffffffffffffffffffffffffffffffffffffffff1602179055508173ffffffffffffffffffffffffffffffffffffffff168173ffffffffffffffffffffffffffffffffffffffff167f8be0079c531659141344cd1fd0a4f28419497f9722a3daafe3b4186f6b6457e060405160405180910390a35050565b8173ffffffffffffffffffffffffffffffffffffffff168373ffffffffffffffffffffffffffffffffffffffff1603611cf7576040517f08c379a0000000000000000000000000000000000000000000000000000000008152600401611cee90613c1c565b60405180910390fd5b80600560008573ffffffffffffffffffffffffffffffffffffffff1673ffffffffffffffffffffffffffffffffffffffff16815260200190815260200160002060008473ffffffffffffffffffffffffffffffffffffffff1673ffffffffffffffffffffffffffffffffffffffff16815260200190815260200160002060006101000a81548160ff0219169083151502179055508173ffffffffffffffffffffffffffffffffffffffff168373ffffffffffffffffffffffffffffffffffffffff167f17307eab39ab6107e8899845ad3d59bd9653f200f220920489ca2b5937696c3183604051611de891906125ad565b60405180910390a3505050565b611e008484846115ff565b611e0c84848484611f84565b611e4b576040517f08c379a0000000000000000000000000000000000000000000000000000000008152600401611e4290613cae565b60405180910390fd5b50505050565b606060405180602001604052806000815250905090565b606060006001611e778461210b565b01905060008167ffffffffffffffff811115611e9657611e95612927565b5b6040519080825280601f01601f191660200182016040528015611ec85781602001600182028036833780820191505090505b509050600082602001820190505b600115611f2b578080600190039150507f3031323334353637383961626364656600000000000000000000000000000000600a86061a8153600a8581611f1f57611f1e613cce565b5b04945060008503611ed6575b819350505050919050565b50505050565b50505050565b6001816000016000828254019250508190555050565b600081600001549050919050565b611f8082826040518060200160405280600081525061225e565b5050565b6000611fa58473ffffffffffffffffffffffffffffffffffffffff166122b9565b156120fe578373ffffffffffffffffffffffffffffffffffffffff1663150b7a02611fce6114a9565b8786866040518563ffffffff1660e01b8152600401611ff09493929190613d52565b6020604051808303816000875af192505050801561202c57506040513d601f19601f820116820180604052508101906120299190613db3565b60015b6120ae573d806000811461205c576040519150601f19603f3d011682016040523d82523d6000602084013e612061565b606091505b5060008151036120a6576040517f08c379a000000000000000000000000000000000000000000000000000000000815260040161209d90613cae565b60405180910390fd5b805181602001fd5b63150b7a0260e01b7bffffffffffffffffffffffffffffffffffffffffffffffffffffffff1916817bffffffffffffffffffffffffffffffffffffffffffffffffffffffff191614915050612103565b600190505b949350505050565b600080600090507a184f03e93ff9f4daa797ed6e38ed64bf6a1f0100000000000000008310612169577a184f03e93ff9f4daa797ed6e38ed64bf6a1f010000000000000000838161215f5761215e613cce565b5b0492506040810190505b6d04ee2d6d415b85acef810000000083106121a6576d04ee2d6d415b85acef8100000000838161219c5761219b613cce565b5b0492506020810190505b662386f26fc1000083106121d557662386f26fc1000083816121cb576121ca613cce565b5b0492506010810190505b6305f5e10083106121fe576305f5e10083816121f4576121f3613cce565b5b0492506008810190505b612710831061222357612710838161221957612218613cce565b5b0492506004810190505b60648310612246576064838161223c5761223b613cce565b5b0492506002810190505b600a8310612255576001810190505b80915050919050565b61226883836122dc565b6122756000848484611f84565b6122b4576040517f08c379a00000000000000000000000000000000000000000000000000000000081526004016122ab90613cae565b60405180910390fd5b505050565b6000808273ffffffffffffffffffffffffffffffffffffffff163b119050919050565b600073ffffffffffffffffffffffffffffffffffffffff168273ffffffffffffffffffffffffffffffffffffffff160361234b576040517f08c379a000000000000000000000000000000000000000000000000000000000815260040161234290613e2c565b60405180910390fd5b612354816118f8565b15612394576040517f08c379a000000000000000000000000000000000000000000000000000000000815260040161238b90613e98565b60405180910390fd5b6123a2600083836001611f36565b6123ab816118f8565b156123eb576040517f08c379a00000000000000000000000000000000000000000000000000000000081526004016123e290613e98565b60405180910390fd5b6001600360008473ffffffffffffffffffffffffffffffffffffffff1673ffffffffffffffffffffffffffffffffffffffff16815260200190815260200160002060008282540192505081905550816002600083815260200190815260200160002060006101000a81548173ffffffffffffffffffffffffffffffffffffffff021916908373ffffffffffffffffffffffffffffffffffffffff160217905550808273ffffffffffffffffffffffffffffffffffffffff16600073ffffffffffffffffffffffffffffffffffffffff167fddf252ad1be2c89b69c2b068fc378daa952ba7f163c4a11628f55a4df523b3ef60405160405180910390a46124f5600083836001611f3c565b5050565b6000604051905090565b600080fd5b600080fd5b60007fffffffff0000000000000000000000000000000000000000000000000000000082169050919050565b6125428161250d565b811461254d57600080fd5b50565b60008135905061255f81612539565b92915050565b60006020828403121561257b5761257a612503565b5b600061258984828501612550565b91505092915050565b60008115159050919050565b6125a781612592565b82525050565b60006020820190506125c2600083018461259e565b92915050565b600081519050919050565b600082825260208201905092915050565b60005b838110156126025780820151818401526020810190506125e7565b60008484015250505050565b6000601f19601f8301169050919050565b600061262a826125c8565b61263481856125d3565b93506126448185602086016125e4565b61264d8161260e565b840191505092915050565b60006020820190508181036000830152612672818461261f565b905092915050565b6000819050919050565b61268d8161267a565b811461269857600080fd5b50565b6000813590506126aa81612684565b92915050565b6000602082840312156126c6576126c5612503565b5b60006126d48482850161269b565b91505092915050565b600073ffffffffffffffffffffffffffffffffffffffff82169050919050565b6000612708826126dd565b9050919050565b612718816126fd565b82525050565b6000602082019050612733600083018461270f565b92915050565b612742816126fd565b811461274d57600080fd5b50565b60008135905061275f81612739565b92915050565b6000806040838503121561277c5761277b612503565b5b600061278a85828601612750565b925050602061279b8582860161269b565b9150509250929050565b6127ae8161267a565b82525050565b60006020820190506127c960008301846127a5565b92915050565b6000806000606084860312156127e8576127e7612503565b5b60006127f686828701612750565b935050602061280786828701612750565b92505060406128188682870161269b565b9150509250925092565b600067ffffffffffffffff82169050919050565b61283f81612822565b82525050565b7f4e487b7100000000000000000000000000000000000000000000000000000000600052602160045260246000fd5b6005811061288557612884612845565b5b50565b600081905061289682612874565b919050565b60006128a682612888565b9050919050565b6128b68161289b565b82525050565b600060a0820190506128d160008301886127a5565b81810360208301526128e3818761261f565b90506128f26040830186612836565b6128ff60608301856128ad565b8181036080830152612911818461261f565b90509695505050505050565b600080fd5b600080fd5b7f4e487b7100000000000000000000000000000000000000000000000000000000600052604160045260246000fd5b61295f8261260e565b810181811067ffffffffffffffff8211171561297e5761297d612927565b5b80604052505050565b60006129916124f9565b905061299d8282612956565b919050565b600067ffffffffffffffff8211156129bd576129bc612927565b5b6129c68261260e565b9050602081019050919050565b82818337600083830152505050565b60006129f56129f0846129a2565b612987565b905082815260208101848484011115612a1157612a10612922565b5b612a1c8482856129d3565b509392505050565b600082601f830112612a3957612a3861291d565b5b8135612a498482602086016129e2565b91505092915050565b612a5b81612822565b8114612a6657600080fd5b50565b600081359050612a7881612a52565b92915050565b60058110612a8b57600080fd5b50565b600081359050612a9d81612a7e565b92915050565b600067ffffffffffffffff821115612abe57612abd612927565b5b602082029050602081019050919050565b600080fd5b6000612ae7612ae284612aa3565b612987565b90508083825260208201905060208402830185811115612b0a57612b09612acf565b5b835b81811015612b5157803567ffffffffffffffff811115612b2f57612b2e61291d565b5b808601612b3c8982612a24565b85526020850194505050602081019050612b0c565b5050509392505050565b600082601f830112612b7057612b6f61291d565b5b8135612b80848260208601612ad4565b91505092915050565b600080600080600060a08688031215612ba557612ba4612503565b5b6000612bb38882890161269b565b955050602086013567ffffffffffffffff811115612bd457612bd3612508565b5b612be088828901612a24565b9450506040612bf188828901612a69565b9350506060612c0288828901612a8e565b925050608086013567ffffffffffffffff811115612c2357612c22612508565b5b612c2f88828901612b5b565b9150509295509295909350565b600081519050919050565b600082825260208201905092915050565b6000819050602082019050919050565b612c718161267a565b82525050565b6000612c838383612c68565b60208301905092915050565b6000602082019050919050565b6000612ca782612c3c565b612cb18185612c47565b9350612cbc83612c58565b8060005b83811015612ced578151612cd48882612c77565b9750612cdf83612c8f565b925050600181019050612cc0565b5085935050505092915050565b60006020820190508181036000830152612d148184612c9c565b905092915050565b600060208284031215612d3257612d31612503565b5b6000612d4084828501612750565b91505092915050565b600080600080600060a08688031215612d6557612d64612503565b5b6000612d738882890161269b565b955050602086013567ffffffffffffffff811115612d9457612d93612508565b5b612da088828901612a24565b9450506040612db188828901612a69565b9350506060612dc288828901612a8e565b925050608086013567ffffffffffffffff811115612de357612de2612508565b5b612def88828901612a24565b9150509295509295909350565b6000819050919050565b6000612e21612e1c612e17846126dd565b612dfc565b6126dd565b9050919050565b6000612e3382612e06565b9050919050565b6000612e4582612e28565b9050919050565b612e5581612e3a565b82525050565b6000602082019050612e706000830184612e4c565b92915050565b612e7f81612592565b8114612e8a57600080fd5b50565b600081359050612e9c81612e76565b92915050565b60008060408385031215612eb957612eb8612503565b5b6000612ec785828601612750565b9250506020612ed885828601612e8d565b9150509250929050565b600067ffffffffffffffff821115612efd57612efc612927565b5b612f068261260e565b9050602081019050919050565b6000612f26612f2184612ee2565b612987565b905082815260208101848484011115612f4257612f41612922565b5b612f4d8482856129d3565b509392505050565b600082601f830112612f6a57612f6961291d565b5b8135612f7a848260208601612f13565b91505092915050565b60008060008060808587031215612f9d57612f9c612503565b5b6000612fab87828801612750565b9450506020612fbc87828801612750565b9350506040612fcd8782880161269b565b925050606085013567ffffffffffffffff811115612fee57612fed612508565b5b612ffa87828801612f55565b91505092959194509250565b6000806040838503121561301d5761301c612503565b5b600061302b85828601612750565b925050602061303c85828601612750565b9150509250929050565b7f4e487b7100000000000000000000000000000000000000000000000000000000600052602260045260246000fd5b6000600282049050600182168061308d57607f821691505b6020821081036130a05761309f613046565b5b50919050565b7f4552433732313a20617070726f76616c20746f2063757272656e74206f776e6560008201527f7200000000000000000000000000000000000000000000000000000000000000602082015250565b60006131026021836125d3565b915061310d826130a6565b604082019050919050565b60006020820190508181036000830152613131816130f5565b9050919050565b7f4552433732313a20617070726f76652063616c6c6572206973206e6f7420746f60008201527f6b656e206f776e6572206f7220617070726f76656420666f7220616c6c000000602082015250565b6000613194603d836125d3565b915061319f82613138565b604082019050919050565b600060208201905081810360008301526131c381613187565b9050919050565b7f4552433732313a2063616c6c6572206973206e6f7420746f6b656e206f776e6560008201527f72206f7220617070726f76656400000000000000000000000000000000000000602082015250565b6000613226602d836125d3565b9150613231826131ca565b604082019050919050565b6000602082019050818103600083015261325581613219565b9050919050565b7f4552433732313a20696e76616c696420746f6b656e2049440000000000000000600082015250565b60006132926018836125d3565b915061329d8261325c565b602082019050919050565b600060208201905081810360008301526132c181613285565b9050919050565b7f496e76616c69642062617463682073697a650000000000000000000000000000600082015250565b60006132fe6012836125d3565b9150613309826132c8565b602082019050919050565b6000602082019050818103600083015261332d816132f1565b9050919050565b7f4e487b7100000000000000000000000000000000000000000000000000000000600052601160045260246000fd5b600061336e8261267a565b91506133798361267a565b92508282026133878161267a565b9150828204841483151761339e5761339d613334565b5b5092915050565b7f496e73756666696369656e74206d696e74206665650000000000000000000000600082015250565b60006133db6015836125d3565b91506133e6826133a5565b602082019050919050565b6000602082019050818103600083015261340a816133ce565b9050919050565b60008151905061342081612e76565b92915050565b60006020828403121561343c5761343b612503565b5b600061344a84828501613411565b91505092915050565b7f496e76616c6964206f7220696e616374697665206576656e7400000000000000600082015250565b60006134896019836125d3565b915061349482613453565b602082019050919050565b600060208201905081810360008301526134b88161347c565b9050919050565b7f4e487b7100000000000000000000000000000000000000000000000000000000600052603260045260246000fd5b60006134f98261267a565b91507fffffffffffffffffffffffffffffffffffffffffffffffffffffffffffffffff820361352b5761352a613334565b5b600182019050919050565b600060808201905081810360008301526135508187612c9c565b90508181036020830152613564818661261f565b90506135736040830185612836565b61358060608301846128ad565b95945050505050565b7f4552433732313a2061646472657373207a65726f206973206e6f74206120766160008201527f6c6964206f776e65720000000000000000000000000000000000000000000000602082015250565b60006135e56029836125d3565b91506135f082613589565b604082019050919050565b60006020820190508181036000830152613614816135d8565b9050919050565b600081905092915050565b6000613631826125c8565b61363b818561361b565b935061364b8185602086016125e4565b80840191505092915050565b60006136638285613626565b915061366f8284613626565b91508190509392505050565b7f4f776e61626c653a206e6577206f776e657220697320746865207a65726f206160008201527f6464726573730000000000000000000000000000000000000000000000000000602082015250565b60006136d76026836125d3565b91506136e28261367b565b604082019050919050565b60006020820190508181036000830152613706816136ca565b9050919050565b7f4552433732313a207472616e736665722066726f6d20696e636f72726563742060008201527f6f776e6572000000000000000000000000000000000000000000000000000000602082015250565b60006137696025836125d3565b91506137748261370d565b604082019050919050565b600060208201905081810360008301526137988161375c565b9050919050565b7f4552433732313a207472616e7366657220746f20746865207a65726f2061646460008201527f7265737300000000000000000000000000000000000000000000000000000000602082015250565b60006137fb6024836125d3565b91506138068261379f565b604082019050919050565b6000602082019050818103600083015261382a816137ee565b9050919050565b7f5265656e7472616e637947756172643a207265656e7472616e742063616c6c00600082015250565b6000613867601f836125d3565b915061387282613831565b602082019050919050565b600060208201905081810360008301526138968161385a565b9050919050565b60008190508160005260206000209050919050565b60006020601f8301049050919050565b600082821b905092915050565b6000600883026138ff7fffffffffffffffffffffffffffffffffffffffffffffffffffffffffffffffff826138c2565b61390986836138c2565b95508019841693508086168417925050509392505050565b600061393c6139376139328461267a565b612dfc565b61267a565b9050919050565b6000819050919050565b61395683613921565b61396a61396282613943565b8484546138cf565b825550505050565b600090565b61397f613972565b61398a81848461394d565b505050565b5b818110156139ae576139a3600082613977565b600181019050613990565b5050565b601f8211156139f3576139c48161389d565b6139cd846138b2565b810160208510156139dc578190505b6139f06139e8856138b2565b83018261398f565b50505b505050565b600082821c905092915050565b6000613a16600019846008026139f8565b1980831691505092915050565b6000613a2f8383613a05565b9150826002028217905092915050565b613a48826125c8565b67ffffffffffffffff811115613a6157613a60612927565b5b613a6b8254613075565b613a768282856139b2565b600060209050601f831160018114613aa95760008415613a97578287015190505b613aa18582613a23565b865550613b09565b601f198416613ab78661389d565b60005b82811015613adf57848901518255600182019150602085019450602081019050613aba565b86831015613afc5784890151613af8601f891682613a05565b8355505b6001600288020188555050505b505050505050565b60006080820190508181036000830152613b2b818761261f565b9050613b3a6020830186612836565b613b4760408301856128ad565b8181036060830152613b59818461261f565b905095945050505050565b7f4f776e61626c653a2063616c6c6572206973206e6f7420746865206f776e6572600082015250565b6000613b9a6020836125d3565b9150613ba582613b64565b602082019050919050565b60006020820190508181036000830152613bc981613b8d565b9050919050565b7f4552433732313a20617070726f766520746f2063616c6c657200000000000000600082015250565b6000613c066019836125d3565b9150613c1182613bd0565b602082019050919050565b60006020820190508181036000830152613c3581613bf9565b9050919050565b7f4552433732313a207472616e7366657220746f206e6f6e20455243373231526560008201527f63656976657220696d706c656d656e7465720000000000000000000000000000602082015250565b6000613c986032836125d3565b9150613ca382613c3c565b604082019050919050565b60006020820190508181036000830152613cc781613c8b565b9050919050565b7f4e487b7100000000000000000000000000000000000000000000000000000000600052601260045260246000fd5b600081519050919050565b600082825260208201905092915050565b6000613d2482613cfd565b613d2e8185613d08565b9350613d3e8185602086016125e4565b613d478161260e565b840191505092915050565b6000608082019050613d67600083018761270f565b613d74602083018661270f565b613d8160408301856127a5565b8181036060830152613d938184613d19565b905095945050505050565b600081519050613dad81612539565b92915050565b600060208284031215613dc957613dc8612503565b5b6000613dd784828501613d9e565b91505092915050565b7f4552433732313a206d696e7420746f20746865207a65726f2061646472657373600082015250565b6000613e166020836125d3565b9150613e2182613de0565b602082019050919050565b60006020820190508181036000830152613e4581613e09565b9050919050565b7f4552433732313a20746f6b656e20616c7265616479206d696e74656400000000600082015250565b6000613e82601c836125d3565b9150613e8d82613e4c565b602082019050919050565b60006020820190508181036000830152613eb181613e75565b905091905056fea26469706673582212209d48a362e75e065d00261195f650f85569a66f62be4a2272668fd5584f01cd6e64736f6c63430008130033",
  "linkReferences": {},
  "deployedLinkReferences": {}
}