{
  "_format": "hh-sol-artifact-1",
  "contractName": "TicketNFT",
  "sourceName": "contracts/TicketNFT.sol",
  "abi": [
    {
      "inputs": [],
      "stateMutability": "nonpayable",
      "type": "constructor"
    },
    {
      "anonymous": false,
      "inputs": [
        {
          "indexed": true,
          "internalType": "address",
          "name": "owner",
          "type": "address"
        },
        {
          "indexed": true,
          "internalType": "address",
          "name": "approved",
          "type": "address"
        },
        {
          "indexed": true,
          "internalType": "uint256",
          "name": "tokenId",
          "type": "uint256"
        }
      ],
      "name": "Approval",
      "type": "event"
    },
    {
      "anonymous": false,
      "inputs": [
        {
          "indexed": true,
          "internalType": "address",
          "name": "owner",
          "type": "address"
        },
        {
          "indexed": true,
          "internalType": "address",
          "name": "operator",
          "type": "address"
        },
        {
          "indexed": false,
          "internalType": "bool",
          "name": "approved",
          "type": "bool"
        }
      ],
      "name": "ApprovalForAll",
      "type": "event"
    },
    {
      "anonymous": false,
      "inputs": [
        {
          "indexed": false,
          "internalType": "uint256[]",
          "name": "tokenIds",
          "type": "uint256[]"
        },
        {
          "indexed": true,
          "internalType": "address",
          "name": "owner",
          "type": "address"
        },
        {
          "indexed": false,
          "internalType": "string",
          "name": "eventName",
          "type": "string"
        },
        {
          "indexed": false,
          "internalType": "uint64",
          "name": "eventDate",
          "type": "uint64"
        },
        {
          "indexed": false,
          "internalType": "enum TicketNFT.EventType",
          "name": "eventType",
          "type": "uint8"
        }
      ],
      "name": "BatchTicketsMinted",
      "type": "event"
    },
    {
      "anonymous": false,
      "inputs": [
        {
          "indexed": true,
          "internalType": "address",
          "name": "previousOwner",
          "type": "address"
        },
        {
          "indexed": true,
          "internalType": "address",
          "name": "newOwner",
          "type": "address"
        }
      ],
      "name": "OwnershipTransferred",
      "type": "event"
    },
    {
      "anonymous": false,
      "inputs": [
        {
          "indexed": true,
          "internalType": "uint256",
          "name": "tokenId",
          "type": "uint256"
        },
        {
          "indexed": true,
          "internalType": "address",
          "name": "owner",
          "type": "address"
        },
        {
          "indexed": false,
          "internalType": "string",
          "name": "eventName",
          "type": "string"
        },
        {
          "indexed": false,
          "internalType": "uint64",
          "name": "eventDate",
          "type": "uint64"
        },
        {
          "indexed": false,
          "internalType": "enum TicketNFT.EventType",
          "name": "eventType",
          "type": "uint8"
        },
        {
          "indexed": false,
          "internalType": "string",
          "name": "seatingInfo",
          "type": "string"
        }
      ],
      "name": "TicketMinted",
      "type": "event"
    },
    {
      "anonymous": false,
      "inputs": [
        {
          "indexed": true,
          "internalType": "address",
          "name": "from",
          "type": "address"
        },
        {
          "indexed": true,
          "internalType": "address",
          "name": "to",
          "type": "address"
        },
        {
          "indexed": true,
          "internalType": "uint256",
          "name": "tokenId",
          "type": "uint256"
        }
      ],
      "name": "Transfer",
      "type": "event"
    },
    {
      "inputs": [],
      "name": "MAX_BATCH_SIZE",
      "outputs": [
        {
          "internalType": "uint256",
          "name": "",
          "type": "uint256"
        }
      ],
      "stateMutability": "view",
      "type": "function"
    },
    {
      "inputs": [
        {
          "internalType": "address",
          "name": "to",
          "type": "address"
        },
        {
          "internalType": "uint256",
          "name": "tokenId",
          "type": "uint256"
        }
      ],
      "name": "approve",
      "outputs": [],
      "stateMutability": "nonpayable",
      "type": "function"
    },
    {
      "inputs": [
        {
          "internalType": "address",
          "name": "owner",
          "type": "address"
        }
      ],
      "name": "balanceOf",
      "outputs": [
        {
          "internalType": "uint256",
          "name": "",
          "type": "uint256"
        }
      ],
      "stateMutability": "view",
      "type": "function"
    },
    {
      "inputs": [
        {
          "internalType": "string",
          "name": "eventName",
          "type": "string"
        },
        {
          "internalType": "uint64",
          "name": "eventDate",
          "type": "uint64"
        },
        {
          "internalType": "enum TicketNFT.EventType",
          "name": "eventType",
          "type": "uint8"
        },
        {
          "internalType": "string[]",
          "name": "seatingInfoList",
          "type": "string[]"
        }
      ],
      "name": "batchMintTickets",
      "outputs": [
        {
          "internalType": "uint256[]",
          "name": "",
          "type": "uint256[]"
        }
      ],
      "stateMutability": "payable",
      "type": "function"
    },
    {
      "inputs": [
        {
          "internalType": "uint256",
          "name": "tokenId",
          "type": "uint256"
        }
      ],
      "name": "getApproved",
      "outputs": [
        {
          "internalType": "address",
          "name": "",
          "type": "address"
        }
      ],
      "stateMutability": "view",
      "type": "function"
    },
    {
      "inputs": [
        {
          "internalType": "uint256",
          "name": "tokenId",
          "type": "uint256"
        }
      ],
      "name": "getTicketDetails",
      "outputs": [
        {
          "internalType": "string",
          "name": "",
          "type": "string"
        },
        {
          "internalType": "uint64",
          "name": "",
          "type": "uint64"
        },
        {
          "internalType": "enum TicketNFT.EventType",
          "name": "",
          "type": "uint8"
        },
        {
          "internalType": "string",
          "name": "",
          "type": "string"
        }
      ],
      "stateMutability": "view",
      "type": "function"
    },
    {
      "inputs": [
        {
          "internalType": "address",
          "name": "owner",
          "type": "address"
        },
        {
          "internalType": "address",
          "name": "operator",
          "type": "address"
        }
      ],
      "name": "isApprovedForAll",
      "outputs": [
        {
          "internalType": "bool",
          "name": "",
          "type": "bool"
        }
      ],
      "stateMutability": "view",
      "type": "function"
    },
    {
      "inputs": [],
      "name": "mintFee",
      "outputs": [
        {
          "internalType": "uint256",
          "name": "",
          "type": "uint256"
        }
      ],
      "stateMutability": "view",
      "type": "function"
    },
    {
      "inputs": [
        {
          "internalType": "string",
          "name": "eventName",
          "type": "string"
        },
        {
          "internalType": "uint64",
          "name": "eventDate",
          "type": "uint64"
        },
        {
          "internalType": "enum TicketNFT.EventType",
          "name": "eventType",
          "type": "uint8"
        },
        {
          "internalType": "string",
          "name": "seatingInfo",
          "type": "string"
        }
      ],
      "name": "mintTicket",
      "outputs": [
        {
          "internalType": "uint256",
          "name": "",
          "type": "uint256"
        }
      ],
      "stateMutability": "payable",
      "type": "function"
    },
    {
      "inputs": [],
      "name": "name",
      "outputs": [
        {
          "internalType": "string",
          "name": "",
          "type": "string"
        }
      ],
      "stateMutability": "view",
      "type": "function"
    },
    {
      "inputs": [],
      "name": "owner",
      "outputs": [
        {
          "internalType": "address",
          "name": "",
          "type": "address"
        }
      ],
      "stateMutability": "view",
      "type": "function"
    },
    {
      "inputs": [
        {
          "internalType": "uint256",
          "name": "tokenId",
          "type": "uint256"
        }
      ],
      "name": "ownerOf",
      "outputs": [
        {
          "internalType": "address",
          "name": "",
          "type": "address"
        }
      ],
      "stateMutability": "view",
      "type": "function"
    },
    {
      "inputs": [],
      "name": "renounceOwnership",
      "outputs": [],
      "stateMutability": "nonpayable",
      "type": "function"
    },
    {
      "inputs": [
        {
          "internalType": "address",
          "name": "from",
          "type": "address"
        },
        {
          "internalType": "address",
          "name": "to",
          "type": "address"
        },
        {
          "internalType": "uint256",
          "name": "tokenId",
          "type": "uint256"
        }
      ],
      "name": "safeTransferFrom",
      "outputs": [],
      "stateMutability": "nonpayable",
      "type": "function"
    },
    {
      "inputs": [
        {
          "internalType": "address",
          "name": "from",
          "type": "address"
        },
        {
          "internalType": "address",
          "name": "to",
          "type": "address"
        },
        {
          "internalType": "uint256",
          "name": "tokenId",
          "type": "uint256"
        },
        {
          "internalType": "bytes",
          "name": "data",
          "type": "bytes"
        }
      ],
      "name": "safeTransferFrom",
      "outputs": [],
      "stateMutability": "nonpayable",
      "type": "function"
    },
    {
      "inputs": [
        {
          "internalType": "address",
          "name": "operator",
          "type": "address"
        },
        {
          "internalType": "bool",
          "name": "approved",
          "type": "bool"
        }
      ],
      "name": "setApprovalForAll",
      "outputs": [],
      "stateMutability": "nonpayable",
      "type": "function"
    },
    {
      "inputs": [
        {
          "internalType": "uint256",
          "name": "newFee",
          "type": "uint256"
        }
      ],
      "name": "setMintFee",
      "outputs": [],
      "stateMutability": "nonpayable",
      "type": "function"
    },
    {
      "inputs": [
        {
          "internalType": "bytes4",
          "name": "interfaceId",
          "type": "bytes4"
        }
      ],
      "name": "supportsInterface",
      "outputs": [
        {
          "internalType": "bool",
          "name": "",
          "type": "bool"
        }
      ],
      "stateMutability": "view",
      "type": "function"
    },
    {
      "inputs": [],
      "name": "symbol",
      "outputs": [
        {
          "internalType": "string",
          "name": "",
          "type": "string"
        }
      ],
      "stateMutability": "view",
      "type": "function"
    },
    {
      "inputs": [
        {
          "internalType": "uint256",
          "name": "tokenId",
          "type": "uint256"
        }
      ],
      "name": "tokenURI",
      "outputs": [
        {
          "internalType": "string",
          "name": "",
          "type": "string"
        }
      ],
      "stateMutability": "view",
      "type": "function"
    },
    {
      "inputs": [
        {
          "internalType": "address",
          "name": "from",
          "type": "address"
        },
        {
          "internalType": "address",
          "name": "to",
          "type": "address"
        },
        {
          "internalType": "uint256",
          "name": "tokenId",
          "type": "uint256"
        }
      ],
      "name": "transferFrom",
      "outputs": [],
      "stateMutability": "nonpayable",
      "type": "function"
    },
    {
      "inputs": [
        {
          "internalType": "address",
          "name": "newOwner",
          "type": "address"
        }
      ],
      "name": "transferOwnership",
      "outputs": [],
      "stateMutability": "nonpayable",
      "type": "function"
    },
    {
      "inputs": [],
      "name": "withdrawFees",
      "outputs": [],
      "stateMutability": "nonpayable",
      "type": "function"
    }
  ],
  "bytecode": "0x608060405266038d7ea4c68000600a553480156200001c57600080fd5b506040518060400160405280600981526020017f5469636b65744e465400000000000000000000000000000000000000000000008152506040518060400160405280600481526020017f544e46540000000000000000000000000000000000000000000000000000000081525081600090816200009a919062000425565b508060019081620000ac919062000425565b5050506001600681905550620000d7620000cb620000dd60201b60201c565b620000e560201b60201c565b6200050c565b600033905090565b6000600760009054906101000a900473ffffffffffffffffffffffffffffffffffffffff16905081600760006101000a81548173ffffffffffffffffffffffffffffffffffffffff021916908373ffffffffffffffffffffffffffffffffffffffff1602179055508173ffffffffffffffffffffffffffffffffffffffff168173ffffffffffffffffffffffffffffffffffffffff167f8be0079c531659141344cd1fd0a4f28419497f9722a3daafe3b4186f6b6457e060405160405180910390a35050565b600081519050919050565b7f4e487b7100000000000000000000000000000000000000000000000000000000600052604160045260246000fd5b7f4e487b7100000000000000000000000000000000000000000000000000000000600052602260045260246000fd5b600060028204905060018216806200022d57607f821691505b602082108103620002435762000242620001e5565b5b50919050565b60008190508160005260206000209050919050565b60006020601f8301049050919050565b600082821b905092915050565b600060088302620002ad7fffffffffffffffffffffffffffffffffffffffffffffffffffffffffffffffff826200026e565b620002b986836200026e565b95508019841693508086168417925050509392505050565b6000819050919050565b6000819050919050565b60006200030662000300620002fa84620002d1565b620002db565b620002d1565b9050919050565b6000819050919050565b6200032283620002e5565b6200033a62000331826200030d565b8484546200027b565b825550505050565b600090565b6200035162000342565b6200035e81848462000317565b505050565b5b8181101562000386576200037a60008262000347565b60018101905062000364565b5050565b601f821115620003d5576200039f8162000249565b620003aa846200025e565b81016020851015620003ba578190505b620003d2620003c9856200025e565b83018262000363565b50505b505050565b600082821c905092915050565b6000620003fa60001984600802620003da565b1980831691505092915050565b6000620004158383620003e7565b9150826002028217905092915050565b6200043082620001ab565b67ffffffffffffffff8111156200044c576200044b620001b6565b5b62000458825462000214565b620004658282856200038a565b600060209050601f8311600181146200049d576000841562000488578287015190505b62000494858262000407565b86555062000504565b601f198416620004ad8662000249565b60005b82811015620004d757848901518255600182019150602085019450602081019050620004b0565b86831015620004f75784890151620004f3601f891682620003e7565b8355505b6001600288020188555050505b505050505050565b613a82806200051c6000396000f3fe6080604052600436106101405760003560e01c806370a08231116100b6578063bf7602de1161006f578063bf7602de14610450578063c87b56dd14610480578063cfdbf254146104bd578063e985e9c5146104e8578063eddd0d9c14610525578063f2fde38b1461054e57610140565b806370a0823114610354578063715018a6146103915780638da5cb5b146103a857806395d89b41146103d3578063a22cb465146103fe578063b88d4fde1461042757610140565b806323b872dd1161010857806323b872dd1461023e57806324c141601461026757806342842e0e146102a7578063476343ee146102d05780636352211e146102e75780636f7c76261461032457610140565b806301ffc9a71461014557806306fdde0314610182578063081812fc146101ad578063095ea7b3146101ea57806313966db514610213575b600080fd5b34801561015157600080fd5b5061016c600480360381019061016791906122a0565b610577565b60405161017991906122e8565b60405180910390f35b34801561018e57600080fd5b50610197610659565b6040516101a49190612393565b60405180910390f35b3480156101b957600080fd5b506101d460048036038101906101cf91906123eb565b6106eb565b6040516101e19190612459565b60405180910390f35b3480156101f657600080fd5b50610211600480360381019061020c91906124a0565b610731565b005b34801561021f57600080fd5b50610228610848565b60405161023591906124ef565b60405180910390f35b34801561024a57600080fd5b506102656004803603810190610260919061250a565b61084e565b005b34801561027357600080fd5b5061028e600480360381019061028991906123eb565b6108ae565b60405161029e94939291906125f7565b60405180910390f35b3480156102b357600080fd5b506102ce60048036038101906102c9919061250a565b610a6f565b005b3480156102dc57600080fd5b506102e5610a8f565b005b3480156102f357600080fd5b5061030e600480360381019061030991906123eb565b610aed565b60405161031b9190612459565b60405180910390f35b61033e600480360381019061033991906127d0565b610b73565b60405161034b91906124ef565b60405180910390f35b34801561036057600080fd5b5061037b6004803603810190610376919061286f565b610be1565b60405161038891906124ef565b60405180910390f35b34801561039d57600080fd5b506103a6610c98565b005b3480156103b457600080fd5b506103bd610cac565b6040516103ca9190612459565b60405180910390f35b3480156103df57600080fd5b506103e8610cd6565b6040516103f59190612393565b60405180910390f35b34801561040a57600080fd5b50610425600480360381019061042091906128c8565b610d68565b005b34801561043357600080fd5b5061044e600480360381019061044991906129a9565b610d7e565b005b61046a60048036038101906104659190612b12565b610de0565b6040516104779190612c6f565b60405180910390f35b34801561048c57600080fd5b506104a760048036038101906104a291906123eb565b610fab565b6040516104b49190612393565b60405180910390f35b3480156104c957600080fd5b506104d2611013565b6040516104df91906124ef565b60405180910390f35b3480156104f457600080fd5b5061050f600480360381019061050a9190612c91565b611018565b60405161051c91906122e8565b60405180910390f35b34801561053157600080fd5b5061054c600480360381019061054791906123eb565b6110ac565b005b34801561055a57600080fd5b506105756004803603810190610570919061286f565b6110be565b005b60007f80ac58cd000000000000000000000000000000000000000000000000000000007bffffffffffffffffffffffffffffffffffffffffffffffffffffffff1916827bffffffffffffffffffffffffffffffffffffffffffffffffffffffff1916148061064257507f5b5e139f000000000000000000000000000000000000000000000000000000007bffffffffffffffffffffffffffffffffffffffffffffffffffffffff1916827bffffffffffffffffffffffffffffffffffffffffffffffffffffffff1916145b80610652575061065182611141565b5b9050919050565b60606000805461066890612d00565b80601f016020809104026020016040519081016040528092919081815260200182805461069490612d00565b80156106e15780601f106106b6576101008083540402835291602001916106e1565b820191906000526020600020905b8154815290600101906020018083116106c457829003601f168201915b5050505050905090565b60006106f6826111ab565b6004600083815260200190815260200160002060009054906101000a900473ffffffffffffffffffffffffffffffffffffffff169050919050565b600061073c82610aed565b90508073ffffffffffffffffffffffffffffffffffffffff168373ffffffffffffffffffffffffffffffffffffffff16036107ac576040517f08c379a00000000000000000000000000000000000000000000000000000000081526004016107a390612da3565b60405180910390fd5b8073ffffffffffffffffffffffffffffffffffffffff166107cb6111f6565b73ffffffffffffffffffffffffffffffffffffffff1614806107fa57506107f9816107f46111f6565b611018565b5b610839576040517f08c379a000000000000000000000000000000000000000000000000000000000815260040161083090612e35565b60405180910390fd5b61084383836111fe565b505050565b600a5481565b61085f6108596111f6565b826112b7565b61089e576040517f08c379a000000000000000000000000000000000000000000000000000000000815260040161089590612ec7565b60405180910390fd5b6108a983838361134c565b505050565b606060008060606108be85611645565b6108fd576040517f08c379a00000000000000000000000000000000000000000000000000000000081526004016108f490612f33565b60405180910390fd5b6000600960008781526020019081526020016000209050806001018160000160009054906101000a900467ffffffffffffffff168260020160009054906101000a900460ff168360030183805461095390612d00565b80601f016020809104026020016040519081016040528092919081815260200182805461097f90612d00565b80156109cc5780601f106109a1576101008083540402835291602001916109cc565b820191906000526020600020905b8154815290600101906020018083116109af57829003601f168201915b505050505093508080546109df90612d00565b80601f0160208091040260200160405190810160405280929190818152602001828054610a0b90612d00565b8015610a585780601f10610a2d57610100808354040283529160200191610a58565b820191906000526020600020905b815481529060010190602001808311610a3b57829003601f168201915b505050505090509450945094509450509193509193565b610a8a83838360405180602001604052806000815250610d7e565b505050565b610a97611686565b6000479050610aa4610cac565b73ffffffffffffffffffffffffffffffffffffffff166108fc829081150290604051600060405180830381858888f19350505050158015610ae9573d6000803e3d6000fd5b5050565b600080610af983611704565b9050600073ffffffffffffffffffffffffffffffffffffffff168173ffffffffffffffffffffffffffffffffffffffff1603610b6a576040517f08c379a0000000000000000000000000000000000000000000000000000000008152600401610b6190612f33565b60405180910390fd5b80915050919050565b6000610b7d611741565b600a54341015610bc2576040517f08c379a0000000000000000000000000000000000000000000000000000000008152600401610bb990612f9f565b60405180910390fd5b610bcf3386868686611790565b9050610bd96118f4565b949350505050565b60008073ffffffffffffffffffffffffffffffffffffffff168273ffffffffffffffffffffffffffffffffffffffff1603610c51576040517f08c379a0000000000000000000000000000000000000000000000000000000008152600401610c4890613031565b60405180910390fd5b600360008373ffffffffffffffffffffffffffffffffffffffff1673ffffffffffffffffffffffffffffffffffffffff168152602001908152602001600020549050919050565b610ca0611686565b610caa60006118fe565b565b6000600760009054906101000a900473ffffffffffffffffffffffffffffffffffffffff16905090565b606060018054610ce590612d00565b80601f0160208091040260200160405190810160405280929190818152602001828054610d1190612d00565b8015610d5e5780601f10610d3357610100808354040283529160200191610d5e565b820191906000526020600020905b815481529060010190602001808311610d4157829003601f168201915b5050505050905090565b610d7a610d736111f6565b83836119c4565b5050565b610d8f610d896111f6565b836112b7565b610dce576040517f08c379a0000000000000000000000000000000000000000000000000000000008152600401610dc590612ec7565b60405180910390fd5b610dda84848484611b30565b50505050565b6060610dea611741565b600082519050600081118015610e01575060648111155b610e40576040517f08c379a0000000000000000000000000000000000000000000000000000000008152600401610e379061309d565b60405180910390fd5b80600a54610e4e91906130ec565b341015610e90576040517f08c379a0000000000000000000000000000000000000000000000000000000008152600401610e8790612f9f565b60405180910390fd5b60008167ffffffffffffffff811115610eac57610eab612654565b5b604051908082528060200260200182016040528015610eda5781602001602082028036833780820191505090505b50905060005b82811015610f4157610f0f33898989898681518110610f0257610f0161312e565b5b6020026020010151611790565b828281518110610f2257610f2161312e565b5b6020026020010181815250508080610f399061315d565b915050610ee0565b503373ffffffffffffffffffffffffffffffffffffffff167f1613413351f44e8f823c323f8d7f7396306723eb409f95c8a1cda6c678d4290782898989604051610f8e94939291906131a5565b60405180910390a28092505050610fa36118f4565b949350505050565b6060610fb6826111ab565b6000610fc0611b8c565b90506000815111610fe0576040518060200160405280600081525061100b565b80610fea84611ba3565b604051602001610ffb929190613234565b6040516020818303038152906040525b915050919050565b606481565b6000600560008473ffffffffffffffffffffffffffffffffffffffff1673ffffffffffffffffffffffffffffffffffffffff16815260200190815260200160002060008373ffffffffffffffffffffffffffffffffffffffff1673ffffffffffffffffffffffffffffffffffffffff16815260200190815260200160002060009054906101000a900460ff16905092915050565b6110b4611686565b80600a8190555050565b6110c6611686565b600073ffffffffffffffffffffffffffffffffffffffff168173ffffffffffffffffffffffffffffffffffffffff1603611135576040517f08c379a000000000000000000000000000000000000000000000000000000000815260040161112c906132ca565b60405180910390fd5b61113e816118fe565b50565b60007f01ffc9a7000000000000000000000000000000000000000000000000000000007bffffffffffffffffffffffffffffffffffffffffffffffffffffffff1916827bffffffffffffffffffffffffffffffffffffffffffffffffffffffff1916149050919050565b6111b481611645565b6111f3576040517f08c379a00000000000000000000000000000000000000000000000000000000081526004016111ea90612f33565b60405180910390fd5b50565b600033905090565b816004600083815260200190815260200160002060006101000a81548173ffffffffffffffffffffffffffffffffffffffff021916908373ffffffffffffffffffffffffffffffffffffffff160217905550808273ffffffffffffffffffffffffffffffffffffffff1661127183610aed565b73ffffffffffffffffffffffffffffffffffffffff167f8c5be1e5ebec7d5bd14f71427d1e84f3dd0314c0f7b2291e5b200ac8c7c3b92560405160405180910390a45050565b6000806112c383610aed565b90508073ffffffffffffffffffffffffffffffffffffffff168473ffffffffffffffffffffffffffffffffffffffff16148061130557506113048185611018565b5b8061134357508373ffffffffffffffffffffffffffffffffffffffff1661132b846106eb565b73ffffffffffffffffffffffffffffffffffffffff16145b91505092915050565b8273ffffffffffffffffffffffffffffffffffffffff1661136c82610aed565b73ffffffffffffffffffffffffffffffffffffffff16146113c2576040517f08c379a00000000000000000000000000000000000000000000000000000000081526004016113b99061335c565b60405180910390fd5b600073ffffffffffffffffffffffffffffffffffffffff168273ffffffffffffffffffffffffffffffffffffffff1603611431576040517f08c379a0000000000000000000000000000000000000000000000000000000008152600401611428906133ee565b60405180910390fd5b61143e8383836001611c71565b8273ffffffffffffffffffffffffffffffffffffffff1661145e82610aed565b73ffffffffffffffffffffffffffffffffffffffff16146114b4576040517f08c379a00000000000000000000000000000000000000000000000000000000081526004016114ab9061335c565b60405180910390fd5b6004600082815260200190815260200160002060006101000a81549073ffffffffffffffffffffffffffffffffffffffff02191690556001600360008573ffffffffffffffffffffffffffffffffffffffff1673ffffffffffffffffffffffffffffffffffffffff168152602001908152602001600020600082825403925050819055506001600360008473ffffffffffffffffffffffffffffffffffffffff1673ffffffffffffffffffffffffffffffffffffffff16815260200190815260200160002060008282540192505081905550816002600083815260200190815260200160002060006101000a81548173ffffffffffffffffffffffffffffffffffffffff021916908373ffffffffffffffffffffffffffffffffffffffff160217905550808273ffffffffffffffffffffffffffffffffffffffff168473ffffffffffffffffffffffffffffffffffffffff167fddf252ad1be2c89b69c2b068fc378daa952ba7f163c4a11628f55a4df523b3ef60405160405180910390a46116408383836001611c77565b505050565b60008073ffffffffffffffffffffffffffffffffffffffff1661166783611704565b73ffffffffffffffffffffffffffffffffffffffff1614159050919050565b61168e6111f6565b73ffffffffffffffffffffffffffffffffffffffff166116ac610cac565b73ffffffffffffffffffffffffffffffffffffffff1614611702576040517f08c379a00000000000000000000000000000000000000000000000000000000081526004016116f99061345a565b60405180910390fd5b565b60006002600083815260200190815260200160002060009054906101000a900473ffffffffffffffffffffffffffffffffffffffff169050919050565b600260065403611786576040517f08c379a000000000000000000000000000000000000000000000000000000000815260040161177d906134c6565b60405180910390fd5b6002600681905550565b600061179c6008611c7d565b60006117a86008611c93565b90506117b48782611ca1565b60405180608001604052808667ffffffffffffffff1681526020018781526020018560048111156117e8576117e7612580565b5b8152602001848152506009600083815260200190815260200160002060008201518160000160006101000a81548167ffffffffffffffff021916908367ffffffffffffffff16021790555060208201518160010190816118489190613692565b5060408201518160020160006101000a81548160ff0219169083600481111561187457611873612580565b5b0217905550606082015181600301908161188e9190613692565b509050508673ffffffffffffffffffffffffffffffffffffffff16817f717e468639e1174ed919a31bebddfb26b1ee664120808c4ffcf6c667f058dc68888888886040516118df94939291906125f7565b60405180910390a38091505095945050505050565b6001600681905550565b6000600760009054906101000a900473ffffffffffffffffffffffffffffffffffffffff16905081600760006101000a81548173ffffffffffffffffffffffffffffffffffffffff021916908373ffffffffffffffffffffffffffffffffffffffff1602179055508173ffffffffffffffffffffffffffffffffffffffff168173ffffffffffffffffffffffffffffffffffffffff167f8be0079c531659141344cd1fd0a4f28419497f9722a3daafe3b4186f6b6457e060405160405180910390a35050565b8173ffffffffffffffffffffffffffffffffffffffff168373ffffffffffffffffffffffffffffffffffffffff1603611a32576040517f08c379a0000000000000000000000000000000000000000000000000000000008152600401611a29906137b0565b60405180910390fd5b80600560008573ffffffffffffffffffffffffffffffffffffffff1673ffffffffffffffffffffffffffffffffffffffff16815260200190815260200160002060008473ffffffffffffffffffffffffffffffffffffffff1673ffffffffffffffffffffffffffffffffffffffff16815260200190815260200160002060006101000a81548160ff0219169083151502179055508173ffffffffffffffffffffffffffffffffffffffff168373ffffffffffffffffffffffffffffffffffffffff167f17307eab39ab6107e8899845ad3d59bd9653f200f220920489ca2b5937696c3183604051611b2391906122e8565b60405180910390a3505050565b611b3b84848461134c565b611b4784848484611cbf565b611b86576040517f08c379a0000000000000000000000000000000000000000000000000000000008152600401611b7d90613842565b60405180910390fd5b50505050565b606060405180602001604052806000815250905090565b606060006001611bb284611e46565b01905060008167ffffffffffffffff811115611bd157611bd0612654565b5b6040519080825280601f01601f191660200182016040528015611c035781602001600182028036833780820191505090505b509050600082602001820190505b600115611c66578080600190039150507f3031323334353637383961626364656600000000000000000000000000000000600a86061a8153600a8581611c5a57611c59613862565b5b04945060008503611c11575b819350505050919050565b50505050565b50505050565b6001816000016000828254019250508190555050565b600081600001549050919050565b611cbb828260405180602001604052806000815250611f99565b5050565b6000611ce08473ffffffffffffffffffffffffffffffffffffffff16611ff4565b15611e39578373ffffffffffffffffffffffffffffffffffffffff1663150b7a02611d096111f6565b8786866040518563ffffffff1660e01b8152600401611d2b94939291906138e6565b6020604051808303816000875af1925050508015611d6757506040513d601f19601f82011682018060405250810190611d649190613947565b60015b611de9573d8060008114611d97576040519150601f19603f3d011682016040523d82523d6000602084013e611d9c565b606091505b506000815103611de1576040517f08c379a0000000000000000000000000000000000000000000000000000000008152600401611dd890613842565b60405180910390fd5b805181602001fd5b63150b7a0260e01b7bffffffffffffffffffffffffffffffffffffffffffffffffffffffff1916817bffffffffffffffffffffffffffffffffffffffffffffffffffffffff191614915050611e3e565b600190505b949350505050565b600080600090507a184f03e93ff9f4daa797ed6e38ed64bf6a1f0100000000000000008310611ea4577a184f03e93ff9f4daa797ed6e38ed64bf6a1f0100000000000000008381611e9a57611e99613862565b5b0492506040810190505b6d04ee2d6d415b85acef81000000008310611ee1576d04ee2d6d415b85acef81000000008381611ed757611ed6613862565b5b0492506020810190505b662386f26fc100008310611f1057662386f26fc100008381611f0657611f05613862565b5b0492506010810190505b6305f5e1008310611f39576305f5e1008381611f2f57611f2e613862565b5b0492506008810190505b6127108310611f5e576127108381611f5457611f53613862565b5b0492506004810190505b60648310611f815760648381611f7757611f76613862565b5b0492506002810190505b600a8310611f90576001810190505b80915050919050565b611fa38383612017565b611fb06000848484611cbf565b611fef576040517f08c379a0000000000000000000000000000000000000000000000000000000008152600401611fe690613842565b60405180910390fd5b505050565b6000808273ffffffffffffffffffffffffffffffffffffffff163b119050919050565b600073ffffffffffffffffffffffffffffffffffffffff168273ffffffffffffffffffffffffffffffffffffffff1603612086576040517f08c379a000000000000000000000000000000000000000000000000000000000815260040161207d906139c0565b60405180910390fd5b61208f81611645565b156120cf576040517f08c379a00000000000000000000000000000000000000000000000000000000081526004016120c690613a2c565b60405180910390fd5b6120dd600083836001611c71565b6120e681611645565b15612126576040517f08c379a000000000000000000000000000000000000000000000000000000000815260040161211d90613a2c565b60405180910390fd5b6001600360008473ffffffffffffffffffffffffffffffffffffffff1673ffffffffffffffffffffffffffffffffffffffff16815260200190815260200160002060008282540192505081905550816002600083815260200190815260200160002060006101000a81548173ffffffffffffffffffffffffffffffffffffffff021916908373ffffffffffffffffffffffffffffffffffffffff160217905550808273ffffffffffffffffffffffffffffffffffffffff16600073ffffffffffffffffffffffffffffffffffffffff167fddf252ad1be2c89b69c2b068fc378daa952ba7f163c4a11628f55a4df523b3ef60405160405180910390a4612230600083836001611c77565b5050565b6000604051905090565b600080fd5b600080fd5b60007fffffffff0000000000000000000000000000000000000000000000000000000082169050919050565b61227d81612248565b811461228857600080fd5b50565b60008135905061229a81612274565b92915050565b6000602082840312156122b6576122b561223e565b5b60006122c48482850161228b565b91505092915050565b60008115159050919050565b6122e2816122cd565b82525050565b60006020820190506122fd60008301846122d9565b92915050565b600081519050919050565b600082825260208201905092915050565b60005b8381101561233d578082015181840152602081019050612322565b60008484015250505050565b6000601f19601f8301169050919050565b600061236582612303565b61236f818561230e565b935061237f81856020860161231f565b61238881612349565b840191505092915050565b600060208201905081810360008301526123ad818461235a565b905092915050565b6000819050919050565b6123c8816123b5565b81146123d357600080fd5b50565b6000813590506123e5816123bf565b92915050565b6000602082840312156124015761240061223e565b5b600061240f848285016123d6565b91505092915050565b600073ffffffffffffffffffffffffffffffffffffffff82169050919050565b600061244382612418565b9050919050565b61245381612438565b82525050565b600060208201905061246e600083018461244a565b92915050565b61247d81612438565b811461248857600080fd5b50565b60008135905061249a81612474565b92915050565b600080604083850312156124b7576124b661223e565b5b60006124c58582860161248b565b92505060206124d6858286016123d6565b9150509250929050565b6124e9816123b5565b82525050565b600060208201905061250460008301846124e0565b92915050565b6000806000606084860312156125235761252261223e565b5b60006125318682870161248b565b93505060206125428682870161248b565b9250506040612553868287016123d6565b9150509250925092565b600067ffffffffffffffff82169050919050565b61257a8161255d565b82525050565b7f4e487b7100000000000000000000000000000000000000000000000000000000600052602160045260246000fd5b600581106125c0576125bf612580565b5b50565b60008190506125d1826125af565b919050565b60006125e1826125c3565b9050919050565b6125f1816125d6565b82525050565b60006080820190508181036000830152612611818761235a565b90506126206020830186612571565b61262d60408301856125e8565b818103606083015261263f818461235a565b905095945050505050565b600080fd5b600080fd5b7f4e487b7100000000000000000000000000000000000000000000000000000000600052604160045260246000fd5b61268c82612349565b810181811067ffffffffffffffff821117156126ab576126aa612654565b5b80604052505050565b60006126be612234565b90506126ca8282612683565b919050565b600067ffffffffffffffff8211156126ea576126e9612654565b5b6126f382612349565b9050602081019050919050565b82818337600083830152505050565b600061272261271d846126cf565b6126b4565b90508281526020810184848401111561273e5761273d61264f565b5b612749848285612700565b509392505050565b600082601f8301126127665761276561264a565b5b813561277684826020860161270f565b91505092915050565b6127888161255d565b811461279357600080fd5b50565b6000813590506127a58161277f565b92915050565b600581106127b857600080fd5b50565b6000813590506127ca816127ab565b92915050565b600080600080608085870312156127ea576127e961223e565b5b600085013567ffffffffffffffff81111561280857612807612243565b5b61281487828801612751565b945050602061282587828801612796565b9350506040612836878288016127bb565b925050606085013567ffffffffffffffff81111561285757612856612243565b5b61286387828801612751565b91505092959194509250565b6000602082840312156128855761288461223e565b5b60006128938482850161248b565b91505092915050565b6128a5816122cd565b81146128b057600080fd5b50565b6000813590506128c28161289c565b92915050565b600080604083850312156128df576128de61223e565b5b60006128ed8582860161248b565b92505060206128fe858286016128b3565b9150509250929050565b600067ffffffffffffffff82111561292357612922612654565b5b61292c82612349565b9050602081019050919050565b600061294c61294784612908565b6126b4565b9050828152602081018484840111156129685761296761264f565b5b612973848285612700565b509392505050565b600082601f8301126129905761298f61264a565b5b81356129a0848260208601612939565b91505092915050565b600080600080608085870312156129c3576129c261223e565b5b60006129d18782880161248b565b94505060206129e28782880161248b565b93505060406129f3878288016123d6565b925050606085013567ffffffffffffffff811115612a1457612a13612243565b5b612a208782880161297b565b91505092959194509250565b600067ffffffffffffffff821115612a4757612a46612654565b5b602082029050602081019050919050565b600080fd5b6000612a70612a6b84612a2c565b6126b4565b90508083825260208201905060208402830185811115612a9357612a92612a58565b5b835b81811015612ada57803567ffffffffffffffff811115612ab857612ab761264a565b5b808601612ac58982612751565b85526020850194505050602081019050612a95565b5050509392505050565b600082601f830112612af957612af861264a565b5b8135612b09848260208601612a5d565b91505092915050565b60008060008060808587031215612b2c57612b2b61223e565b5b600085013567ffffffffffffffff811115612b4a57612b49612243565b5b612b5687828801612751565b9450506020612b6787828801612796565b9350506040612b78878288016127bb565b925050606085013567ffffffffffffffff811115612b9957612b98612243565b5b612ba587828801612ae4565b91505092959194509250565b600081519050919050565b600082825260208201905092915050565b6000819050602082019050919050565b612be6816123b5565b82525050565b6000612bf88383612bdd565b60208301905092915050565b6000602082019050919050565b6000612c1c82612bb1565b612c268185612bbc565b9350612c3183612bcd565b8060005b83811015612c62578151612c498882612bec565b9750612c5483612c04565b925050600181019050612c35565b5085935050505092915050565b60006020820190508181036000830152612c898184612c11565b905092915050565b60008060408385031215612ca857612ca761223e565b5b6000612cb68582860161248b565b9250506020612cc78582860161248b565b9150509250929050565b7f4e487b7100000000000000000000000000000000000000000000000000000000600052602260045260246000fd5b60006002820490506001821680612d1857607f821691505b602082108103612d2b57612d2a612cd1565b5b50919050565b7f4552433732313a20617070726f76616c20746f2063757272656e74206f776e6560008201527f7200000000000000000000000000000000000000000000000000000000000000602082015250565b6000612d8d60218361230e565b9150612d9882612d31565b604082019050919050565b60006020820190508181036000830152612dbc81612d80565b9050919050565b7f4552433732313a20617070726f76652063616c6c6572206973206e6f7420746f60008201527f6b656e206f776e6572206f7220617070726f76656420666f7220616c6c000000602082015250565b6000612e1f603d8361230e565b9150612e2a82612dc3565b604082019050919050565b60006020820190508181036000830152612e4e81612e12565b9050919050565b7f4552433732313a2063616c6c6572206973206e6f7420746f6b656e206f776e6560008201527f72206f7220617070726f76656400000000000000000000000000000000000000602082015250565b6000612eb1602d8361230e565b9150612ebc82612e55565b604082019050919050565b60006020820190508181036000830152612ee081612ea4565b9050919050565b7f4552433732313a20696e76616c696420746f6b656e2049440000000000000000600082015250565b6000612f1d60188361230e565b9150612f2882612ee7565b602082019050919050565b60006020820190508181036000830152612f4c81612f10565b9050919050565b7f496e73756666696369656e74206d696e74206665650000000000000000000000600082015250565b6000612f8960158361230e565b9150612f9482612f53565b602082019050919050565b60006020820190508181036000830152612fb881612f7c565b9050919050565b7f4552433732313a2061646472657373207a65726f206973206e6f74206120766160008201527f6c6964206f776e65720000000000000000000000000000000000000000000000602082015250565b600061301b60298361230e565b915061302682612fbf565b604082019050919050565b6000602082019050818103600083015261304a8161300e565b9050919050565b7f496e76616c69642062617463682073697a650000000000000000000000000000600082015250565b600061308760128361230e565b915061309282613051565b602082019050919050565b600060208201905081810360008301526130b68161307a565b9050919050565b7f4e487b7100000000000000000000000000000000000000000000000000000000600052601160045260246000fd5b60006130f7826123b5565b9150613102836123b5565b9250828202613110816123b5565b91508282048414831517613127576131266130bd565b5b5092915050565b7f4e487b7100000000000000000000000000000000000000000000000000000000600052603260045260246000fd5b6000613168826123b5565b91507fffffffffffffffffffffffffffffffffffffffffffffffffffffffffffffffff820361319a576131996130bd565b5b600182019050919050565b600060808201905081810360008301526131bf8187612c11565b905081810360208301526131d3818661235a565b90506131e26040830185612571565b6131ef60608301846125e8565b95945050505050565b600081905092915050565b600061320e82612303565b61321881856131f8565b935061322881856020860161231f565b80840191505092915050565b60006132408285613203565b915061324c8284613203565b91508190509392505050565b7f4f776e61626c653a206e6577206f776e657220697320746865207a65726f206160008201527f6464726573730000000000000000000000000000000000000000000000000000602082015250565b60006132b460268361230e565b91506132bf82613258565b604082019050919050565b600060208201905081810360008301526132e3816132a7565b9050919050565b7f4552433732313a207472616e736665722066726f6d20696e636f72726563742060008201527f6f776e6572000000000000000000000000000000000000000000000000000000602082015250565b600061334660258361230e565b9150613351826132ea565b604082019050919050565b6000602082019050818103600083015261337581613339565b9050919050565b7f4552433732313a207472616e7366657220746f20746865207a65726f2061646460008201527f7265737300000000000000000000000000000000000000000000000000000000602082015250565b60006133d860248361230e565b91506133e38261337c565b604082019050919050565b60006020820190508181036000830152613407816133cb565b9050919050565b7f4f776e61626c653a2063616c6c6572206973206e6f7420746865206f776e6572600082015250565b600061344460208361230e565b915061344f8261340e565b602082019050919050565b6000602082019050818103600083015261347381613437565b9050919050565b7f5265656e7472616e637947756172643a207265656e7472616e742063616c6c00600082015250565b60006134b0601f8361230e565b91506134bb8261347a565b602082019050919050565b600060208201905081810360008301526134df816134a3565b9050919050565b60008190508160005260206000209050919050565b60006020601f8301049050919050565b600082821b905092915050565b6000600883026135487fffffffffffffffffffffffffffffffffffffffffffffffffffffffffffffffff8261350b565b613552868361350b565b95508019841693508086168417925050509392505050565b6000819050919050565b600061358f61358a613585846123b5565b61356a565b6123b5565b9050919050565b6000819050919050565b6135a983613574565b6135bd6135b582613596565b848454613518565b825550505050565b600090565b6135d26135c5565b6135dd8184846135a0565b505050565b5b81811015613601576135f66000826135ca565b6001810190506135e3565b5050565b601f82111561364657613617816134e6565b613620846134fb565b8101602085101561362f578190505b61364361363b856134fb565b8301826135e2565b50505b505050565b600082821c905092915050565b60006136696000198460080261364b565b1980831691505092915050565b60006136828383613658565b9150826002028217905092915050565b61369b82612303565b67ffffffffffffffff8111156136b4576136b3612654565b5b6136be8254612d00565b6136c9828285613605565b600060209050601f8311600181146136fc57600084156136ea578287015190505b6136f48582613676565b86555061375c565b601f19841661370a866134e6565b60005b828110156137325784890151825560018201915060208501945060208101905061370d565b8683101561374f578489015161374b601f891682613658565b8355505b6001600288020188555050505b505050505050565b7f4552433732313a20617070726f766520746f2063616c6c657200000000000000600082015250565b600061379a60198361230e565b91506137a582613764565b602082019050919050565b600060208201905081810360008301526137c98161378d565b9050919050565b7f4552433732313a207472616e7366657220746f206e6f6e20455243373231526560008201527f63656976657220696d706c656d656e7465720000000000000000000000000000602082015250565b600061382c60328361230e565b9150613837826137d0565b604082019050919050565b6000602082019050818103600083015261385b8161381f565b9050919050565b7f4e487b7100000000000000000000000000000000000000000000000000000000600052601260045260246000fd5b600081519050919050565b600082825260208201905092915050565b60006138b882613891565b6138c2818561389c565b93506138d281856020860161231f565b6138db81612349565b840191505092915050565b60006080820190506138fb600083018761244a565b613908602083018661244a565b61391560408301856124e0565b818103606083015261392781846138ad565b905095945050505050565b60008151905061394181612274565b92915050565b60006020828403121561395d5761395c61223e565b5b600061396b84828501613932565b91505092915050565b7f4552433732313a206d696e7420746f20746865207a65726f2061646472657373600082015250565b60006139aa60208361230e565b91506139b582613974565b602082019050919050565b600060208201905081810360008301526139d98161399d565b9050919050565b7f4552433732313a20746f6b656e20616c7265616479206d696e74656400000000600082015250565b6000613a16601c8361230e565b9150613a21826139e0565b602082019050919050565b60006020820190508181036000830152613a4581613a09565b905091905056fea26469706673582212202a0ff9724fc0342911ccf1f8243ef44d8c26d1708c2c91b8b4922995bd98218764736f6c63430008130033",
  "linkReferences": {},
  "deployedLinkReferences": {}
}