{
  "_format": "hh-sol-artifact-1",
  "contractName": "TicketNFT",
  "sourceName": "contracts/TicketNFT.sol",
  "abi": [
    {
      "inputs": [],
      "stateMutability": "nonpayable",
      "type": "constructor"
    },
    {
      "anonymous": false,
      "inputs": [
        {
          "indexed": true,
          "internalType": "address",
          "name": "owner",
          "type": "address"
        },
        {
          "indexed": true,
          "internalType": "address",
          "name": "approved",
          "type": "address"
        },
        {
          "indexed": true,
          "internalType": "uint256",
          "name": "tokenId",
          "type": "uint256"
        }
      ],
      "name": "Approval",
      "type": "event"
    },
    {
      "anonymous": false,
      "inputs": [
        {
          "indexed": true,
          "internalType": "address",
          "name": "owner",
          "type": "address"
        },
        {
          "indexed": true,
          "internalType": "address",
          "name": "operator",
          "type": "address"
        },
        {
          "indexed": false,
          "internalType": "bool",
          "name": "approved",
          "type": "bool"
        }
      ],
      "name": "ApprovalForAll",
      "type": "event"
    },
    {
      "anonymous": false,
      "inputs": [
        {
          "indexed": false,
          "internalType": "uint256",
          "name": "_fromTokenId",
          "type": "uint256"
        },
        {
          "indexed": false,
          "internalType": "uint256",
          "name": "_toTokenId",
          "type": "uint256"
        }
      ],
      "name": "BatchMetadataUpdate",
      "type": "event"
    },
    {
      "anonymous": false,
      "inputs": [
        {
          "indexed": false,
          "internalType": "uint256",
          "name": "_tokenId",
          "type": "uint256"
        }
      ],
      "name": "MetadataUpdate",
      "type": "event"
    },
    {
      "anonymous": false,
      "inputs": [
        {
          "indexed": true,
          "internalType": "address",
          "name": "previousOwner",
          "type": "address"
        },
        {
          "indexed": true,
          "internalType": "address",
          "name": "newOwner",
          "type": "address"
        }
      ],
      "name": "OwnershipTransferred",
      "type": "event"
    },
    {
      "anonymous": false,
      "inputs": [
        {
          "indexed": true,
          "internalType": "address",
          "name": "from",
          "type": "address"
        },
        {
          "indexed": true,
          "internalType": "address",
          "name": "to",
          "type": "address"
        },
        {
          "indexed": true,
          "internalType": "uint256",
          "name": "tokenId",
          "type": "uint256"
        }
      ],
      "name": "Transfer",
      "type": "event"
    },
    {
      "inputs": [
        {
          "internalType": "address",
          "name": "to",
          "type": "address"
        },
        {
          "internalType": "uint256",
          "name": "tokenId",
          "type": "uint256"
        }
      ],
      "name": "approve",
      "outputs": [],
      "stateMutability": "nonpayable",
      "type": "function"
    },
    {
      "inputs": [
        {
          "internalType": "address",
          "name": "owner",
          "type": "address"
        }
      ],
      "name": "balanceOf",
      "outputs": [
        {
          "internalType": "uint256",
          "name": "",
          "type": "uint256"
        }
      ],
      "stateMutability": "view",
      "type": "function"
    },
    {
      "inputs": [
        {
          "internalType": "uint256",
          "name": "tokenId",
          "type": "uint256"
        }
      ],
      "name": "burn",
      "outputs": [],
      "stateMutability": "nonpayable",
      "type": "function"
    },
    {
      "inputs": [
        {
          "internalType": "uint256",
          "name": "tokenId",
          "type": "uint256"
        }
      ],
      "name": "getApproved",
      "outputs": [
        {
          "internalType": "address",
          "name": "",
          "type": "address"
        }
      ],
      "stateMutability": "view",
      "type": "function"
    },
    {
      "inputs": [
        {
          "internalType": "uint256",
          "name": "tokenId",
          "type": "uint256"
        }
      ],
      "name": "getTicketDetails",
      "outputs": [
        {
          "internalType": "string",
          "name": "",
          "type": "string"
        },
        {
          "internalType": "uint256",
          "name": "",
          "type": "uint256"
        },
        {
          "internalType": "string",
          "name": "",
          "type": "string"
        }
      ],
      "stateMutability": "view",
      "type": "function"
    },
    {
      "inputs": [
        {
          "internalType": "address",
          "name": "owner",
          "type": "address"
        },
        {
          "internalType": "address",
          "name": "operator",
          "type": "address"
        }
      ],
      "name": "isApprovedForAll",
      "outputs": [
        {
          "internalType": "bool",
          "name": "",
          "type": "bool"
        }
      ],
      "stateMutability": "view",
      "type": "function"
    },
    {
      "inputs": [
        {
          "internalType": "address",
          "name": "recipient",
          "type": "address"
        },
        {
          "internalType": "string",
          "name": "eventName",
          "type": "string"
        },
        {
          "internalType": "uint256",
          "name": "eventDate",
          "type": "uint256"
        },
        {
          "internalType": "string",
          "name": "seat",
          "type": "string"
        },
        {
          "internalType": "string",
          "name": "tokenURI",
          "type": "string"
        }
      ],
      "name": "mintTicket",
      "outputs": [
        {
          "internalType": "uint256",
          "name": "",
          "type": "uint256"
        }
      ],
      "stateMutability": "nonpayable",
      "type": "function"
    },
    {
      "inputs": [],
      "name": "name",
      "outputs": [
        {
          "internalType": "string",
          "name": "",
          "type": "string"
        }
      ],
      "stateMutability": "view",
      "type": "function"
    },
    {
      "inputs": [],
      "name": "owner",
      "outputs": [
        {
          "internalType": "address",
          "name": "",
          "type": "address"
        }
      ],
      "stateMutability": "view",
      "type": "function"
    },
    {
      "inputs": [
        {
          "internalType": "uint256",
          "name": "tokenId",
          "type": "uint256"
        }
      ],
      "name": "ownerOf",
      "outputs": [
        {
          "internalType": "address",
          "name": "",
          "type": "address"
        }
      ],
      "stateMutability": "view",
      "type": "function"
    },
    {
      "inputs": [],
      "name": "renounceOwnership",
      "outputs": [],
      "stateMutability": "nonpayable",
      "type": "function"
    },
    {
      "inputs": [
        {
          "internalType": "address",
          "name": "from",
          "type": "address"
        },
        {
          "internalType": "address",
          "name": "to",
          "type": "address"
        },
        {
          "internalType": "uint256",
          "name": "tokenId",
          "type": "uint256"
        }
      ],
      "name": "safeTransferFrom",
      "outputs": [],
      "stateMutability": "nonpayable",
      "type": "function"
    },
    {
      "inputs": [
        {
          "internalType": "address",
          "name": "from",
          "type": "address"
        },
        {
          "internalType": "address",
          "name": "to",
          "type": "address"
        },
        {
          "internalType": "uint256",
          "name": "tokenId",
          "type": "uint256"
        },
        {
          "internalType": "bytes",
          "name": "data",
          "type": "bytes"
        }
      ],
      "name": "safeTransferFrom",
      "outputs": [],
      "stateMutability": "nonpayable",
      "type": "function"
    },
    {
      "inputs": [
        {
          "internalType": "address",
          "name": "operator",
          "type": "address"
        },
        {
          "internalType": "bool",
          "name": "approved",
          "type": "bool"
        }
      ],
      "name": "setApprovalForAll",
      "outputs": [],
      "stateMutability": "nonpayable",
      "type": "function"
    },
    {
      "inputs": [
        {
          "internalType": "bytes4",
          "name": "interfaceId",
          "type": "bytes4"
        }
      ],
      "name": "supportsInterface",
      "outputs": [
        {
          "internalType": "bool",
          "name": "",
          "type": "bool"
        }
      ],
      "stateMutability": "view",
      "type": "function"
    },
    {
      "inputs": [],
      "name": "symbol",
      "outputs": [
        {
          "internalType": "string",
          "name": "",
          "type": "string"
        }
      ],
      "stateMutability": "view",
      "type": "function"
    },
    {
      "inputs": [
        {
          "internalType": "uint256",
          "name": "tokenId",
          "type": "uint256"
        }
      ],
      "name": "tokenURI",
      "outputs": [
        {
          "internalType": "string",
          "name": "",
          "type": "string"
        }
      ],
      "stateMutability": "view",
      "type": "function"
    },
    {
      "inputs": [
        {
          "internalType": "address",
          "name": "from",
          "type": "address"
        },
        {
          "internalType": "address",
          "name": "to",
          "type": "address"
        },
        {
          "internalType": "uint256",
          "name": "tokenId",
          "type": "uint256"
        }
      ],
      "name": "transferFrom",
      "outputs": [],
      "stateMutability": "nonpayable",
      "type": "function"
    },
    {
      "inputs": [
        {
          "internalType": "address",
          "name": "newOwner",
          "type": "address"
        }
      ],
      "name": "transferOwnership",
      "outputs": [],
      "stateMutability": "nonpayable",
      "type": "function"
    }
  ],
  "bytecode": "0x60806040523480156200001157600080fd5b506040518060400160405280600981526020017f5469636b65744e465400000000000000000000000000000000000000000000008152506040518060400160405280600481526020017f544e46540000000000000000000000000000000000000000000000000000000081525081600090816200008f919062000412565b508060019081620000a1919062000412565b505050620000c4620000b8620000ca60201b60201c565b620000d260201b60201c565b620004f9565b600033905090565b6000600760009054906101000a900473ffffffffffffffffffffffffffffffffffffffff16905081600760006101000a81548173ffffffffffffffffffffffffffffffffffffffff021916908373ffffffffffffffffffffffffffffffffffffffff1602179055508173ffffffffffffffffffffffffffffffffffffffff168173ffffffffffffffffffffffffffffffffffffffff167f8be0079c531659141344cd1fd0a4f28419497f9722a3daafe3b4186f6b6457e060405160405180910390a35050565b600081519050919050565b7f4e487b7100000000000000000000000000000000000000000000000000000000600052604160045260246000fd5b7f4e487b7100000000000000000000000000000000000000000000000000000000600052602260045260246000fd5b600060028204905060018216806200021a57607f821691505b60208210810362000230576200022f620001d2565b5b50919050565b60008190508160005260206000209050919050565b60006020601f8301049050919050565b600082821b905092915050565b6000600883026200029a7fffffffffffffffffffffffffffffffffffffffffffffffffffffffffffffffff826200025b565b620002a686836200025b565b95508019841693508086168417925050509392505050565b6000819050919050565b6000819050919050565b6000620002f3620002ed620002e784620002be565b620002c8565b620002be565b9050919050565b6000819050919050565b6200030f83620002d2565b620003276200031e82620002fa565b84845462000268565b825550505050565b600090565b6200033e6200032f565b6200034b81848462000304565b505050565b5b8181101562000373576200036760008262000334565b60018101905062000351565b5050565b601f821115620003c2576200038c8162000236565b62000397846200024b565b81016020851015620003a7578190505b620003bf620003b6856200024b565b83018262000350565b50505b505050565b600082821c905092915050565b6000620003e760001984600802620003c7565b1980831691505092915050565b6000620004028383620003d4565b9150826002028217905092915050565b6200041d8262000198565b67ffffffffffffffff811115620004395762000438620001a3565b5b62000445825462000201565b6200045282828562000377565b600060209050601f8311600181146200048a576000841562000475578287015190505b620004818582620003f4565b865550620004f1565b601f1984166200049a8662000236565b60005b82811015620004c4578489015182556001820191506020850194506020810190506200049d565b86831015620004e45784890151620004e0601f891682620003d4565b8355505b6001600288020188555050505b505050505050565b61354d80620005096000396000f3fe608060405234801561001057600080fd5b50600436106101215760003560e01c806370a08231116100ad578063a22cb46511610071578063a22cb4651461031c578063b88d4fde14610338578063c87b56dd14610354578063e985e9c514610384578063f2fde38b146103b457610121565b806370a0823114610276578063715018a6146102a657806372f25a70146102b05780638da5cb5b146102e057806395d89b41146102fe57610121565b806323b872dd116100f457806323b872dd146101c057806324c14160146101dc57806342842e0e1461020e57806342966c681461022a5780636352211e1461024657610121565b806301ffc9a71461012657806306fdde0314610156578063081812fc14610174578063095ea7b3146101a4575b600080fd5b610140600480360381019061013b9190612162565b6103d0565b60405161014d91906121aa565b60405180910390f35b61015e610431565b60405161016b9190612255565b60405180910390f35b61018e600480360381019061018991906122ad565b6104c3565b60405161019b919061231b565b60405180910390f35b6101be60048036038101906101b99190612362565b610509565b005b6101da60048036038101906101d591906123a2565b610620565b005b6101f660048036038101906101f191906122ad565b610680565b60405161020593929190612404565b60405180910390f35b610228600480360381019061022391906123a2565b61083b565b005b610244600480360381019061023f91906122ad565b61085b565b005b610260600480360381019061025b91906122ad565b6108f5565b60405161026d919061231b565b60405180910390f35b610290600480360381019061028b9190612449565b61097b565b60405161029d9190612476565b60405180910390f35b6102ae610a32565b005b6102ca60048036038101906102c591906125c6565b610a46565b6040516102d79190612476565b60405180910390f35b6102e8610af0565b6040516102f5919061231b565b60405180910390f35b610306610b1a565b6040516103139190612255565b60405180910390f35b610336600480360381019061033191906126c1565b610bac565b005b610352600480360381019061034d91906127a2565b610bc2565b005b61036e600480360381019061036991906122ad565b610c24565b60405161037b9190612255565b60405180910390f35b61039e60048036038101906103999190612825565b610d36565b6040516103ab91906121aa565b60405180910390f35b6103ce60048036038101906103c99190612449565b610dca565b005b6000634906490660e01b7bffffffffffffffffffffffffffffffffffffffffffffffffffffffff1916827bffffffffffffffffffffffffffffffffffffffffffffffffffffffff1916148061042a575061042982610e4d565b5b9050919050565b60606000805461044090612894565b80601f016020809104026020016040519081016040528092919081815260200182805461046c90612894565b80156104b95780601f1061048e576101008083540402835291602001916104b9565b820191906000526020600020905b81548152906001019060200180831161049c57829003601f168201915b5050505050905090565b60006104ce82610f2f565b6004600083815260200190815260200160002060009054906101000a900473ffffffffffffffffffffffffffffffffffffffff169050919050565b6000610514826108f5565b90508073ffffffffffffffffffffffffffffffffffffffff168373ffffffffffffffffffffffffffffffffffffffff1603610584576040517f08c379a000000000000000000000000000000000000000000000000000000000815260040161057b90612937565b60405180910390fd5b8073ffffffffffffffffffffffffffffffffffffffff166105a3610f7a565b73ffffffffffffffffffffffffffffffffffffffff1614806105d257506105d1816105cc610f7a565b610d36565b5b610611576040517f08c379a0000000000000000000000000000000000000000000000000000000008152600401610608906129c9565b60405180910390fd5b61061b8383610f82565b505050565b61063161062b610f7a565b8261103b565b610670576040517f08c379a000000000000000000000000000000000000000000000000000000000815260040161066790612a5b565b60405180910390fd5b61067b8383836110d0565b505050565b60606000606061068f846113c9565b6106ce576040517f08c379a00000000000000000000000000000000000000000000000000000000081526004016106c590612aed565b60405180910390fd5b6000600960008681526020019081526020016000206040518060600160405290816000820180546106fe90612894565b80601f016020809104026020016040519081016040528092919081815260200182805461072a90612894565b80156107775780601f1061074c57610100808354040283529160200191610777565b820191906000526020600020905b81548152906001019060200180831161075a57829003601f168201915b505050505081526020016001820154815260200160028201805461079a90612894565b80601f01602080910402602001604051908101604052809291908181526020018280546107c690612894565b80156108135780601f106107e857610100808354040283529160200191610813565b820191906000526020600020905b8154815290600101906020018083116107f657829003601f168201915b5050505050815250509050806000015181602001518260400151935093509350509193909250565b61085683838360405180602001604052806000815250610bc2565b505050565b61086c610866610f7a565b8261103b565b6108ab576040517f08c379a00000000000000000000000000000000000000000000000000000000081526004016108a290612b7f565b60405180910390fd5b6108b48161140a565b60096000828152602001908152602001600020600080820160006108d89190612099565b60018201600090556002820160006108f09190612099565b505050565b6000806109018361145d565b9050600073ffffffffffffffffffffffffffffffffffffffff168173ffffffffffffffffffffffffffffffffffffffff1603610972576040517f08c379a000000000000000000000000000000000000000000000000000000000815260040161096990612beb565b60405180910390fd5b80915050919050565b60008073ffffffffffffffffffffffffffffffffffffffff168273ffffffffffffffffffffffffffffffffffffffff16036109eb576040517f08c379a00000000000000000000000000000000000000000000000000000000081526004016109e290612c7d565b60405180910390fd5b600360008373ffffffffffffffffffffffffffffffffffffffff1673ffffffffffffffffffffffffffffffffffffffff168152602001908152602001600020549050919050565b610a3a61149a565b610a446000611518565b565b6000610a5061149a565b610a5a60086115de565b6000610a6660086115f4565b9050610a728782611602565b610a7c818461181f565b604051806060016040528087815260200186815260200185815250600960008381526020019081526020016000206000820151816000019081610abf9190612e49565b50602082015181600101556040820151816002019081610adf9190612e49565b509050508091505095945050505050565b6000600760009054906101000a900473ffffffffffffffffffffffffffffffffffffffff16905090565b606060018054610b2990612894565b80601f0160208091040260200160405190810160405280929190818152602001828054610b5590612894565b8015610ba25780601f10610b7757610100808354040283529160200191610ba2565b820191906000526020600020905b815481529060010190602001808311610b8557829003601f168201915b5050505050905090565b610bbe610bb7610f7a565b83836118c3565b5050565b610bd3610bcd610f7a565b8361103b565b610c12576040517f08c379a0000000000000000000000000000000000000000000000000000000008152600401610c0990612a5b565b60405180910390fd5b610c1e84848484611a2f565b50505050565b6060610c2f82610f2f565b6000600660008481526020019081526020016000208054610c4f90612894565b80601f0160208091040260200160405190810160405280929190818152602001828054610c7b90612894565b8015610cc85780601f10610c9d57610100808354040283529160200191610cc8565b820191906000526020600020905b815481529060010190602001808311610cab57829003601f168201915b505050505090506000610cd9611a8b565b90506000815103610cee578192505050610d31565b600082511115610d23578082604051602001610d0b929190612f57565b60405160208183030381529060405292505050610d31565b610d2c84611aa2565b925050505b919050565b6000600560008473ffffffffffffffffffffffffffffffffffffffff1673ffffffffffffffffffffffffffffffffffffffff16815260200190815260200160002060008373ffffffffffffffffffffffffffffffffffffffff1673ffffffffffffffffffffffffffffffffffffffff16815260200190815260200160002060009054906101000a900460ff16905092915050565b610dd261149a565b600073ffffffffffffffffffffffffffffffffffffffff168173ffffffffffffffffffffffffffffffffffffffff1603610e41576040517f08c379a0000000000000000000000000000000000000000000000000000000008152600401610e3890612fed565b60405180910390fd5b610e4a81611518565b50565b60007f80ac58cd000000000000000000000000000000000000000000000000000000007bffffffffffffffffffffffffffffffffffffffffffffffffffffffff1916827bffffffffffffffffffffffffffffffffffffffffffffffffffffffff19161480610f1857507f5b5e139f000000000000000000000000000000000000000000000000000000007bffffffffffffffffffffffffffffffffffffffffffffffffffffffff1916827bffffffffffffffffffffffffffffffffffffffffffffffffffffffff1916145b80610f285750610f2782611b0a565b5b9050919050565b610f38816113c9565b610f77576040517f08c379a0000000000000000000000000000000000000000000000000000000008152600401610f6e90612beb565b60405180910390fd5b50565b600033905090565b816004600083815260200190815260200160002060006101000a81548173ffffffffffffffffffffffffffffffffffffffff021916908373ffffffffffffffffffffffffffffffffffffffff160217905550808273ffffffffffffffffffffffffffffffffffffffff16610ff5836108f5565b73ffffffffffffffffffffffffffffffffffffffff167f8c5be1e5ebec7d5bd14f71427d1e84f3dd0314c0f7b2291e5b200ac8c7c3b92560405160405180910390a45050565b600080611047836108f5565b90508073ffffffffffffffffffffffffffffffffffffffff168473ffffffffffffffffffffffffffffffffffffffff16148061108957506110888185610d36565b5b806110c757508373ffffffffffffffffffffffffffffffffffffffff166110af846104c3565b73ffffffffffffffffffffffffffffffffffffffff16145b91505092915050565b8273ffffffffffffffffffffffffffffffffffffffff166110f0826108f5565b73ffffffffffffffffffffffffffffffffffffffff1614611146576040517f08c379a000000000000000000000000000000000000000000000000000000000815260040161113d9061307f565b60405180910390fd5b600073ffffffffffffffffffffffffffffffffffffffff168273ffffffffffffffffffffffffffffffffffffffff16036111b5576040517f08c379a00000000000000000000000000000000000000000000000000000000081526004016111ac90613111565b60405180910390fd5b6111c28383836001611b74565b8273ffffffffffffffffffffffffffffffffffffffff166111e2826108f5565b73ffffffffffffffffffffffffffffffffffffffff1614611238576040517f08c379a000000000000000000000000000000000000000000000000000000000815260040161122f9061307f565b60405180910390fd5b6004600082815260200190815260200160002060006101000a81549073ffffffffffffffffffffffffffffffffffffffff02191690556001600360008573ffffffffffffffffffffffffffffffffffffffff1673ffffffffffffffffffffffffffffffffffffffff168152602001908152602001600020600082825403925050819055506001600360008473ffffffffffffffffffffffffffffffffffffffff1673ffffffffffffffffffffffffffffffffffffffff16815260200190815260200160002060008282540192505081905550816002600083815260200190815260200160002060006101000a81548173ffffffffffffffffffffffffffffffffffffffff021916908373ffffffffffffffffffffffffffffffffffffffff160217905550808273ffffffffffffffffffffffffffffffffffffffff168473ffffffffffffffffffffffffffffffffffffffff167fddf252ad1be2c89b69c2b068fc378daa952ba7f163c4a11628f55a4df523b3ef60405160405180910390a46113c48383836001611b7a565b505050565b60008073ffffffffffffffffffffffffffffffffffffffff166113eb8361145d565b73ffffffffffffffffffffffffffffffffffffffff1614159050919050565b61141381611b80565b600060066000838152602001908152602001600020805461143390612894565b90501461145a576006600082815260200190815260200160002060006114599190612099565b5b50565b60006002600083815260200190815260200160002060009054906101000a900473ffffffffffffffffffffffffffffffffffffffff169050919050565b6114a2610f7a565b73ffffffffffffffffffffffffffffffffffffffff166114c0610af0565b73ffffffffffffffffffffffffffffffffffffffff1614611516576040517f08c379a000000000000000000000000000000000000000000000000000000000815260040161150d9061317d565b60405180910390fd5b565b6000600760009054906101000a900473ffffffffffffffffffffffffffffffffffffffff16905081600760006101000a81548173ffffffffffffffffffffffffffffffffffffffff021916908373ffffffffffffffffffffffffffffffffffffffff1602179055508173ffffffffffffffffffffffffffffffffffffffff168173ffffffffffffffffffffffffffffffffffffffff167f8be0079c531659141344cd1fd0a4f28419497f9722a3daafe3b4186f6b6457e060405160405180910390a35050565b6001816000016000828254019250508190555050565b600081600001549050919050565b600073ffffffffffffffffffffffffffffffffffffffff168273ffffffffffffffffffffffffffffffffffffffff1603611671576040517f08c379a0000000000000000000000000000000000000000000000000000000008152600401611668906131e9565b60405180910390fd5b61167a816113c9565b156116ba576040517f08c379a00000000000000000000000000000000000000000000000000000000081526004016116b190613255565b60405180910390fd5b6116c8600083836001611b74565b6116d1816113c9565b15611711576040517f08c379a000000000000000000000000000000000000000000000000000000000815260040161170890613255565b60405180910390fd5b6001600360008473ffffffffffffffffffffffffffffffffffffffff1673ffffffffffffffffffffffffffffffffffffffff16815260200190815260200160002060008282540192505081905550816002600083815260200190815260200160002060006101000a81548173ffffffffffffffffffffffffffffffffffffffff021916908373ffffffffffffffffffffffffffffffffffffffff160217905550808273ffffffffffffffffffffffffffffffffffffffff16600073ffffffffffffffffffffffffffffffffffffffff167fddf252ad1be2c89b69c2b068fc378daa952ba7f163c4a11628f55a4df523b3ef60405160405180910390a461181b600083836001611b7a565b5050565b611828826113c9565b611867576040517f08c379a000000000000000000000000000000000000000000000000000000000815260040161185e906132e7565b60405180910390fd5b806006600084815260200190815260200160002090816118879190612e49565b507ff8e1a15aba9398e019f0b49df1a4fde98ee17ae345cb5f6b5e2c27f5033e8ce7826040516118b79190612476565b60405180910390a15050565b8173ffffffffffffffffffffffffffffffffffffffff168373ffffffffffffffffffffffffffffffffffffffff1603611931576040517f08c379a000000000000000000000000000000000000000000000000000000000815260040161192890613353565b60405180910390fd5b80600560008573ffffffffffffffffffffffffffffffffffffffff1673ffffffffffffffffffffffffffffffffffffffff16815260200190815260200160002060008473ffffffffffffffffffffffffffffffffffffffff1673ffffffffffffffffffffffffffffffffffffffff16815260200190815260200160002060006101000a81548160ff0219169083151502179055508173ffffffffffffffffffffffffffffffffffffffff168373ffffffffffffffffffffffffffffffffffffffff167f17307eab39ab6107e8899845ad3d59bd9653f200f220920489ca2b5937696c3183604051611a2291906121aa565b60405180910390a3505050565b611a3a8484846110d0565b611a4684848484611cce565b611a85576040517f08c379a0000000000000000000000000000000000000000000000000000000008152600401611a7c906133e5565b60405180910390fd5b50505050565b606060405180602001604052806000815250905090565b6060611aad82610f2f565b6000611ab7611a8b565b90506000815111611ad75760405180602001604052806000815250611b02565b80611ae184611e55565b604051602001611af2929190612f57565b6040516020818303038152906040525b915050919050565b60007f01ffc9a7000000000000000000000000000000000000000000000000000000007bffffffffffffffffffffffffffffffffffffffffffffffffffffffff1916827bffffffffffffffffffffffffffffffffffffffffffffffffffffffff1916149050919050565b50505050565b50505050565b6000611b8b826108f5565b9050611b9b816000846001611b74565b611ba4826108f5565b90506004600083815260200190815260200160002060006101000a81549073ffffffffffffffffffffffffffffffffffffffff02191690556001600360008373ffffffffffffffffffffffffffffffffffffffff1673ffffffffffffffffffffffffffffffffffffffff168152602001908152602001600020600082825403925050819055506002600083815260200190815260200160002060006101000a81549073ffffffffffffffffffffffffffffffffffffffff021916905581600073ffffffffffffffffffffffffffffffffffffffff168273ffffffffffffffffffffffffffffffffffffffff167fddf252ad1be2c89b69c2b068fc378daa952ba7f163c4a11628f55a4df523b3ef60405160405180910390a4611cca816000846001611b7a565b5050565b6000611cef8473ffffffffffffffffffffffffffffffffffffffff16611f23565b15611e48578373ffffffffffffffffffffffffffffffffffffffff1663150b7a02611d18610f7a565b8786866040518563ffffffff1660e01b8152600401611d3a949392919061345a565b6020604051808303816000875af1925050508015611d7657506040513d601f19601f82011682018060405250810190611d7391906134bb565b60015b611df8573d8060008114611da6576040519150601f19603f3d011682016040523d82523d6000602084013e611dab565b606091505b506000815103611df0576040517f08c379a0000000000000000000000000000000000000000000000000000000008152600401611de7906133e5565b60405180910390fd5b805181602001fd5b63150b7a0260e01b7bffffffffffffffffffffffffffffffffffffffffffffffffffffffff1916817bffffffffffffffffffffffffffffffffffffffffffffffffffffffff191614915050611e4d565b600190505b949350505050565b606060006001611e6484611f46565b01905060008167ffffffffffffffff811115611e8357611e8261249b565b5b6040519080825280601f01601f191660200182016040528015611eb55781602001600182028036833780820191505090505b509050600082602001820190505b600115611f18578080600190039150507f3031323334353637383961626364656600000000000000000000000000000000600a86061a8153600a8581611f0c57611f0b6134e8565b5b04945060008503611ec3575b819350505050919050565b6000808273ffffffffffffffffffffffffffffffffffffffff163b119050919050565b600080600090507a184f03e93ff9f4daa797ed6e38ed64bf6a1f0100000000000000008310611fa4577a184f03e93ff9f4daa797ed6e38ed64bf6a1f0100000000000000008381611f9a57611f996134e8565b5b0492506040810190505b6d04ee2d6d415b85acef81000000008310611fe1576d04ee2d6d415b85acef81000000008381611fd757611fd66134e8565b5b0492506020810190505b662386f26fc10000831061201057662386f26fc100008381612006576120056134e8565b5b0492506010810190505b6305f5e1008310612039576305f5e100838161202f5761202e6134e8565b5b0492506008810190505b612710831061205e576127108381612054576120536134e8565b5b0492506004810190505b606483106120815760648381612077576120766134e8565b5b0492506002810190505b600a8310612090576001810190505b80915050919050565b5080546120a590612894565b6000825580601f106120b757506120d6565b601f0160209004906000526020600020908101906120d591906120d9565b5b50565b5b808211156120f25760008160009055506001016120da565b5090565b6000604051905090565b600080fd5b600080fd5b60007fffffffff0000000000000000000000000000000000000000000000000000000082169050919050565b61213f8161210a565b811461214a57600080fd5b50565b60008135905061215c81612136565b92915050565b60006020828403121561217857612177612100565b5b60006121868482850161214d565b91505092915050565b60008115159050919050565b6121a48161218f565b82525050565b60006020820190506121bf600083018461219b565b92915050565b600081519050919050565b600082825260208201905092915050565b60005b838110156121ff5780820151818401526020810190506121e4565b60008484015250505050565b6000601f19601f8301169050919050565b6000612227826121c5565b61223181856121d0565b93506122418185602086016121e1565b61224a8161220b565b840191505092915050565b6000602082019050818103600083015261226f818461221c565b905092915050565b6000819050919050565b61228a81612277565b811461229557600080fd5b50565b6000813590506122a781612281565b92915050565b6000602082840312156122c3576122c2612100565b5b60006122d184828501612298565b91505092915050565b600073ffffffffffffffffffffffffffffffffffffffff82169050919050565b6000612305826122da565b9050919050565b612315816122fa565b82525050565b6000602082019050612330600083018461230c565b92915050565b61233f816122fa565b811461234a57600080fd5b50565b60008135905061235c81612336565b92915050565b6000806040838503121561237957612378612100565b5b60006123878582860161234d565b925050602061239885828601612298565b9150509250929050565b6000806000606084860312156123bb576123ba612100565b5b60006123c98682870161234d565b93505060206123da8682870161234d565b92505060406123eb86828701612298565b9150509250925092565b6123fe81612277565b82525050565b6000606082019050818103600083015261241e818661221c565b905061242d60208301856123f5565b818103604083015261243f818461221c565b9050949350505050565b60006020828403121561245f5761245e612100565b5b600061246d8482850161234d565b91505092915050565b600060208201905061248b60008301846123f5565b92915050565b600080fd5b600080fd5b7f4e487b7100000000000000000000000000000000000000000000000000000000600052604160045260246000fd5b6124d38261220b565b810181811067ffffffffffffffff821117156124f2576124f161249b565b5b80604052505050565b60006125056120f6565b905061251182826124ca565b919050565b600067ffffffffffffffff8211156125315761253061249b565b5b61253a8261220b565b9050602081019050919050565b82818337600083830152505050565b600061256961256484612516565b6124fb565b90508281526020810184848401111561258557612584612496565b5b612590848285612547565b509392505050565b600082601f8301126125ad576125ac612491565b5b81356125bd848260208601612556565b91505092915050565b600080600080600060a086880312156125e2576125e1612100565b5b60006125f08882890161234d565b955050602086013567ffffffffffffffff81111561261157612610612105565b5b61261d88828901612598565b945050604061262e88828901612298565b935050606086013567ffffffffffffffff81111561264f5761264e612105565b5b61265b88828901612598565b925050608086013567ffffffffffffffff81111561267c5761267b612105565b5b61268888828901612598565b9150509295509295909350565b61269e8161218f565b81146126a957600080fd5b50565b6000813590506126bb81612695565b92915050565b600080604083850312156126d8576126d7612100565b5b60006126e68582860161234d565b92505060206126f7858286016126ac565b9150509250929050565b600067ffffffffffffffff82111561271c5761271b61249b565b5b6127258261220b565b9050602081019050919050565b600061274561274084612701565b6124fb565b90508281526020810184848401111561276157612760612496565b5b61276c848285612547565b509392505050565b600082601f83011261278957612788612491565b5b8135612799848260208601612732565b91505092915050565b600080600080608085870312156127bc576127bb612100565b5b60006127ca8782880161234d565b94505060206127db8782880161234d565b93505060406127ec87828801612298565b925050606085013567ffffffffffffffff81111561280d5761280c612105565b5b61281987828801612774565b91505092959194509250565b6000806040838503121561283c5761283b612100565b5b600061284a8582860161234d565b925050602061285b8582860161234d565b9150509250929050565b7f4e487b7100000000000000000000000000000000000000000000000000000000600052602260045260246000fd5b600060028204905060018216806128ac57607f821691505b6020821081036128bf576128be612865565b5b50919050565b7f4552433732313a20617070726f76616c20746f2063757272656e74206f776e6560008201527f7200000000000000000000000000000000000000000000000000000000000000602082015250565b60006129216021836121d0565b915061292c826128c5565b604082019050919050565b6000602082019050818103600083015261295081612914565b9050919050565b7f4552433732313a20617070726f76652063616c6c6572206973206e6f7420746f60008201527f6b656e206f776e6572206f7220617070726f76656420666f7220616c6c000000602082015250565b60006129b3603d836121d0565b91506129be82612957565b604082019050919050565b600060208201905081810360008301526129e2816129a6565b9050919050565b7f4552433732313a2063616c6c6572206973206e6f7420746f6b656e206f776e6560008201527f72206f7220617070726f76656400000000000000000000000000000000000000602082015250565b6000612a45602d836121d0565b9150612a50826129e9565b604082019050919050565b60006020820190508181036000830152612a7481612a38565b9050919050565b7f5469636b65744e46543a20517565727920666f72206e6f6e6578697374656e7460008201527f20746f6b656e0000000000000000000000000000000000000000000000000000602082015250565b6000612ad76026836121d0565b9150612ae282612a7b565b604082019050919050565b60006020820190508181036000830152612b0681612aca565b9050919050565b7f5469636b65744e46543a2063616c6c6572206973206e6f74206f776e6572206e60008201527f6f7220617070726f766564000000000000000000000000000000000000000000602082015250565b6000612b69602b836121d0565b9150612b7482612b0d565b604082019050919050565b60006020820190508181036000830152612b9881612b5c565b9050919050565b7f4552433732313a20696e76616c696420746f6b656e2049440000000000000000600082015250565b6000612bd56018836121d0565b9150612be082612b9f565b602082019050919050565b60006020820190508181036000830152612c0481612bc8565b9050919050565b7f4552433732313a2061646472657373207a65726f206973206e6f74206120766160008201527f6c6964206f776e65720000000000000000000000000000000000000000000000602082015250565b6000612c676029836121d0565b9150612c7282612c0b565b604082019050919050565b60006020820190508181036000830152612c9681612c5a565b9050919050565b60008190508160005260206000209050919050565b60006020601f8301049050919050565b600082821b905092915050565b600060088302612cff7fffffffffffffffffffffffffffffffffffffffffffffffffffffffffffffffff82612cc2565b612d098683612cc2565b95508019841693508086168417925050509392505050565b6000819050919050565b6000612d46612d41612d3c84612277565b612d21565b612277565b9050919050565b6000819050919050565b612d6083612d2b565b612d74612d6c82612d4d565b848454612ccf565b825550505050565b600090565b612d89612d7c565b612d94818484612d57565b505050565b5b81811015612db857612dad600082612d81565b600181019050612d9a565b5050565b601f821115612dfd57612dce81612c9d565b612dd784612cb2565b81016020851015612de6578190505b612dfa612df285612cb2565b830182612d99565b50505b505050565b600082821c905092915050565b6000612e2060001984600802612e02565b1980831691505092915050565b6000612e398383612e0f565b9150826002028217905092915050565b612e52826121c5565b67ffffffffffffffff811115612e6b57612e6a61249b565b5b612e758254612894565b612e80828285612dbc565b600060209050601f831160018114612eb35760008415612ea1578287015190505b612eab8582612e2d565b865550612f13565b601f198416612ec186612c9d565b60005b82811015612ee957848901518255600182019150602085019450602081019050612ec4565b86831015612f065784890151612f02601f891682612e0f565b8355505b6001600288020188555050505b505050505050565b600081905092915050565b6000612f31826121c5565b612f3b8185612f1b565b9350612f4b8185602086016121e1565b80840191505092915050565b6000612f638285612f26565b9150612f6f8284612f26565b91508190509392505050565b7f4f776e61626c653a206e6577206f776e657220697320746865207a65726f206160008201527f6464726573730000000000000000000000000000000000000000000000000000602082015250565b6000612fd76026836121d0565b9150612fe282612f7b565b604082019050919050565b6000602082019050818103600083015261300681612fca565b9050919050565b7f4552433732313a207472616e736665722066726f6d20696e636f72726563742060008201527f6f776e6572000000000000000000000000000000000000000000000000000000602082015250565b60006130696025836121d0565b91506130748261300d565b604082019050919050565b600060208201905081810360008301526130988161305c565b9050919050565b7f4552433732313a207472616e7366657220746f20746865207a65726f2061646460008201527f7265737300000000000000000000000000000000000000000000000000000000602082015250565b60006130fb6024836121d0565b91506131068261309f565b604082019050919050565b6000602082019050818103600083015261312a816130ee565b9050919050565b7f4f776e61626c653a2063616c6c6572206973206e6f7420746865206f776e6572600082015250565b60006131676020836121d0565b915061317282613131565b602082019050919050565b600060208201905081810360008301526131968161315a565b9050919050565b7f4552433732313a206d696e7420746f20746865207a65726f2061646472657373600082015250565b60006131d36020836121d0565b91506131de8261319d565b602082019050919050565b60006020820190508181036000830152613202816131c6565b9050919050565b7f4552433732313a20746f6b656e20616c7265616479206d696e74656400000000600082015250565b600061323f601c836121d0565b915061324a82613209565b602082019050919050565b6000602082019050818103600083015261326e81613232565b9050919050565b7f45524337323155524953746f726167653a2055524920736574206f66206e6f6e60008201527f6578697374656e7420746f6b656e000000000000000000000000000000000000602082015250565b60006132d1602e836121d0565b91506132dc82613275565b604082019050919050565b60006020820190508181036000830152613300816132c4565b9050919050565b7f4552433732313a20617070726f766520746f2063616c6c657200000000000000600082015250565b600061333d6019836121d0565b915061334882613307565b602082019050919050565b6000602082019050818103600083015261336c81613330565b9050919050565b7f4552433732313a207472616e7366657220746f206e6f6e20455243373231526560008201527f63656976657220696d706c656d656e7465720000000000000000000000000000602082015250565b60006133cf6032836121d0565b91506133da82613373565b604082019050919050565b600060208201905081810360008301526133fe816133c2565b9050919050565b600081519050919050565b600082825260208201905092915050565b600061342c82613405565b6134368185613410565b93506134468185602086016121e1565b61344f8161220b565b840191505092915050565b600060808201905061346f600083018761230c565b61347c602083018661230c565b61348960408301856123f5565b818103606083015261349b8184613421565b905095945050505050565b6000815190506134b581612136565b92915050565b6000602082840312156134d1576134d0612100565b5b60006134df848285016134a6565b91505092915050565b7f4e487b7100000000000000000000000000000000000000000000000000000000600052601260045260246000fdfea264697066735822122033b5d2fa72ae509643fd1dac73c0570713402f85c658185e8f988c5f3cabb95264736f6c63430008130033",
  "linkReferences": {},
  "deployedLinkReferences": {}
}