{
  "_format": "hh-sol-artifact-1",
  "contractName": "TicketMarketplace",
  "sourceName": "contracts/TicketMarketplace.sol",
  "abi": [
    {
      "inputs": [
        {
          "internalType": "address",
          "name": "_nftContract",
          "type": "address"
        }
      ],
      "stateMutability": "nonpayable",
      "type": "constructor"
    },
    {
      "anonymous": false,
      "inputs": [
        {
          "indexed": false,
          "internalType": "uint256",
          "name": "tokenId",
          "type": "uint256"
        },
        {
          "indexed": false,
          "internalType": "address",
          "name": "seller",
          "type": "address"
        }
      ],
      "name": "ListingCancelled",
      "type": "event"
    },
    {
      "anonymous": false,
      "inputs": [
        {
          "indexed": true,
          "internalType": "address",
          "name": "previousOwner",
          "type": "address"
        },
        {
          "indexed": true,
          "internalType": "address",
          "name": "newOwner",
          "type": "address"
        }
      ],
      "name": "OwnershipTransferred",
      "type": "event"
    },
    {
      "anonymous": false,
      "inputs": [
        {
          "indexed": false,
          "internalType": "uint256",
          "name": "tokenId",
          "type": "uint256"
        },
        {
          "indexed": false,
          "internalType": "uint256",
          "name": "price",
          "type": "uint256"
        },
        {
          "indexed": false,
          "internalType": "address",
          "name": "seller",
          "type": "address"
        }
      ],
      "name": "TicketListed",
      "type": "event"
    },
    {
      "anonymous": false,
      "inputs": [
        {
          "indexed": false,
          "internalType": "uint256",
          "name": "tokenId",
          "type": "uint256"
        },
        {
          "indexed": false,
          "internalType": "uint256",
          "name": "price",
          "type": "uint256"
        },
        {
          "indexed": false,
          "internalType": "address",
          "name": "seller",
          "type": "address"
        },
        {
          "indexed": false,
          "internalType": "address",
          "name": "buyer",
          "type": "address"
        }
      ],
      "name": "TicketSold",
      "type": "event"
    },
    {
      "inputs": [
        {
          "internalType": "uint256",
          "name": "tokenId",
          "type": "uint256"
        }
      ],
      "name": "buyTicket",
      "outputs": [],
      "stateMutability": "payable",
      "type": "function"
    },
    {
      "inputs": [
        {
          "internalType": "uint256",
          "name": "tokenId",
          "type": "uint256"
        }
      ],
      "name": "cancelListing",
      "outputs": [],
      "stateMutability": "nonpayable",
      "type": "function"
    },
    {
      "inputs": [],
      "name": "getAllListedTickets",
      "outputs": [
        {
          "internalType": "uint256[]",
          "name": "",
          "type": "uint256[]"
        },
        {
          "internalType": "uint256[]",
          "name": "",
          "type": "uint256[]"
        },
        {
          "internalType": "address[]",
          "name": "",
          "type": "address[]"
        }
      ],
      "stateMutability": "view",
      "type": "function"
    },
    {
      "inputs": [
        {
          "internalType": "uint256",
          "name": "tokenId",
          "type": "uint256"
        },
        {
          "internalType": "uint256",
          "name": "price",
          "type": "uint256"
        }
      ],
      "name": "listTicket",
      "outputs": [],
      "stateMutability": "nonpayable",
      "type": "function"
    },
    {
      "inputs": [
        {
          "internalType": "uint256",
          "name": "",
          "type": "uint256"
        }
      ],
      "name": "listedTokenIds",
      "outputs": [
        {
          "internalType": "uint256",
          "name": "",
          "type": "uint256"
        }
      ],
      "stateMutability": "view",
      "type": "function"
    },
    {
      "inputs": [
        {
          "internalType": "uint256",
          "name": "",
          "type": "uint256"
        }
      ],
      "name": "listings",
      "outputs": [
        {
          "internalType": "uint256",
          "name": "price",
          "type": "uint256"
        },
        {
          "internalType": "address",
          "name": "seller",
          "type": "address"
        }
      ],
      "stateMutability": "view",
      "type": "function"
    },
    {
      "inputs": [],
      "name": "nftContract",
      "outputs": [
        {
          "internalType": "contract IERC721",
          "name": "",
          "type": "address"
        }
      ],
      "stateMutability": "view",
      "type": "function"
    },
    {
      "inputs": [],
      "name": "owner",
      "outputs": [
        {
          "internalType": "address",
          "name": "",
          "type": "address"
        }
      ],
      "stateMutability": "view",
      "type": "function"
    },
    {
      "inputs": [],
      "name": "renounceOwnership",
      "outputs": [],
      "stateMutability": "nonpayable",
      "type": "function"
    },
    {
      "inputs": [
        {
          "internalType": "address",
          "name": "newOwner",
          "type": "address"
        }
      ],
      "name": "transferOwnership",
      "outputs": [],
      "stateMutability": "nonpayable",
      "type": "function"
    }
  ],
  "bytecode": "0x60806040523480156200001157600080fd5b5060405162001cc838038062001cc88339818101604052810190620000379190620001df565b60016000819055506200005f62000053620000a760201b60201c565b620000af60201b60201c565b80600260006101000a81548173ffffffffffffffffffffffffffffffffffffffff021916908373ffffffffffffffffffffffffffffffffffffffff1602179055505062000211565b600033905090565b6000600160009054906101000a900473ffffffffffffffffffffffffffffffffffffffff16905081600160006101000a81548173ffffffffffffffffffffffffffffffffffffffff021916908373ffffffffffffffffffffffffffffffffffffffff1602179055508173ffffffffffffffffffffffffffffffffffffffff168173ffffffffffffffffffffffffffffffffffffffff167f8be0079c531659141344cd1fd0a4f28419497f9722a3daafe3b4186f6b6457e060405160405180910390a35050565b600080fd5b600073ffffffffffffffffffffffffffffffffffffffff82169050919050565b6000620001a7826200017a565b9050919050565b620001b9816200019a565b8114620001c557600080fd5b50565b600081519050620001d981620001ae565b92915050565b600060208284031215620001f857620001f762000175565b5b60006200020884828501620001c8565b91505092915050565b611aa780620002216000396000f3fe6080604052600436106100915760003560e01c8063b6feadc811610059578063b6feadc814610146578063d080b00014610183578063d56d229d146101b0578063de74e57b146101db578063f2fde38b1461021957610091565b8063305a67a814610096578063305a905a146100bf57806367dd74ca146100e8578063715018a6146101045780638da5cb5b1461011b575b600080fd5b3480156100a257600080fd5b506100bd60048036038101906100b89190611044565b610242565b005b3480156100cb57600080fd5b506100e660048036038101906100e19190611071565b610370565b005b61010260048036038101906100fd9190611044565b61067c565b005b34801561011057600080fd5b50610119610a36565b005b34801561012757600080fd5b50610130610a4a565b60405161013d91906110f2565b60405180910390f35b34801561015257600080fd5b5061016d60048036038101906101689190611044565b610a74565b60405161017a919061111c565b60405180910390f35b34801561018f57600080fd5b50610198610a98565b6040516101a7939291906112b3565b60405180910390f35b3480156101bc57600080fd5b506101c5610d05565b6040516101d2919061135e565b60405180910390f35b3480156101e757600080fd5b5061020260048036038101906101fd9190611044565b610d2b565b604051610210929190611379565b60405180910390f35b34801561022557600080fd5b50610240600480360381019061023b91906113ce565b610d6f565b005b3373ffffffffffffffffffffffffffffffffffffffff166003600083815260200190815260200160002060010160009054906101000a900473ffffffffffffffffffffffffffffffffffffffff1673ffffffffffffffffffffffffffffffffffffffff16146102e6576040517f08c379a00000000000000000000000000000000000000000000000000000000081526004016102dd90611458565b60405180910390fd5b600360008281526020019081526020016000206000808201600090556001820160006101000a81549073ffffffffffffffffffffffffffffffffffffffff0219169055505061033481610df2565b7f8e25282255ab31897df2b0456bb993ac7f84d376861aefd84901d2d63a7428a28133604051610365929190611379565b60405180910390a150565b3373ffffffffffffffffffffffffffffffffffffffff16600260009054906101000a900473ffffffffffffffffffffffffffffffffffffffff1673ffffffffffffffffffffffffffffffffffffffff16636352211e846040518263ffffffff1660e01b81526004016103e2919061111c565b602060405180830381865afa1580156103ff573d6000803e3d6000fd5b505050506040513d601f19601f82011682018060405250810190610423919061148d565b73ffffffffffffffffffffffffffffffffffffffff1614610479576040517f08c379a000000000000000000000000000000000000000000000000000000000815260040161047090611506565b60405180910390fd5b3073ffffffffffffffffffffffffffffffffffffffff16600260009054906101000a900473ffffffffffffffffffffffffffffffffffffffff1673ffffffffffffffffffffffffffffffffffffffff1663081812fc846040518263ffffffff1660e01b81526004016104eb919061111c565b602060405180830381865afa158015610508573d6000803e3d6000fd5b505050506040513d601f19601f8201168201806040525081019061052c919061148d565b73ffffffffffffffffffffffffffffffffffffffff1614610582576040517f08c379a000000000000000000000000000000000000000000000000000000000815260040161057990611572565b60405180910390fd5b60405180604001604052808281526020013373ffffffffffffffffffffffffffffffffffffffff16815250600360008481526020019081526020016000206000820151816000015560208201518160010160006101000a81548173ffffffffffffffffffffffffffffffffffffffff021916908373ffffffffffffffffffffffffffffffffffffffff16021790555090505060048290806001815401808255809150506001900390600052602060002001600090919091909150557f5ddeb20641397a4006800e63273f4f75df6e6964e4456220df00032d3d160da782823360405161067093929190611592565b60405180910390a15050565b600060036000838152602001908152602001600020604051806040016040529081600082015481526020016001820160009054906101000a900473ffffffffffffffffffffffffffffffffffffffff1673ffffffffffffffffffffffffffffffffffffffff1673ffffffffffffffffffffffffffffffffffffffff168152505090506000816000015111610745576040517f08c379a000000000000000000000000000000000000000000000000000000000815260040161073c90611615565b60405180910390fd5b806000015134101561078c576040517f08c379a000000000000000000000000000000000000000000000000000000000815260040161078390611681565b60405180910390fd5b600360008381526020019081526020016000206000808201600090556001820160006101000a81549073ffffffffffffffffffffffffffffffffffffffff021916905550506107da82610df2565b600260009054906101000a900473ffffffffffffffffffffffffffffffffffffffff1673ffffffffffffffffffffffffffffffffffffffff166342842e0e826020015133856040518463ffffffff1660e01b815260040161083d939291906116a1565b600060405180830381600087803b15801561085757600080fd5b505af115801561086b573d6000803e3d6000fd5b505050506000816020015173ffffffffffffffffffffffffffffffffffffffff16826000015160405161089d90611709565b60006040518083038185875af1925050503d80600081146108da576040519150601f19603f3d011682016040523d82523d6000602084013e6108df565b606091505b5050905080610923576040517f08c379a000000000000000000000000000000000000000000000000000000000815260040161091a9061176a565b60405180910390fd5b81600001513411156109ec5760003373ffffffffffffffffffffffffffffffffffffffff1683600001513461095891906117b9565b60405161096490611709565b60006040518083038185875af1925050503d80600081146109a1576040519150601f19603f3d011682016040523d82523d6000602084013e6109a6565b606091505b50509050806109ea576040517f08c379a00000000000000000000000000000000000000000000000000000000081526004016109e190611839565b60405180910390fd5b505b7f44f19a44b8c509adc281ec35927694f6d25e501d0de1764890ab0637b8dcda48838360000151846020015133604051610a299493929190611859565b60405180910390a1505050565b610a3e610ebd565b610a486000610f3b565b565b6000600160009054906101000a900473ffffffffffffffffffffffffffffffffffffffff16905090565b60048181548110610a8457600080fd5b906000526020600020016000915090505481565b6060806060600060048054905067ffffffffffffffff811115610abe57610abd61189e565b5b604051908082528060200260200182016040528015610aec5781602001602082028036833780820191505090505b509050600060048054905067ffffffffffffffff811115610b1057610b0f61189e565b5b604051908082528060200260200182016040528015610b3e5781602001602082028036833780820191505090505b509050600060048054905067ffffffffffffffff811115610b6257610b6161189e565b5b604051908082528060200260200182016040528015610b905781602001602082028036833780820191505090505b50905060005b600480549050811015610cf357600060048281548110610bb957610bb86118cd565b5b90600052602060002001549050600060036000838152602001908152602001600020604051806040016040529081600082015481526020016001820160009054906101000a900473ffffffffffffffffffffffffffffffffffffffff1673ffffffffffffffffffffffffffffffffffffffff1673ffffffffffffffffffffffffffffffffffffffff1681525050905081868481518110610c5c57610c5b6118cd565b5b6020026020010181815250508060000151858481518110610c8057610c7f6118cd565b5b6020026020010181815250508060200151848481518110610ca457610ca36118cd565b5b602002602001019073ffffffffffffffffffffffffffffffffffffffff16908173ffffffffffffffffffffffffffffffffffffffff168152505050508080610ceb906118fc565b915050610b96565b50828282955095509550505050909192565b600260009054906101000a900473ffffffffffffffffffffffffffffffffffffffff1681565b60036020528060005260406000206000915090508060000154908060010160009054906101000a900473ffffffffffffffffffffffffffffffffffffffff16905082565b610d77610ebd565b600073ffffffffffffffffffffffffffffffffffffffff168173ffffffffffffffffffffffffffffffffffffffff1603610de6576040517f08c379a0000000000000000000000000000000000000000000000000000000008152600401610ddd906119b6565b60405180910390fd5b610def81610f3b565b50565b60005b600480549050811015610eb9578160048281548110610e1757610e166118cd565b5b906000526020600020015403610ea65760046001600480549050610e3b91906117b9565b81548110610e4c57610e4b6118cd565b5b906000526020600020015460048281548110610e6b57610e6a6118cd565b5b90600052602060002001819055506004805480610e8b57610e8a6119d6565b5b60019003818190600052602060002001600090559055610eb9565b8080610eb1906118fc565b915050610df5565b5050565b610ec5611001565b73ffffffffffffffffffffffffffffffffffffffff16610ee3610a4a565b73ffffffffffffffffffffffffffffffffffffffff1614610f39576040517f08c379a0000000000000000000000000000000000000000000000000000000008152600401610f3090611a51565b60405180910390fd5b565b6000600160009054906101000a900473ffffffffffffffffffffffffffffffffffffffff16905081600160006101000a81548173ffffffffffffffffffffffffffffffffffffffff021916908373ffffffffffffffffffffffffffffffffffffffff1602179055508173ffffffffffffffffffffffffffffffffffffffff168173ffffffffffffffffffffffffffffffffffffffff167f8be0079c531659141344cd1fd0a4f28419497f9722a3daafe3b4186f6b6457e060405160405180910390a35050565b600033905090565b600080fd5b6000819050919050565b6110218161100e565b811461102c57600080fd5b50565b60008135905061103e81611018565b92915050565b60006020828403121561105a57611059611009565b5b60006110688482850161102f565b91505092915050565b6000806040838503121561108857611087611009565b5b60006110968582860161102f565b92505060206110a78582860161102f565b9150509250929050565b600073ffffffffffffffffffffffffffffffffffffffff82169050919050565b60006110dc826110b1565b9050919050565b6110ec816110d1565b82525050565b600060208201905061110760008301846110e3565b92915050565b6111168161100e565b82525050565b6000602082019050611131600083018461110d565b92915050565b600081519050919050565b600082825260208201905092915050565b6000819050602082019050919050565b61116c8161100e565b82525050565b600061117e8383611163565b60208301905092915050565b6000602082019050919050565b60006111a282611137565b6111ac8185611142565b93506111b783611153565b8060005b838110156111e85781516111cf8882611172565b97506111da8361118a565b9250506001810190506111bb565b5085935050505092915050565b600081519050919050565b600082825260208201905092915050565b6000819050602082019050919050565b61122a816110d1565b82525050565b600061123c8383611221565b60208301905092915050565b6000602082019050919050565b6000611260826111f5565b61126a8185611200565b935061127583611211565b8060005b838110156112a657815161128d8882611230565b975061129883611248565b925050600181019050611279565b5085935050505092915050565b600060608201905081810360008301526112cd8186611197565b905081810360208301526112e18185611197565b905081810360408301526112f58184611255565b9050949350505050565b6000819050919050565b600061132461131f61131a846110b1565b6112ff565b6110b1565b9050919050565b600061133682611309565b9050919050565b60006113488261132b565b9050919050565b6113588161133d565b82525050565b6000602082019050611373600083018461134f565b92915050565b600060408201905061138e600083018561110d565b61139b60208301846110e3565b9392505050565b6113ab816110d1565b81146113b657600080fd5b50565b6000813590506113c8816113a2565b92915050565b6000602082840312156113e4576113e3611009565b5b60006113f2848285016113b9565b91505092915050565b600082825260208201905092915050565b7f4e6f74207468652073656c6c6572000000000000000000000000000000000000600082015250565b6000611442600e836113fb565b915061144d8261140c565b602082019050919050565b6000602082019050818103600083015261147181611435565b9050919050565b600081519050611487816113a2565b92915050565b6000602082840312156114a3576114a2611009565b5b60006114b184828501611478565b91505092915050565b7f4e6f7420746865207469636b6574206f776e6572000000000000000000000000600082015250565b60006114f06014836113fb565b91506114fb826114ba565b602082019050919050565b6000602082019050818103600083015261151f816114e3565b9050919050565b7f4d61726b6574706c616365206e6f7420617070726f7665640000000000000000600082015250565b600061155c6018836113fb565b915061156782611526565b602082019050919050565b6000602082019050818103600083015261158b8161154f565b9050919050565b60006060820190506115a7600083018661110d565b6115b4602083018561110d565b6115c160408301846110e3565b949350505050565b7f5469636b6574206e6f74206c697374656420666f722073616c65000000000000600082015250565b60006115ff601a836113fb565b915061160a826115c9565b602082019050919050565b6000602082019050818103600083015261162e816115f2565b9050919050565b7f496e73756666696369656e74207061796d656e74000000000000000000000000600082015250565b600061166b6014836113fb565b915061167682611635565b602082019050919050565b6000602082019050818103600083015261169a8161165e565b9050919050565b60006060820190506116b660008301866110e3565b6116c360208301856110e3565b6116d0604083018461110d565b949350505050565b600081905092915050565b50565b60006116f36000836116d8565b91506116fe826116e3565b600082019050919050565b6000611714826116e6565b9150819050919050565b7f4661696c656420746f2073656e64204574686572000000000000000000000000600082015250565b60006117546014836113fb565b915061175f8261171e565b602082019050919050565b6000602082019050818103600083015261178381611747565b9050919050565b7f4e487b7100000000000000000000000000000000000000000000000000000000600052601160045260246000fd5b60006117c48261100e565b91506117cf8361100e565b92508282039050818111156117e7576117e661178a565b5b92915050565b7f4661696c656420746f20726566756e6420657863657373000000000000000000600082015250565b60006118236017836113fb565b915061182e826117ed565b602082019050919050565b6000602082019050818103600083015261185281611816565b9050919050565b600060808201905061186e600083018761110d565b61187b602083018661110d565b61188860408301856110e3565b61189560608301846110e3565b95945050505050565b7f4e487b7100000000000000000000000000000000000000000000000000000000600052604160045260246000fd5b7f4e487b7100000000000000000000000000000000000000000000000000000000600052603260045260246000fd5b60006119078261100e565b91507fffffffffffffffffffffffffffffffffffffffffffffffffffffffffffffffff82036119395761193861178a565b5b600182019050919050565b7f4f776e61626c653a206e6577206f776e657220697320746865207a65726f206160008201527f6464726573730000000000000000000000000000000000000000000000000000602082015250565b60006119a06026836113fb565b91506119ab82611944565b604082019050919050565b600060208201905081810360008301526119cf81611993565b9050919050565b7f4e487b7100000000000000000000000000000000000000000000000000000000600052603160045260246000fd5b7f4f776e61626c653a2063616c6c6572206973206e6f7420746865206f776e6572600082015250565b6000611a3b6020836113fb565b9150611a4682611a05565b602082019050919050565b60006020820190508181036000830152611a6a81611a2e565b905091905056fea2646970667358221220c4b924eb721e8968ee545791f7522353f6e98bc455ef2912b26d2c48e85ff5d464736f6c63430008130033",
  "linkReferences": {},
  "deployedLinkReferences": {}
}