{
  "_format": "hh-sol-artifact-1",
  "contractName": "TicketMarketplace",
  "sourceName": "contracts/TicketMarketplace.sol",
  "abi": [
    {
      "inputs": [
        {
          "internalType": "address",
          "name": "_nftContract",
          "type": "address"
        }
      ],
      "stateMutability": "nonpayable",
      "type": "constructor"
    },
    {
      "anonymous": false,
      "inputs": [
        {
          "indexed": false,
          "internalType": "uint256",
          "name": "tokenId",
          "type": "uint256"
        },
        {
          "indexed": false,
          "internalType": "address",
          "name": "seller",
          "type": "address"
        }
      ],
      "name": "ListingCancelled",
      "type": "event"
    },
    {
      "anonymous": false,
      "inputs": [
        {
          "indexed": true,
          "internalType": "address",
          "name": "previousOwner",
          "type": "address"
        },
        {
          "indexed": true,
          "internalType": "address",
          "name": "newOwner",
          "type": "address"
        }
      ],
      "name": "OwnershipTransferred",
      "type": "event"
    },
    {
      "anonymous": false,
      "inputs": [
        {
          "indexed": false,
          "internalType": "uint256",
          "name": "tokenId",
          "type": "uint256"
        },
        {
          "indexed": false,
          "internalType": "uint256",
          "name": "price",
          "type": "uint256"
        },
        {
          "indexed": false,
          "internalType": "address",
          "name": "seller",
          "type": "address"
        }
      ],
      "name": "TicketListed",
      "type": "event"
    },
    {
      "anonymous": false,
      "inputs": [
        {
          "indexed": false,
          "internalType": "uint256",
          "name": "tokenId",
          "type": "uint256"
        },
        {
          "indexed": false,
          "internalType": "uint256",
          "name": "price",
          "type": "uint256"
        },
        {
          "indexed": false,
          "internalType": "address",
          "name": "seller",
          "type": "address"
        },
        {
          "indexed": false,
          "internalType": "address",
          "name": "buyer",
          "type": "address"
        }
      ],
      "name": "TicketSold",
      "type": "event"
    },
    {
      "inputs": [
        {
          "internalType": "uint256",
          "name": "tokenId",
          "type": "uint256"
        }
      ],
      "name": "buyTicket",
      "outputs": [],
      "stateMutability": "payable",
      "type": "function"
    },
    {
      "inputs": [
        {
          "internalType": "uint256",
          "name": "tokenId",
          "type": "uint256"
        }
      ],
      "name": "cancelListing",
      "outputs": [],
      "stateMutability": "nonpayable",
      "type": "function"
    },
    {
      "inputs": [],
      "name": "getAllListedTickets",
      "outputs": [
        {
          "internalType": "uint256[]",
          "name": "",
          "type": "uint256[]"
        },
        {
          "internalType": "uint256[]",
          "name": "",
          "type": "uint256[]"
        },
        {
          "internalType": "address[]",
          "name": "",
          "type": "address[]"
        }
      ],
      "stateMutability": "view",
      "type": "function"
    },
    {
      "inputs": [
        {
          "internalType": "address",
          "name": "user",
          "type": "address"
        }
      ],
      "name": "getUserListedTickets",
      "outputs": [
        {
          "internalType": "uint256[]",
          "name": "",
          "type": "uint256[]"
        },
        {
          "internalType": "uint256[]",
          "name": "",
          "type": "uint256[]"
        }
      ],
      "stateMutability": "view",
      "type": "function"
    },
    {
      "inputs": [
        {
          "internalType": "uint256",
          "name": "tokenId",
          "type": "uint256"
        },
        {
          "internalType": "uint256",
          "name": "price",
          "type": "uint256"
        }
      ],
      "name": "listTicket",
      "outputs": [],
      "stateMutability": "nonpayable",
      "type": "function"
    },
    {
      "inputs": [
        {
          "internalType": "uint256",
          "name": "",
          "type": "uint256"
        }
      ],
      "name": "listedTokenIds",
      "outputs": [
        {
          "internalType": "uint256",
          "name": "",
          "type": "uint256"
        }
      ],
      "stateMutability": "view",
      "type": "function"
    },
    {
      "inputs": [
        {
          "internalType": "uint256",
          "name": "",
          "type": "uint256"
        }
      ],
      "name": "listings",
      "outputs": [
        {
          "internalType": "uint256",
          "name": "price",
          "type": "uint256"
        },
        {
          "internalType": "address",
          "name": "seller",
          "type": "address"
        }
      ],
      "stateMutability": "view",
      "type": "function"
    },
    {
      "inputs": [],
      "name": "nftContract",
      "outputs": [
        {
          "internalType": "contract IERC721",
          "name": "",
          "type": "address"
        }
      ],
      "stateMutability": "view",
      "type": "function"
    },
    {
      "inputs": [],
      "name": "owner",
      "outputs": [
        {
          "internalType": "address",
          "name": "",
          "type": "address"
        }
      ],
      "stateMutability": "view",
      "type": "function"
    },
    {
      "inputs": [],
      "name": "renounceOwnership",
      "outputs": [],
      "stateMutability": "nonpayable",
      "type": "function"
    },
    {
      "inputs": [
        {
          "internalType": "address",
          "name": "newOwner",
          "type": "address"
        }
      ],
      "name": "transferOwnership",
      "outputs": [],
      "stateMutability": "nonpayable",
      "type": "function"
    }
  ],
  "bytecode": "0x60806040523480156200001157600080fd5b5060405162001ffc38038062001ffc8339818101604052810190620000379190620001df565b60016000819055506200005f62000053620000a760201b60201c565b620000af60201b60201c565b80600260006101000a81548173ffffffffffffffffffffffffffffffffffffffff021916908373ffffffffffffffffffffffffffffffffffffffff1602179055505062000211565b600033905090565b6000600160009054906101000a900473ffffffffffffffffffffffffffffffffffffffff16905081600160006101000a81548173ffffffffffffffffffffffffffffffffffffffff021916908373ffffffffffffffffffffffffffffffffffffffff1602179055508173ffffffffffffffffffffffffffffffffffffffff168173ffffffffffffffffffffffffffffffffffffffff167f8be0079c531659141344cd1fd0a4f28419497f9722a3daafe3b4186f6b6457e060405160405180910390a35050565b600080fd5b600073ffffffffffffffffffffffffffffffffffffffff82169050919050565b6000620001a7826200017a565b9050919050565b620001b9816200019a565b8114620001c557600080fd5b50565b600081519050620001d981620001ae565b92915050565b600060208284031215620001f857620001f762000175565b5b60006200020884828501620001c8565b91505092915050565b611ddb80620002216000396000f3fe60806040526004361061009c5760003560e01c80638da5cb5b116100645780638da5cb5b14610164578063b6feadc81461018f578063d080b000146101cc578063d56d229d146101f9578063de74e57b14610224578063f2fde38b146102625761009c565b8063305a67a8146100a1578063305a905a146100ca57806367dd74ca146100f357806369c44d391461010f578063715018a61461014d575b600080fd5b3480156100ad57600080fd5b506100c860048036038101906100c39190611341565b61028b565b005b3480156100d657600080fd5b506100f160048036038101906100ec919061136e565b6103b9565b005b61010d60048036038101906101089190611341565b6106c5565b005b34801561011b57600080fd5b506101366004803603810190610131919061140c565b610a7f565b6040516101449291906114f7565b60405180910390f35b34801561015957600080fd5b50610162610d33565b005b34801561017057600080fd5b50610179610d47565b604051610186919061153d565b60405180910390f35b34801561019b57600080fd5b506101b660048036038101906101b19190611341565b610d71565b6040516101c39190611567565b60405180910390f35b3480156101d857600080fd5b506101e1610d95565b6040516101f093929190611640565b60405180910390f35b34801561020557600080fd5b5061020e611002565b60405161021b91906116eb565b60405180910390f35b34801561023057600080fd5b5061024b60048036038101906102469190611341565b611028565b604051610259929190611706565b60405180910390f35b34801561026e57600080fd5b506102896004803603810190610284919061140c565b61106c565b005b3373ffffffffffffffffffffffffffffffffffffffff166003600083815260200190815260200160002060010160009054906101000a900473ffffffffffffffffffffffffffffffffffffffff1673ffffffffffffffffffffffffffffffffffffffff161461032f576040517f08c379a00000000000000000000000000000000000000000000000000000000081526004016103269061178c565b60405180910390fd5b600360008281526020019081526020016000206000808201600090556001820160006101000a81549073ffffffffffffffffffffffffffffffffffffffff0219169055505061037d816110ef565b7f8e25282255ab31897df2b0456bb993ac7f84d376861aefd84901d2d63a7428a281336040516103ae929190611706565b60405180910390a150565b3373ffffffffffffffffffffffffffffffffffffffff16600260009054906101000a900473ffffffffffffffffffffffffffffffffffffffff1673ffffffffffffffffffffffffffffffffffffffff16636352211e846040518263ffffffff1660e01b815260040161042b9190611567565b602060405180830381865afa158015610448573d6000803e3d6000fd5b505050506040513d601f19601f8201168201806040525081019061046c91906117c1565b73ffffffffffffffffffffffffffffffffffffffff16146104c2576040517f08c379a00000000000000000000000000000000000000000000000000000000081526004016104b99061183a565b60405180910390fd5b3073ffffffffffffffffffffffffffffffffffffffff16600260009054906101000a900473ffffffffffffffffffffffffffffffffffffffff1673ffffffffffffffffffffffffffffffffffffffff1663081812fc846040518263ffffffff1660e01b81526004016105349190611567565b602060405180830381865afa158015610551573d6000803e3d6000fd5b505050506040513d601f19601f8201168201806040525081019061057591906117c1565b73ffffffffffffffffffffffffffffffffffffffff16146105cb576040517f08c379a00000000000000000000000000000000000000000000000000000000081526004016105c2906118a6565b60405180910390fd5b60405180604001604052808281526020013373ffffffffffffffffffffffffffffffffffffffff16815250600360008481526020019081526020016000206000820151816000015560208201518160010160006101000a81548173ffffffffffffffffffffffffffffffffffffffff021916908373ffffffffffffffffffffffffffffffffffffffff16021790555090505060048290806001815401808255809150506001900390600052602060002001600090919091909150557f5ddeb20641397a4006800e63273f4f75df6e6964e4456220df00032d3d160da78282336040516106b9939291906118c6565b60405180910390a15050565b600060036000838152602001908152602001600020604051806040016040529081600082015481526020016001820160009054906101000a900473ffffffffffffffffffffffffffffffffffffffff1673ffffffffffffffffffffffffffffffffffffffff1673ffffffffffffffffffffffffffffffffffffffff16815250509050600081600001511161078e576040517f08c379a000000000000000000000000000000000000000000000000000000000815260040161078590611949565b60405180910390fd5b80600001513410156107d5576040517f08c379a00000000000000000000000000000000000000000000000000000000081526004016107cc906119b5565b60405180910390fd5b600360008381526020019081526020016000206000808201600090556001820160006101000a81549073ffffffffffffffffffffffffffffffffffffffff02191690555050610823826110ef565b600260009054906101000a900473ffffffffffffffffffffffffffffffffffffffff1673ffffffffffffffffffffffffffffffffffffffff166342842e0e826020015133856040518463ffffffff1660e01b8152600401610886939291906119d5565b600060405180830381600087803b1580156108a057600080fd5b505af11580156108b4573d6000803e3d6000fd5b505050506000816020015173ffffffffffffffffffffffffffffffffffffffff1682600001516040516108e690611a3d565b60006040518083038185875af1925050503d8060008114610923576040519150601f19603f3d011682016040523d82523d6000602084013e610928565b606091505b505090508061096c576040517f08c379a000000000000000000000000000000000000000000000000000000000815260040161096390611a9e565b60405180910390fd5b8160000151341115610a355760003373ffffffffffffffffffffffffffffffffffffffff168360000151346109a19190611aed565b6040516109ad90611a3d565b60006040518083038185875af1925050503d80600081146109ea576040519150601f19603f3d011682016040523d82523d6000602084013e6109ef565b606091505b5050905080610a33576040517f08c379a0000000000000000000000000000000000000000000000000000000008152600401610a2a90611b6d565b60405180910390fd5b505b7f44f19a44b8c509adc281ec35927694f6d25e501d0de1764890ab0637b8dcda48838360000151846020015133604051610a729493929190611b8d565b60405180910390a1505050565b6060806000805b600480549050811015610b3c578473ffffffffffffffffffffffffffffffffffffffff166003600060048481548110610ac257610ac1611bd2565b5b9060005260206000200154815260200190815260200160002060010160009054906101000a900473ffffffffffffffffffffffffffffffffffffffff1673ffffffffffffffffffffffffffffffffffffffff1603610b29578180610b2590611c01565b9250505b8080610b3490611c01565b915050610a86565b5060008167ffffffffffffffff811115610b5957610b58611c49565b5b604051908082528060200260200182016040528015610b875781602001602082028036833780820191505090505b50905060008267ffffffffffffffff811115610ba657610ba5611c49565b5b604051908082528060200260200182016040528015610bd45781602001602082028036833780820191505090505b5090506000805b600480549050811015610d23578773ffffffffffffffffffffffffffffffffffffffff166003600060048481548110610c1757610c16611bd2565b5b9060005260206000200154815260200190815260200160002060010160009054906101000a900473ffffffffffffffffffffffffffffffffffffffff1673ffffffffffffffffffffffffffffffffffffffff1603610d105760048181548110610c8357610c82611bd2565b5b9060005260206000200154848381518110610ca157610ca0611bd2565b5b6020026020010181815250506003600060048381548110610cc557610cc4611bd2565b5b9060005260206000200154815260200190815260200160002060000154838381518110610cf557610cf4611bd2565b5b6020026020010181815250508180610d0c90611c01565b9250505b8080610d1b90611c01565b915050610bdb565b5082829550955050505050915091565b610d3b6111ba565b610d456000611238565b565b6000600160009054906101000a900473ffffffffffffffffffffffffffffffffffffffff16905090565b60048181548110610d8157600080fd5b906000526020600020016000915090505481565b6060806060600060048054905067ffffffffffffffff811115610dbb57610dba611c49565b5b604051908082528060200260200182016040528015610de95781602001602082028036833780820191505090505b509050600060048054905067ffffffffffffffff811115610e0d57610e0c611c49565b5b604051908082528060200260200182016040528015610e3b5781602001602082028036833780820191505090505b509050600060048054905067ffffffffffffffff811115610e5f57610e5e611c49565b5b604051908082528060200260200182016040528015610e8d5781602001602082028036833780820191505090505b50905060005b600480549050811015610ff057600060048281548110610eb657610eb5611bd2565b5b90600052602060002001549050600060036000838152602001908152602001600020604051806040016040529081600082015481526020016001820160009054906101000a900473ffffffffffffffffffffffffffffffffffffffff1673ffffffffffffffffffffffffffffffffffffffff1673ffffffffffffffffffffffffffffffffffffffff1681525050905081868481518110610f5957610f58611bd2565b5b6020026020010181815250508060000151858481518110610f7d57610f7c611bd2565b5b6020026020010181815250508060200151848481518110610fa157610fa0611bd2565b5b602002602001019073ffffffffffffffffffffffffffffffffffffffff16908173ffffffffffffffffffffffffffffffffffffffff168152505050508080610fe890611c01565b915050610e93565b50828282955095509550505050909192565b600260009054906101000a900473ffffffffffffffffffffffffffffffffffffffff1681565b60036020528060005260406000206000915090508060000154908060010160009054906101000a900473ffffffffffffffffffffffffffffffffffffffff16905082565b6110746111ba565b600073ffffffffffffffffffffffffffffffffffffffff168173ffffffffffffffffffffffffffffffffffffffff16036110e3576040517f08c379a00000000000000000000000000000000000000000000000000000000081526004016110da90611cea565b60405180910390fd5b6110ec81611238565b50565b60005b6004805490508110156111b657816004828154811061111457611113611bd2565b5b9060005260206000200154036111a357600460016004805490506111389190611aed565b8154811061114957611148611bd2565b5b90600052602060002001546004828154811061116857611167611bd2565b5b9060005260206000200181905550600480548061118857611187611d0a565b5b600190038181906000526020600020016000905590556111b6565b80806111ae90611c01565b9150506110f2565b5050565b6111c26112fe565b73ffffffffffffffffffffffffffffffffffffffff166111e0610d47565b73ffffffffffffffffffffffffffffffffffffffff1614611236576040517f08c379a000000000000000000000000000000000000000000000000000000000815260040161122d90611d85565b60405180910390fd5b565b6000600160009054906101000a900473ffffffffffffffffffffffffffffffffffffffff16905081600160006101000a81548173ffffffffffffffffffffffffffffffffffffffff021916908373ffffffffffffffffffffffffffffffffffffffff1602179055508173ffffffffffffffffffffffffffffffffffffffff168173ffffffffffffffffffffffffffffffffffffffff167f8be0079c531659141344cd1fd0a4f28419497f9722a3daafe3b4186f6b6457e060405160405180910390a35050565b600033905090565b600080fd5b6000819050919050565b61131e8161130b565b811461132957600080fd5b50565b60008135905061133b81611315565b92915050565b60006020828403121561135757611356611306565b5b60006113658482850161132c565b91505092915050565b6000806040838503121561138557611384611306565b5b60006113938582860161132c565b92505060206113a48582860161132c565b9150509250929050565b600073ffffffffffffffffffffffffffffffffffffffff82169050919050565b60006113d9826113ae565b9050919050565b6113e9816113ce565b81146113f457600080fd5b50565b600081359050611406816113e0565b92915050565b60006020828403121561142257611421611306565b5b6000611430848285016113f7565b91505092915050565b600081519050919050565b600082825260208201905092915050565b6000819050602082019050919050565b61146e8161130b565b82525050565b60006114808383611465565b60208301905092915050565b6000602082019050919050565b60006114a482611439565b6114ae8185611444565b93506114b983611455565b8060005b838110156114ea5781516114d18882611474565b97506114dc8361148c565b9250506001810190506114bd565b5085935050505092915050565b600060408201905081810360008301526115118185611499565b905081810360208301526115258184611499565b90509392505050565b611537816113ce565b82525050565b6000602082019050611552600083018461152e565b92915050565b6115618161130b565b82525050565b600060208201905061157c6000830184611558565b92915050565b600081519050919050565b600082825260208201905092915050565b6000819050602082019050919050565b6115b7816113ce565b82525050565b60006115c983836115ae565b60208301905092915050565b6000602082019050919050565b60006115ed82611582565b6115f7818561158d565b93506116028361159e565b8060005b8381101561163357815161161a88826115bd565b9750611625836115d5565b925050600181019050611606565b5085935050505092915050565b6000606082019050818103600083015261165a8186611499565b9050818103602083015261166e8185611499565b9050818103604083015261168281846115e2565b9050949350505050565b6000819050919050565b60006116b16116ac6116a7846113ae565b61168c565b6113ae565b9050919050565b60006116c382611696565b9050919050565b60006116d5826116b8565b9050919050565b6116e5816116ca565b82525050565b600060208201905061170060008301846116dc565b92915050565b600060408201905061171b6000830185611558565b611728602083018461152e565b9392505050565b600082825260208201905092915050565b7f4e6f74207468652073656c6c6572000000000000000000000000000000000000600082015250565b6000611776600e8361172f565b915061178182611740565b602082019050919050565b600060208201905081810360008301526117a581611769565b9050919050565b6000815190506117bb816113e0565b92915050565b6000602082840312156117d7576117d6611306565b5b60006117e5848285016117ac565b91505092915050565b7f4e6f7420746865207469636b6574206f776e6572000000000000000000000000600082015250565b600061182460148361172f565b915061182f826117ee565b602082019050919050565b6000602082019050818103600083015261185381611817565b9050919050565b7f4d61726b6574706c616365206e6f7420617070726f7665640000000000000000600082015250565b600061189060188361172f565b915061189b8261185a565b602082019050919050565b600060208201905081810360008301526118bf81611883565b9050919050565b60006060820190506118db6000830186611558565b6118e86020830185611558565b6118f5604083018461152e565b949350505050565b7f5469636b6574206e6f74206c697374656420666f722073616c65000000000000600082015250565b6000611933601a8361172f565b915061193e826118fd565b602082019050919050565b6000602082019050818103600083015261196281611926565b9050919050565b7f496e73756666696369656e74207061796d656e74000000000000000000000000600082015250565b600061199f60148361172f565b91506119aa82611969565b602082019050919050565b600060208201905081810360008301526119ce81611992565b9050919050565b60006060820190506119ea600083018661152e565b6119f7602083018561152e565b611a046040830184611558565b949350505050565b600081905092915050565b50565b6000611a27600083611a0c565b9150611a3282611a17565b600082019050919050565b6000611a4882611a1a565b9150819050919050565b7f4661696c656420746f2073656e64204574686572000000000000000000000000600082015250565b6000611a8860148361172f565b9150611a9382611a52565b602082019050919050565b60006020820190508181036000830152611ab781611a7b565b9050919050565b7f4e487b7100000000000000000000000000000000000000000000000000000000600052601160045260246000fd5b6000611af88261130b565b9150611b038361130b565b9250828203905081811115611b1b57611b1a611abe565b5b92915050565b7f4661696c656420746f20726566756e6420657863657373000000000000000000600082015250565b6000611b5760178361172f565b9150611b6282611b21565b602082019050919050565b60006020820190508181036000830152611b8681611b4a565b9050919050565b6000608082019050611ba26000830187611558565b611baf6020830186611558565b611bbc604083018561152e565b611bc9606083018461152e565b95945050505050565b7f4e487b7100000000000000000000000000000000000000000000000000000000600052603260045260246000fd5b6000611c0c8261130b565b91507fffffffffffffffffffffffffffffffffffffffffffffffffffffffffffffffff8203611c3e57611c3d611abe565b5b600182019050919050565b7f4e487b7100000000000000000000000000000000000000000000000000000000600052604160045260246000fd5b7f4f776e61626c653a206e6577206f776e657220697320746865207a65726f206160008201527f6464726573730000000000000000000000000000000000000000000000000000602082015250565b6000611cd460268361172f565b9150611cdf82611c78565b604082019050919050565b60006020820190508181036000830152611d0381611cc7565b9050919050565b7f4e487b7100000000000000000000000000000000000000000000000000000000600052603160045260246000fd5b7f4f776e61626c653a2063616c6c6572206973206e6f7420746865206f776e6572600082015250565b6000611d6f60208361172f565b9150611d7a82611d39565b602082019050919050565b60006020820190508181036000830152611d9e81611d62565b905091905056fea264697066735822122075550c967c2526930769dc2e102f24b8c4d36c2ac3369dc3bea6002b2b76e8f864736f6c63430008130033",
  "linkReferences": {},
  "deployedLinkReferences": {}
}