{
  "_format": "hh-sol-artifact-1",
  "contractName": "TicketMarketplace",
  "sourceName": "contracts/TicketMarketplace.sol",
  "abi": [
    {
      "inputs": [
        {
          "internalType": "address",
          "name": "_nftContract",
          "type": "address"
        }
      ],
      "stateMutability": "nonpayable",
      "type": "constructor"
    },
    {
      "anonymous": false,
      "inputs": [
        {
          "indexed": false,
          "internalType": "uint256[]",
          "name": "tokenIds",
          "type": "uint256[]"
        },
        {
          "indexed": false,
          "internalType": "uint256[]",
          "name": "prices",
          "type": "uint256[]"
        },
        {
          "indexed": true,
          "internalType": "address",
          "name": "seller",
          "type": "address"
        },
        {
          "indexed": false,
          "internalType": "enum TicketNFT.EventType[]",
          "name": "eventTypes",
          "type": "uint8[]"
        }
      ],
      "name": "BatchTicketsListed",
      "type": "event"
    },
    {
      "anonymous": false,
      "inputs": [
        {
          "indexed": true,
          "internalType": "uint256",
          "name": "tokenId",
          "type": "uint256"
        },
        {
          "indexed": true,
          "internalType": "address",
          "name": "seller",
          "type": "address"
        }
      ],
      "name": "ListingCancelled",
      "type": "event"
    },
    {
      "anonymous": false,
      "inputs": [
        {
          "indexed": true,
          "internalType": "address",
          "name": "previousOwner",
          "type": "address"
        },
        {
          "indexed": true,
          "internalType": "address",
          "name": "newOwner",
          "type": "address"
        }
      ],
      "name": "OwnershipTransferred",
      "type": "event"
    },
    {
      "anonymous": false,
      "inputs": [
        {
          "indexed": true,
          "internalType": "uint256",
          "name": "tokenId",
          "type": "uint256"
        },
        {
          "indexed": false,
          "internalType": "uint256",
          "name": "price",
          "type": "uint256"
        },
        {
          "indexed": true,
          "internalType": "address",
          "name": "seller",
          "type": "address"
        },
        {
          "indexed": false,
          "internalType": "enum TicketNFT.EventType",
          "name": "eventType",
          "type": "uint8"
        }
      ],
      "name": "TicketListed",
      "type": "event"
    },
    {
      "anonymous": false,
      "inputs": [
        {
          "indexed": true,
          "internalType": "uint256",
          "name": "tokenId",
          "type": "uint256"
        },
        {
          "indexed": false,
          "internalType": "uint256",
          "name": "price",
          "type": "uint256"
        },
        {
          "indexed": true,
          "internalType": "address",
          "name": "seller",
          "type": "address"
        },
        {
          "indexed": true,
          "internalType": "address",
          "name": "buyer",
          "type": "address"
        },
        {
          "indexed": false,
          "internalType": "enum TicketNFT.EventType",
          "name": "eventType",
          "type": "uint8"
        }
      ],
      "name": "TicketSold",
      "type": "event"
    },
    {
      "inputs": [],
      "name": "MAX_BATCH_SIZE",
      "outputs": [
        {
          "internalType": "uint256",
          "name": "",
          "type": "uint256"
        }
      ],
      "stateMutability": "view",
      "type": "function"
    },
    {
      "inputs": [
        {
          "internalType": "uint256[]",
          "name": "tokenIds",
          "type": "uint256[]"
        },
        {
          "internalType": "uint256[]",
          "name": "prices",
          "type": "uint256[]"
        }
      ],
      "name": "batchListTickets",
      "outputs": [],
      "stateMutability": "payable",
      "type": "function"
    },
    {
      "inputs": [
        {
          "internalType": "uint256",
          "name": "tokenId",
          "type": "uint256"
        }
      ],
      "name": "buyTicket",
      "outputs": [],
      "stateMutability": "payable",
      "type": "function"
    },
    {
      "inputs": [
        {
          "internalType": "uint256",
          "name": "tokenId",
          "type": "uint256"
        }
      ],
      "name": "cancelListing",
      "outputs": [],
      "stateMutability": "nonpayable",
      "type": "function"
    },
    {
      "inputs": [],
      "name": "getAllListedTickets",
      "outputs": [
        {
          "internalType": "uint256[]",
          "name": "",
          "type": "uint256[]"
        },
        {
          "internalType": "uint256[]",
          "name": "",
          "type": "uint256[]"
        },
        {
          "internalType": "address[]",
          "name": "",
          "type": "address[]"
        },
        {
          "internalType": "enum TicketNFT.EventType[]",
          "name": "",
          "type": "uint8[]"
        }
      ],
      "stateMutability": "view",
      "type": "function"
    },
    {
      "inputs": [
        {
          "internalType": "uint256",
          "name": "tokenId",
          "type": "uint256"
        },
        {
          "internalType": "uint256",
          "name": "price",
          "type": "uint256"
        }
      ],
      "name": "listTicket",
      "outputs": [],
      "stateMutability": "payable",
      "type": "function"
    },
    {
      "inputs": [
        {
          "internalType": "uint256",
          "name": "",
          "type": "uint256"
        }
      ],
      "name": "listedTokenIds",
      "outputs": [
        {
          "internalType": "uint256",
          "name": "",
          "type": "uint256"
        }
      ],
      "stateMutability": "view",
      "type": "function"
    },
    {
      "inputs": [],
      "name": "listingFee",
      "outputs": [
        {
          "internalType": "uint256",
          "name": "",
          "type": "uint256"
        }
      ],
      "stateMutability": "view",
      "type": "function"
    },
    {
      "inputs": [
        {
          "internalType": "uint256",
          "name": "",
          "type": "uint256"
        }
      ],
      "name": "listings",
      "outputs": [
        {
          "internalType": "uint256",
          "name": "price",
          "type": "uint256"
        },
        {
          "internalType": "address",
          "name": "seller",
          "type": "address"
        },
        {
          "internalType": "enum TicketNFT.EventType",
          "name": "eventType",
          "type": "uint8"
        }
      ],
      "stateMutability": "view",
      "type": "function"
    },
    {
      "inputs": [],
      "name": "nftContract",
      "outputs": [
        {
          "internalType": "contract TicketNFT",
          "name": "",
          "type": "address"
        }
      ],
      "stateMutability": "view",
      "type": "function"
    },
    {
      "inputs": [],
      "name": "owner",
      "outputs": [
        {
          "internalType": "address",
          "name": "",
          "type": "address"
        }
      ],
      "stateMutability": "view",
      "type": "function"
    },
    {
      "inputs": [],
      "name": "renounceOwnership",
      "outputs": [],
      "stateMutability": "nonpayable",
      "type": "function"
    },
    {
      "inputs": [
        {
          "internalType": "uint256",
          "name": "newFee",
          "type": "uint256"
        }
      ],
      "name": "setListingFee",
      "outputs": [],
      "stateMutability": "nonpayable",
      "type": "function"
    },
    {
      "inputs": [
        {
          "internalType": "address",
          "name": "newOwner",
          "type": "address"
        }
      ],
      "name": "transferOwnership",
      "outputs": [],
      "stateMutability": "nonpayable",
      "type": "function"
    },
    {
      "inputs": [],
      "name": "withdrawFees",
      "outputs": [],
      "stateMutability": "nonpayable",
      "type": "function"
    }
  ],
  "bytecode": "0x60a060405266038d7ea4c680006004553480156200001c57600080fd5b5060405162002b0038038062002b008339818101604052810190620000429190620001dd565b60016000819055506200006a6200005e620000a560201b60201c565b620000ad60201b60201c565b8073ffffffffffffffffffffffffffffffffffffffff1660808173ffffffffffffffffffffffffffffffffffffffff1681525050506200020f565b600033905090565b6000600160009054906101000a900473ffffffffffffffffffffffffffffffffffffffff16905081600160006101000a81548173ffffffffffffffffffffffffffffffffffffffff021916908373ffffffffffffffffffffffffffffffffffffffff1602179055508173ffffffffffffffffffffffffffffffffffffffff168173ffffffffffffffffffffffffffffffffffffffff167f8be0079c531659141344cd1fd0a4f28419497f9722a3daafe3b4186f6b6457e060405160405180910390a35050565b600080fd5b600073ffffffffffffffffffffffffffffffffffffffff82169050919050565b6000620001a58262000178565b9050919050565b620001b78162000198565b8114620001c357600080fd5b50565b600081519050620001d781620001ac565b92915050565b600060208284031215620001f657620001f562000173565b5b60006200020684828501620001c6565b91505092915050565b6080516128ab620002556000396000818161049b01528181610a3b01528181610fa90152818161110d01528181611214015281816112cb01526113a901526128ab6000f3fe6080604052600436106100e85760003560e01c8063715018a61161008a578063d080b00011610059578063d080b0001461027f578063d56d229d146102ad578063de74e57b146102d8578063f2fde38b14610317576100e8565b8063715018a6146101d55780638da5cb5b146101ec578063b6feadc814610217578063cfdbf25414610254576100e8565b8063305a905a116100c6578063305a905a1461015b578063476343ee1461017757806367dd74ca1461018e5780636a1b7ecc146101aa576100e8565b80630e7246c1146100ed578063131dbd0914610109578063305a67a814610132575b600080fd5b6101076004803603810190610102919061183f565b610340565b005b34801561011557600080fd5b50610130600480360381019061012b91906118f6565b610653565b005b34801561013e57600080fd5b50610159600480360381019061015491906118f6565b610665565b005b61017560048036038101906101709190611923565b6107c2565b005b34801561018357600080fd5b5061018c610826565b005b6101a860048036038101906101a391906118f6565b610884565b005b3480156101b657600080fd5b506101bf610bfe565b6040516101cc9190611972565b60405180910390f35b3480156101e157600080fd5b506101ea610c04565b005b3480156101f857600080fd5b50610201610c18565b60405161020e91906119ce565b60405180910390f35b34801561022357600080fd5b5061023e600480360381019061023991906118f6565b610c42565b60405161024b9190611972565b60405180910390f35b34801561026057600080fd5b50610269610c66565b6040516102769190611972565b60405180910390f35b34801561028b57600080fd5b50610294610c6b565b6040516102a49493929190611c8b565b60405180910390f35b3480156102b957600080fd5b506102c2610fa7565b6040516102cf9190611d4b565b60405180910390f35b3480156102e457600080fd5b506102ff60048036038101906102fa91906118f6565b610fcb565b60405161030e93929190611d75565b60405180910390f35b34801561032357600080fd5b5061033e60048036038101906103399190611dd8565b611022565b005b6103486110a5565b818190508484905014610390576040517f08c379a000000000000000000000000000000000000000000000000000000000815260040161038790611e62565b60405180910390fd5b6000848490501180156103a7575060648484905011155b6103e6576040517f08c379a00000000000000000000000000000000000000000000000000000000081526004016103dd90611ece565b60405180910390fd5b838390506004546103f79190611f1d565b341015610439576040517f08c379a000000000000000000000000000000000000000000000000000000000815260040161043090611fab565b60405180910390fd5b60008484905067ffffffffffffffff81111561045857610457611fcb565b5b6040519080825280602002602001820160405280156104865781602001602082028036833780820191505090505b50905060005b858590508110156105ed5760007f000000000000000000000000000000000000000000000000000000000000000073ffffffffffffffffffffffffffffffffffffffff166324c141608888858181106104e8576104e7611ffa565b5b905060200201356040518263ffffffff1660e01b815260040161050b9190611972565b600060405180830381865afa158015610528573d6000803e3d6000fd5b505050506040513d6000823e3d601f19601f8201168201806040525081019061055191906121bb565b509250505061059387878481811061056c5761056b611ffa565b5b9050602002013586868581811061058657610585611ffa565b5b90506020020135336110f4565b808383815181106105a7576105a6611ffa565b5b602002602001019060048111156105c1576105c0611b91565b5b908160048111156105d5576105d4611b91565b5b815250505080806105e59061225a565b91505061048c565b503373ffffffffffffffffffffffffffffffffffffffff167ff458d485334f4840443ab71f8582b1ee68ff8ddf0b19e8fa803648b257b4412d868686868660405161063c95949392919061230c565b60405180910390a25061064d6115a5565b50505050565b61065b6115af565b8060048190555050565b61066d6110a5565b3373ffffffffffffffffffffffffffffffffffffffff166002600083815260200190815260200160002060010160009054906101000a900473ffffffffffffffffffffffffffffffffffffffff1673ffffffffffffffffffffffffffffffffffffffff1614610711576040517f08c379a0000000000000000000000000000000000000000000000000000000008152600401610708906123a8565b60405180910390fd5b600260008281526020019081526020016000206000808201600090556001820160006101000a81549073ffffffffffffffffffffffffffffffffffffffff02191690556001820160146101000a81549060ff021916905550506107738161162d565b3373ffffffffffffffffffffffffffffffffffffffff16817f8e25282255ab31897df2b0456bb993ac7f84d376861aefd84901d2d63a7428a260405160405180910390a36107bf6115a5565b50565b6107ca6110a5565b60045434101561080f576040517f08c379a000000000000000000000000000000000000000000000000000000000815260040161080690611fab565b60405180910390fd5b61081a8282336110f4565b6108226115a5565b5050565b61082e6115af565b600047905061083b610c18565b73ffffffffffffffffffffffffffffffffffffffff166108fc829081150290604051600060405180830381858888f19350505050158015610880573d6000803e3d6000fd5b5050565b61088c6110a5565b600060026000838152602001908152602001600020604051806060016040529081600082015481526020016001820160009054906101000a900473ffffffffffffffffffffffffffffffffffffffff1673ffffffffffffffffffffffffffffffffffffffff1673ffffffffffffffffffffffffffffffffffffffff1681526020016001820160149054906101000a900460ff16600481111561093157610930611b91565b5b600481111561094357610942611b91565b5b8152505090506000816000015111610990576040517f08c379a000000000000000000000000000000000000000000000000000000000815260040161098790612414565b60405180910390fd5b80600001513410156109d7576040517f08c379a00000000000000000000000000000000000000000000000000000000081526004016109ce90612480565b60405180910390fd5b600260008381526020019081526020016000206000808201600090556001820160006101000a81549073ffffffffffffffffffffffffffffffffffffffff02191690556001820160146101000a81549060ff02191690555050610a398261162d565b7f000000000000000000000000000000000000000000000000000000000000000073ffffffffffffffffffffffffffffffffffffffff166342842e0e826020015133856040518463ffffffff1660e01b8152600401610a9a939291906124a0565b600060405180830381600087803b158015610ab457600080fd5b505af1158015610ac8573d6000803e3d6000fd5b50505050806020015173ffffffffffffffffffffffffffffffffffffffff166108fc82600001519081150290604051600060405180830381858888f19350505050158015610b1a573d6000803e3d6000fd5b508060000151341115610b7e573373ffffffffffffffffffffffffffffffffffffffff166108fc826000015134610b5191906124d7565b9081150290604051600060405180830381858888f19350505050158015610b7c573d6000803e3d6000fd5b505b3373ffffffffffffffffffffffffffffffffffffffff16816020015173ffffffffffffffffffffffffffffffffffffffff16837f33b6f266fdba4b73fea6fcf7baadd2f07a372489503edf9ba548f0b6f5d54a7a84600001518560400151604051610bea92919061250b565b60405180910390a450610bfb6115a5565b50565b60045481565b610c0c6115af565b610c1660006116f8565b565b6000600160009054906101000a900473ffffffffffffffffffffffffffffffffffffffff16905090565b60038181548110610c5257600080fd5b906000526020600020016000915090505481565b606481565b6060806060806000600380549050905060008167ffffffffffffffff811115610c9757610c96611fcb565b5b604051908082528060200260200182016040528015610cc55781602001602082028036833780820191505090505b50905060008267ffffffffffffffff811115610ce457610ce3611fcb565b5b604051908082528060200260200182016040528015610d125781602001602082028036833780820191505090505b50905060008367ffffffffffffffff811115610d3157610d30611fcb565b5b604051908082528060200260200182016040528015610d5f5781602001602082028036833780820191505090505b50905060008467ffffffffffffffff811115610d7e57610d7d611fcb565b5b604051908082528060200260200182016040528015610dac5781602001602082028036833780820191505090505b50905060005b85811015610f8f57600060038281548110610dd057610dcf611ffa565b5b90600052602060002001549050600060026000838152602001908152602001600020604051806060016040529081600082015481526020016001820160009054906101000a900473ffffffffffffffffffffffffffffffffffffffff1673ffffffffffffffffffffffffffffffffffffffff1673ffffffffffffffffffffffffffffffffffffffff1681526020016001820160149054906101000a900460ff166004811115610e8257610e81611b91565b5b6004811115610e9457610e93611b91565b5b81525050905081878481518110610eae57610ead611ffa565b5b6020026020010181815250508060000151868481518110610ed257610ed1611ffa565b5b6020026020010181815250508060200151858481518110610ef657610ef5611ffa565b5b602002602001019073ffffffffffffffffffffffffffffffffffffffff16908173ffffffffffffffffffffffffffffffffffffffff16815250508060400151848481518110610f4857610f47611ffa565b5b60200260200101906004811115610f6257610f61611b91565b5b90816004811115610f7657610f75611b91565b5b8152505050508080610f879061225a565b915050610db2565b50838383839850985098509850505050505090919293565b7f000000000000000000000000000000000000000000000000000000000000000081565b60026020528060005260406000206000915090508060000154908060010160009054906101000a900473ffffffffffffffffffffffffffffffffffffffff16908060010160149054906101000a900460ff16905083565b61102a6115af565b600073ffffffffffffffffffffffffffffffffffffffff168173ffffffffffffffffffffffffffffffffffffffff1603611099576040517f08c379a0000000000000000000000000000000000000000000000000000000008152600401611090906125a6565b60405180910390fd5b6110a2816116f8565b50565b6002600054036110ea576040517f08c379a00000000000000000000000000000000000000000000000000000000081526004016110e190612612565b60405180910390fd5b6002600081905550565b8073ffffffffffffffffffffffffffffffffffffffff167f000000000000000000000000000000000000000000000000000000000000000073ffffffffffffffffffffffffffffffffffffffff16636352211e856040518263ffffffff1660e01b81526004016111649190611972565b602060405180830381865afa158015611181573d6000803e3d6000fd5b505050506040513d601f19601f820116820180604052508101906111a59190612647565b73ffffffffffffffffffffffffffffffffffffffff16146111fb576040517f08c379a00000000000000000000000000000000000000000000000000000000081526004016111f2906126c0565b60405180910390fd5b3073ffffffffffffffffffffffffffffffffffffffff167f000000000000000000000000000000000000000000000000000000000000000073ffffffffffffffffffffffffffffffffffffffff1663081812fc856040518263ffffffff1660e01b815260040161126b9190611972565b602060405180830381865afa158015611288573d6000803e3d6000fd5b505050506040513d601f19601f820116820180604052508101906112ac9190612647565b73ffffffffffffffffffffffffffffffffffffffff16148061136657507f000000000000000000000000000000000000000000000000000000000000000073ffffffffffffffffffffffffffffffffffffffff1663e985e9c582306040518363ffffffff1660e01b81526004016113249291906126e0565b602060405180830381865afa158015611341573d6000803e3d6000fd5b505050506040513d601f19601f820116820180604052508101906113659190612741565b5b6113a5576040517f08c379a000000000000000000000000000000000000000000000000000000000815260040161139c906127ba565b60405180910390fd5b60007f000000000000000000000000000000000000000000000000000000000000000073ffffffffffffffffffffffffffffffffffffffff166324c14160856040518263ffffffff1660e01b81526004016114009190611972565b600060405180830381865afa15801561141d573d6000803e3d6000fd5b505050506040513d6000823e3d601f19601f8201168201806040525081019061144691906121bb565b509250505060405180606001604052808481526020018373ffffffffffffffffffffffffffffffffffffffff16815260200182600481111561148b5761148a611b91565b5b815250600260008681526020019081526020016000206000820151816000015560208201518160010160006101000a81548173ffffffffffffffffffffffffffffffffffffffff021916908373ffffffffffffffffffffffffffffffffffffffff16021790555060408201518160010160146101000a81548160ff0219169083600481111561151d5761151c611b91565b5b021790555090505060038490806001815401808255809150506001900390600052602060002001600090919091909150558173ffffffffffffffffffffffffffffffffffffffff16847f2b8a4a33d7ddec5e2bf14e6425e667afd10966562294bf32e6a05f81c9adc7e4858460405161159792919061250b565b60405180910390a350505050565b6001600081905550565b6115b76117be565b73ffffffffffffffffffffffffffffffffffffffff166115d5610c18565b73ffffffffffffffffffffffffffffffffffffffff161461162b576040517f08c379a000000000000000000000000000000000000000000000000000000000815260040161162290612826565b60405180910390fd5b565b60005b6003805490508110156116f457816003828154811061165257611651611ffa565b5b9060005260206000200154036116e1576003600160038054905061167691906124d7565b8154811061168757611686611ffa565b5b9060005260206000200154600382815481106116a6576116a5611ffa565b5b906000526020600020018190555060038054806116c6576116c5612846565b5b600190038181906000526020600020016000905590556116f4565b80806116ec9061225a565b915050611630565b5050565b6000600160009054906101000a900473ffffffffffffffffffffffffffffffffffffffff16905081600160006101000a81548173ffffffffffffffffffffffffffffffffffffffff021916908373ffffffffffffffffffffffffffffffffffffffff1602179055508173ffffffffffffffffffffffffffffffffffffffff168173ffffffffffffffffffffffffffffffffffffffff167f8be0079c531659141344cd1fd0a4f28419497f9722a3daafe3b4186f6b6457e060405160405180910390a35050565b600033905090565b6000604051905090565b600080fd5b600080fd5b600080fd5b600080fd5b600080fd5b60008083601f8401126117ff576117fe6117da565b5b8235905067ffffffffffffffff81111561181c5761181b6117df565b5b602083019150836020820283011115611838576118376117e4565b5b9250929050565b60008060008060408587031215611859576118586117d0565b5b600085013567ffffffffffffffff811115611877576118766117d5565b5b611883878288016117e9565b9450945050602085013567ffffffffffffffff8111156118a6576118a56117d5565b5b6118b2878288016117e9565b925092505092959194509250565b6000819050919050565b6118d3816118c0565b81146118de57600080fd5b50565b6000813590506118f0816118ca565b92915050565b60006020828403121561190c5761190b6117d0565b5b600061191a848285016118e1565b91505092915050565b6000806040838503121561193a576119396117d0565b5b6000611948858286016118e1565b9250506020611959858286016118e1565b9150509250929050565b61196c816118c0565b82525050565b60006020820190506119876000830184611963565b92915050565b600073ffffffffffffffffffffffffffffffffffffffff82169050919050565b60006119b88261198d565b9050919050565b6119c8816119ad565b82525050565b60006020820190506119e360008301846119bf565b92915050565b600081519050919050565b600082825260208201905092915050565b6000819050602082019050919050565b611a1e816118c0565b82525050565b6000611a308383611a15565b60208301905092915050565b6000602082019050919050565b6000611a54826119e9565b611a5e81856119f4565b9350611a6983611a05565b8060005b83811015611a9a578151611a818882611a24565b9750611a8c83611a3c565b925050600181019050611a6d565b5085935050505092915050565b600081519050919050565b600082825260208201905092915050565b6000819050602082019050919050565b611adc816119ad565b82525050565b6000611aee8383611ad3565b60208301905092915050565b6000602082019050919050565b6000611b1282611aa7565b611b1c8185611ab2565b9350611b2783611ac3565b8060005b83811015611b58578151611b3f8882611ae2565b9750611b4a83611afa565b925050600181019050611b2b565b5085935050505092915050565b600081519050919050565b600082825260208201905092915050565b6000819050602082019050919050565b7f4e487b7100000000000000000000000000000000000000000000000000000000600052602160045260246000fd5b60058110611bd157611bd0611b91565b5b50565b6000819050611be282611bc0565b919050565b6000611bf282611bd4565b9050919050565b611c0281611be7565b82525050565b6000611c148383611bf9565b60208301905092915050565b6000602082019050919050565b6000611c3882611b65565b611c428185611b70565b9350611c4d83611b81565b8060005b83811015611c7e578151611c658882611c08565b9750611c7083611c20565b925050600181019050611c51565b5085935050505092915050565b60006080820190508181036000830152611ca58187611a49565b90508181036020830152611cb98186611a49565b90508181036040830152611ccd8185611b07565b90508181036060830152611ce18184611c2d565b905095945050505050565b6000819050919050565b6000611d11611d0c611d078461198d565b611cec565b61198d565b9050919050565b6000611d2382611cf6565b9050919050565b6000611d3582611d18565b9050919050565b611d4581611d2a565b82525050565b6000602082019050611d606000830184611d3c565b92915050565b611d6f81611be7565b82525050565b6000606082019050611d8a6000830186611963565b611d9760208301856119bf565b611da46040830184611d66565b949350505050565b611db5816119ad565b8114611dc057600080fd5b50565b600081359050611dd281611dac565b92915050565b600060208284031215611dee57611ded6117d0565b5b6000611dfc84828501611dc3565b91505092915050565b600082825260208201905092915050565b7f417272617973206c656e677468206d69736d6174636800000000000000000000600082015250565b6000611e4c601683611e05565b9150611e5782611e16565b602082019050919050565b60006020820190508181036000830152611e7b81611e3f565b9050919050565b7f496e76616c69642062617463682073697a650000000000000000000000000000600082015250565b6000611eb8601283611e05565b9150611ec382611e82565b602082019050919050565b60006020820190508181036000830152611ee781611eab565b9050919050565b7f4e487b7100000000000000000000000000000000000000000000000000000000600052601160045260246000fd5b6000611f28826118c0565b9150611f33836118c0565b9250828202611f41816118c0565b91508282048414831517611f5857611f57611eee565b5b5092915050565b7f496e73756666696369656e74206c697374696e67206665650000000000000000600082015250565b6000611f95601883611e05565b9150611fa082611f5f565b602082019050919050565b60006020820190508181036000830152611fc481611f88565b9050919050565b7f4e487b7100000000000000000000000000000000000000000000000000000000600052604160045260246000fd5b7f4e487b7100000000000000000000000000000000000000000000000000000000600052603260045260246000fd5b600080fd5b6000601f19601f8301169050919050565b6120488261202e565b810181811067ffffffffffffffff8211171561206757612066611fcb565b5b80604052505050565b600061207a6117c6565b9050612086828261203f565b919050565b600067ffffffffffffffff8211156120a6576120a5611fcb565b5b6120af8261202e565b9050602081019050919050565b60005b838110156120da5780820151818401526020810190506120bf565b60008484015250505050565b60006120f96120f48461208b565b612070565b90508281526020810184848401111561211557612114612029565b5b6121208482856120bc565b509392505050565b600082601f83011261213d5761213c6117da565b5b815161214d8482602086016120e6565b91505092915050565b600067ffffffffffffffff82169050919050565b61217381612156565b811461217e57600080fd5b50565b6000815190506121908161216a565b92915050565b600581106121a357600080fd5b50565b6000815190506121b581612196565b92915050565b600080600080608085870312156121d5576121d46117d0565b5b600085015167ffffffffffffffff8111156121f3576121f26117d5565b5b6121ff87828801612128565b945050602061221087828801612181565b9350506040612221878288016121a6565b925050606085015167ffffffffffffffff811115612242576122416117d5565b5b61224e87828801612128565b91505092959194509250565b6000612265826118c0565b91507fffffffffffffffffffffffffffffffffffffffffffffffffffffffffffffffff820361229757612296611eee565b5b600182019050919050565b600080fd5b82818337505050565b60006122bc83856119f4565b93507f07ffffffffffffffffffffffffffffffffffffffffffffffffffffffffffffff8311156122ef576122ee6122a2565b5b6020830292506123008385846122a7565b82840190509392505050565b600060608201905081810360008301526123278187896122b0565b9050818103602083015261233c8185876122b0565b905081810360408301526123508184611c2d565b90509695505050505050565b7f4e6f74207468652073656c6c6572000000000000000000000000000000000000600082015250565b6000612392600e83611e05565b915061239d8261235c565b602082019050919050565b600060208201905081810360008301526123c181612385565b9050919050565b7f4e6f7420666f722073616c650000000000000000000000000000000000000000600082015250565b60006123fe600c83611e05565b9150612409826123c8565b602082019050919050565b6000602082019050818103600083015261242d816123f1565b9050919050565b7f496e73756666696369656e74207061796d656e74000000000000000000000000600082015250565b600061246a601483611e05565b915061247582612434565b602082019050919050565b600060208201905081810360008301526124998161245d565b9050919050565b60006060820190506124b560008301866119bf565b6124c260208301856119bf565b6124cf6040830184611963565b949350505050565b60006124e2826118c0565b91506124ed836118c0565b925082820390508181111561250557612504611eee565b5b92915050565b60006040820190506125206000830185611963565b61252d6020830184611d66565b9392505050565b7f4f776e61626c653a206e6577206f776e657220697320746865207a65726f206160008201527f6464726573730000000000000000000000000000000000000000000000000000602082015250565b6000612590602683611e05565b915061259b82612534565b604082019050919050565b600060208201905081810360008301526125bf81612583565b9050919050565b7f5265656e7472616e637947756172643a207265656e7472616e742063616c6c00600082015250565b60006125fc601f83611e05565b9150612607826125c6565b602082019050919050565b6000602082019050818103600083015261262b816125ef565b9050919050565b60008151905061264181611dac565b92915050565b60006020828403121561265d5761265c6117d0565b5b600061266b84828501612632565b91505092915050565b7f4e6f7420746865206f776e657200000000000000000000000000000000000000600082015250565b60006126aa600d83611e05565b91506126b582612674565b602082019050919050565b600060208201905081810360008301526126d98161269d565b9050919050565b60006040820190506126f560008301856119bf565b61270260208301846119bf565b9392505050565b60008115159050919050565b61271e81612709565b811461272957600080fd5b50565b60008151905061273b81612715565b92915050565b600060208284031215612757576127566117d0565b5b60006127658482850161272c565b91505092915050565b7f4e6f7420617070726f76656420666f72206d61726b6574706c61636500000000600082015250565b60006127a4601c83611e05565b91506127af8261276e565b602082019050919050565b600060208201905081810360008301526127d381612797565b9050919050565b7f4f776e61626c653a2063616c6c6572206973206e6f7420746865206f776e6572600082015250565b6000612810602083611e05565b915061281b826127da565b602082019050919050565b6000602082019050818103600083015261283f81612803565b9050919050565b7f4e487b7100000000000000000000000000000000000000000000000000000000600052603160045260246000fdfea2646970667358221220e811e083143dda5f67d40b8a21861d6236989c6c6a8a395e6d8d5672ef60079664736f6c63430008130033",
  "linkReferences": {},
  "deployedLinkReferences": {}
}