{
  "_format": "hh-sol-artifact-1",
  "contractName": "TicketMarketplace",
  "sourceName": "contracts/TicketMarketplace.sol",
  "abi": [
    {
      "inputs": [
        {
          "internalType": "address",
          "name": "_nftContract",
          "type": "address"
        },
        {
          "internalType": "address",
          "name": "_eventManager",
          "type": "address"
        }
      ],
      "stateMutability": "nonpayable",
      "type": "constructor"
    },
    {
      "anonymous": false,
      "inputs": [
        {
          "indexed": false,
          "internalType": "uint256[]",
          "name": "tokenIds",
          "type": "uint256[]"
        },
        {
          "indexed": false,
          "internalType": "uint256[]",
          "name": "prices",
          "type": "uint256[]"
        },
        {
          "indexed": true,
          "internalType": "address",
          "name": "seller",
          "type": "address"
        },
        {
          "indexed": false,
          "internalType": "enum TicketNFT.EventType[]",
          "name": "eventTypes",
          "type": "uint8[]"
        },
        {
          "indexed": false,
          "internalType": "uint256[]",
          "name": "eventIds",
          "type": "uint256[]"
        }
      ],
      "name": "BatchTicketsListed",
      "type": "event"
    },
    {
      "anonymous": false,
      "inputs": [
        {
          "indexed": true,
          "internalType": "uint256",
          "name": "tokenId",
          "type": "uint256"
        },
        {
          "indexed": true,
          "internalType": "address",
          "name": "seller",
          "type": "address"
        }
      ],
      "name": "ListingCancelled",
      "type": "event"
    },
    {
      "anonymous": false,
      "inputs": [
        {
          "indexed": true,
          "internalType": "address",
          "name": "previousOwner",
          "type": "address"
        },
        {
          "indexed": true,
          "internalType": "address",
          "name": "newOwner",
          "type": "address"
        }
      ],
      "name": "OwnershipTransferred",
      "type": "event"
    },
    {
      "anonymous": false,
      "inputs": [
        {
          "indexed": true,
          "internalType": "uint256",
          "name": "tokenId",
          "type": "uint256"
        },
        {
          "indexed": false,
          "internalType": "uint256",
          "name": "price",
          "type": "uint256"
        },
        {
          "indexed": true,
          "internalType": "address",
          "name": "seller",
          "type": "address"
        },
        {
          "indexed": false,
          "internalType": "enum TicketNFT.EventType",
          "name": "eventType",
          "type": "uint8"
        },
        {
          "indexed": true,
          "internalType": "uint256",
          "name": "eventId",
          "type": "uint256"
        }
      ],
      "name": "TicketListed",
      "type": "event"
    },
    {
      "anonymous": false,
      "inputs": [
        {
          "indexed": true,
          "internalType": "uint256",
          "name": "tokenId",
          "type": "uint256"
        },
        {
          "indexed": false,
          "internalType": "uint256",
          "name": "price",
          "type": "uint256"
        },
        {
          "indexed": true,
          "internalType": "address",
          "name": "seller",
          "type": "address"
        },
        {
          "indexed": true,
          "internalType": "address",
          "name": "buyer",
          "type": "address"
        },
        {
          "indexed": false,
          "internalType": "enum TicketNFT.EventType",
          "name": "eventType",
          "type": "uint8"
        },
        {
          "indexed": false,
          "internalType": "uint256",
          "name": "eventId",
          "type": "uint256"
        }
      ],
      "name": "TicketSold",
      "type": "event"
    },
    {
      "inputs": [],
      "name": "MAX_BATCH_SIZE",
      "outputs": [
        {
          "internalType": "uint256",
          "name": "",
          "type": "uint256"
        }
      ],
      "stateMutability": "view",
      "type": "function"
    },
    {
      "inputs": [
        {
          "internalType": "uint256[]",
          "name": "tokenIds",
          "type": "uint256[]"
        },
        {
          "internalType": "uint256[]",
          "name": "prices",
          "type": "uint256[]"
        }
      ],
      "name": "batchListTickets",
      "outputs": [],
      "stateMutability": "payable",
      "type": "function"
    },
    {
      "inputs": [
        {
          "internalType": "uint256",
          "name": "tokenId",
          "type": "uint256"
        }
      ],
      "name": "buyTicket",
      "outputs": [],
      "stateMutability": "payable",
      "type": "function"
    },
    {
      "inputs": [
        {
          "internalType": "uint256",
          "name": "tokenId",
          "type": "uint256"
        }
      ],
      "name": "cancelListing",
      "outputs": [],
      "stateMutability": "nonpayable",
      "type": "function"
    },
    {
      "inputs": [],
      "name": "eventManager",
      "outputs": [
        {
          "internalType": "contract EventManager",
          "name": "",
          "type": "address"
        }
      ],
      "stateMutability": "view",
      "type": "function"
    },
    {
      "inputs": [],
      "name": "getAllListedTickets",
      "outputs": [
        {
          "internalType": "uint256[]",
          "name": "",
          "type": "uint256[]"
        },
        {
          "internalType": "uint256[]",
          "name": "",
          "type": "uint256[]"
        },
        {
          "internalType": "address[]",
          "name": "",
          "type": "address[]"
        },
        {
          "internalType": "enum TicketNFT.EventType[]",
          "name": "",
          "type": "uint8[]"
        },
        {
          "internalType": "uint256[]",
          "name": "",
          "type": "uint256[]"
        }
      ],
      "stateMutability": "view",
      "type": "function"
    },
    {
      "inputs": [
        {
          "internalType": "uint256",
          "name": "tokenId",
          "type": "uint256"
        },
        {
          "internalType": "uint256",
          "name": "price",
          "type": "uint256"
        }
      ],
      "name": "listTicket",
      "outputs": [],
      "stateMutability": "payable",
      "type": "function"
    },
    {
      "inputs": [
        {
          "internalType": "uint256",
          "name": "",
          "type": "uint256"
        }
      ],
      "name": "listedTokenIds",
      "outputs": [
        {
          "internalType": "uint256",
          "name": "",
          "type": "uint256"
        }
      ],
      "stateMutability": "view",
      "type": "function"
    },
    {
      "inputs": [],
      "name": "listingFee",
      "outputs": [
        {
          "internalType": "uint256",
          "name": "",
          "type": "uint256"
        }
      ],
      "stateMutability": "view",
      "type": "function"
    },
    {
      "inputs": [
        {
          "internalType": "uint256",
          "name": "",
          "type": "uint256"
        }
      ],
      "name": "listings",
      "outputs": [
        {
          "internalType": "uint256",
          "name": "price",
          "type": "uint256"
        },
        {
          "internalType": "address",
          "name": "seller",
          "type": "address"
        },
        {
          "internalType": "enum TicketNFT.EventType",
          "name": "eventType",
          "type": "uint8"
        },
        {
          "internalType": "uint256",
          "name": "eventId",
          "type": "uint256"
        }
      ],
      "stateMutability": "view",
      "type": "function"
    },
    {
      "inputs": [],
      "name": "nftContract",
      "outputs": [
        {
          "internalType": "contract TicketNFT",
          "name": "",
          "type": "address"
        }
      ],
      "stateMutability": "view",
      "type": "function"
    },
    {
      "inputs": [],
      "name": "owner",
      "outputs": [
        {
          "internalType": "address",
          "name": "",
          "type": "address"
        }
      ],
      "stateMutability": "view",
      "type": "function"
    },
    {
      "inputs": [],
      "name": "renounceOwnership",
      "outputs": [],
      "stateMutability": "nonpayable",
      "type": "function"
    },
    {
      "inputs": [
        {
          "internalType": "address",
          "name": "_eventManager",
          "type": "address"
        }
      ],
      "name": "setEventManager",
      "outputs": [],
      "stateMutability": "nonpayable",
      "type": "function"
    },
    {
      "inputs": [
        {
          "internalType": "uint256",
          "name": "newFee",
          "type": "uint256"
        }
      ],
      "name": "setListingFee",
      "outputs": [],
      "stateMutability": "nonpayable",
      "type": "function"
    },
    {
      "inputs": [
        {
          "internalType": "address",
          "name": "newOwner",
          "type": "address"
        }
      ],
      "name": "transferOwnership",
      "outputs": [],
      "stateMutability": "nonpayable",
      "type": "function"
    },
    {
      "inputs": [],
      "name": "withdrawFees",
      "outputs": [],
      "stateMutability": "nonpayable",
      "type": "function"
    }
  ],
  "bytecode": "0x60a060405266038d7ea4c680006005553480156200001c57600080fd5b50604051620030633803806200306383398181016040528101906200004291906200021f565b60016000819055506200006a6200005e620000e760201b60201c565b620000ef60201b60201c565b8173ffffffffffffffffffffffffffffffffffffffff1660808173ffffffffffffffffffffffffffffffffffffffff168152505080600260006101000a81548173ffffffffffffffffffffffffffffffffffffffff021916908373ffffffffffffffffffffffffffffffffffffffff160217905550505062000266565b600033905090565b6000600160009054906101000a900473ffffffffffffffffffffffffffffffffffffffff16905081600160006101000a81548173ffffffffffffffffffffffffffffffffffffffff021916908373ffffffffffffffffffffffffffffffffffffffff1602179055508173ffffffffffffffffffffffffffffffffffffffff168173ffffffffffffffffffffffffffffffffffffffff167f8be0079c531659141344cd1fd0a4f28419497f9722a3daafe3b4186f6b6457e060405160405180910390a35050565b600080fd5b600073ffffffffffffffffffffffffffffffffffffffff82169050919050565b6000620001e782620001ba565b9050919050565b620001f981620001da565b81146200020557600080fd5b50565b6000815190506200021981620001ee565b92915050565b60008060408385031215620002395762000238620001b5565b5b6000620002498582860162000208565b92505060206200025c8582860162000208565b9150509250929050565b608051612db7620002ac6000396000818161055801528181610c630152818161127f015281816113e9015281816114f0015281816115a701526116860152612db76000f3fe6080604052600436106100fe5760003560e01c8063715018a611610095578063cfdbf25411610064578063cfdbf254146102be578063d080b000146102e9578063d56d229d14610318578063de74e57b14610343578063f2fde38b14610383576100fe565b8063715018a6146102145780638da5cb5b1461022b5780638fd611be14610256578063b6feadc814610281576100fe565b8063476343ee116100d1578063476343ee1461018d578063596fd76e146101a457806367dd74ca146101cd5780636a1b7ecc146101e9576100fe565b80630e7246c114610103578063131dbd091461011f578063305a67a814610148578063305a905a14610171575b600080fd5b61011d60048036038101906101189190611c0b565b6103ac565b005b34801561012b57600080fd5b5061014660048036038101906101419190611cc2565b610736565b005b34801561015457600080fd5b5061016f600480360381019061016a9190611cc2565b610748565b005b61018b60048036038101906101869190611cef565b6108ad565b005b34801561019957600080fd5b506101a2610911565b005b3480156101b057600080fd5b506101cb60048036038101906101c69190611d8d565b61096f565b005b6101e760048036038101906101e29190611cc2565b6109bb565b005b3480156101f557600080fd5b506101fe610e2c565b60405161020b9190611dc9565b60405180910390f35b34801561022057600080fd5b50610229610e32565b005b34801561023757600080fd5b50610240610e46565b60405161024d9190611df3565b60405180910390f35b34801561026257600080fd5b5061026b610e70565b6040516102789190611e6d565b60405180910390f35b34801561028d57600080fd5b506102a860048036038101906102a39190611cc2565b610e96565b6040516102b59190611dc9565b60405180910390f35b3480156102ca57600080fd5b506102d3610eba565b6040516102e09190611dc9565b60405180910390f35b3480156102f557600080fd5b506102fe610ebf565b60405161030f95949392919061212a565b60405180910390f35b34801561032457600080fd5b5061032d61127d565b60405161033a91906121c1565b60405180910390f35b34801561034f57600080fd5b5061036a60048036038101906103659190611cc2565b6112a1565b60405161037a94939291906121eb565b60405180910390f35b34801561038f57600080fd5b506103aa60048036038101906103a59190611d8d565b6112fe565b005b6103b4611381565b8181905084849050146103fc576040517f08c379a00000000000000000000000000000000000000000000000000000000081526004016103f39061228d565b60405180910390fd5b600084849050118015610413575060648484905011155b610452576040517f08c379a0000000000000000000000000000000000000000000000000000000008152600401610449906122f9565b60405180910390fd5b838390506005546104639190612348565b3410156104a5576040517f08c379a000000000000000000000000000000000000000000000000000000000815260040161049c906123d6565b60405180910390fd5b60008484905067ffffffffffffffff8111156104c4576104c36123f6565b5b6040519080825280602002602001820160405280156104f25781602001602082028036833780820191505090505b50905060008585905067ffffffffffffffff811115610514576105136123f6565b5b6040519080825280602002602001820160405280156105425781602001602082028036833780820191505090505b50905060005b868690508110156106cd576000807f000000000000000000000000000000000000000000000000000000000000000073ffffffffffffffffffffffffffffffffffffffff166324c141608a8a868181106105a5576105a4612425565b5b905060200201356040518263ffffffff1660e01b81526004016105c89190611dc9565b600060405180830381865afa1580156105e5573d6000803e3d6000fd5b505050506040513d6000823e3d601f19601f8201168201806040525081019061060e91906125fb565b5093505050915061065289898581811061062b5761062a612425565b5b9050602002013588888681811061064557610644612425565b5b90506020020135336113d0565b8085848151811061066657610665612425565b5b602002602001019060048111156106805761067f612030565b5b9081600481111561069457610693612030565b5b81525050818484815181106106ac576106ab612425565b5b602002602001018181525050505080806106c5906126ae565b915050610548565b503373ffffffffffffffffffffffffffffffffffffffff167f05d0e6e57bc4a9c890ae6de929ed3d06d98e630a8cfe4b28a27567e7b79722d187878787878760405161071e96959493929190612760565b60405180910390a25050610730611971565b50505050565b61073e61197b565b8060058190555050565b610750611381565b3373ffffffffffffffffffffffffffffffffffffffff166003600083815260200190815260200160002060010160009054906101000a900473ffffffffffffffffffffffffffffffffffffffff1673ffffffffffffffffffffffffffffffffffffffff16146107f4576040517f08c379a00000000000000000000000000000000000000000000000000000000081526004016107eb90612811565b60405180910390fd5b600360008281526020019081526020016000206000808201600090556001820160006101000a81549073ffffffffffffffffffffffffffffffffffffffff02191690556001820160146101000a81549060ff02191690556002820160009055505061085e816119f9565b3373ffffffffffffffffffffffffffffffffffffffff16817f8e25282255ab31897df2b0456bb993ac7f84d376861aefd84901d2d63a7428a260405160405180910390a36108aa611971565b50565b6108b5611381565b6005543410156108fa576040517f08c379a00000000000000000000000000000000000000000000000000000000081526004016108f1906123d6565b60405180910390fd5b6109058282336113d0565b61090d611971565b5050565b61091961197b565b6000479050610926610e46565b73ffffffffffffffffffffffffffffffffffffffff166108fc829081150290604051600060405180830381858888f1935050505015801561096b573d6000803e3d6000fd5b5050565b61097761197b565b80600260006101000a81548173ffffffffffffffffffffffffffffffffffffffff021916908373ffffffffffffffffffffffffffffffffffffffff16021790555050565b6109c3611381565b600060036000838152602001908152602001600020604051806080016040529081600082015481526020016001820160009054906101000a900473ffffffffffffffffffffffffffffffffffffffff1673ffffffffffffffffffffffffffffffffffffffff1673ffffffffffffffffffffffffffffffffffffffff1681526020016001820160149054906101000a900460ff166004811115610a6857610a67612030565b5b6004811115610a7a57610a79612030565b5b815260200160028201548152505090506000816000015111610ad1576040517f08c379a0000000000000000000000000000000000000000000000000000000008152600401610ac89061287d565b60405180910390fd5b8060000151341015610b18576040517f08c379a0000000000000000000000000000000000000000000000000000000008152600401610b0f906128e9565b60405180910390fd5b600260009054906101000a900473ffffffffffffffffffffffffffffffffffffffff1673ffffffffffffffffffffffffffffffffffffffff166349287c0b82606001516040518263ffffffff1660e01b8152600401610b779190611dc9565b602060405180830381865afa158015610b94573d6000803e3d6000fd5b505050506040513d601f19601f82011682018060405250810190610bb89190612941565b610bf7576040517f08c379a0000000000000000000000000000000000000000000000000000000008152600401610bee906129ba565b60405180910390fd5b600360008381526020019081526020016000206000808201600090556001820160006101000a81549073ffffffffffffffffffffffffffffffffffffffff02191690556001820160146101000a81549060ff021916905560028201600090555050610c61826119f9565b7f000000000000000000000000000000000000000000000000000000000000000073ffffffffffffffffffffffffffffffffffffffff166342842e0e826020015133856040518463ffffffff1660e01b8152600401610cc2939291906129da565b600060405180830381600087803b158015610cdc57600080fd5b505af1158015610cf0573d6000803e3d6000fd5b50505050806020015173ffffffffffffffffffffffffffffffffffffffff166108fc82600001519081150290604051600060405180830381858888f19350505050158015610d42573d6000803e3d6000fd5b508060000151341115610da6573373ffffffffffffffffffffffffffffffffffffffff166108fc826000015134610d799190612a11565b9081150290604051600060405180830381858888f19350505050158015610da4573d6000803e3d6000fd5b505b3373ffffffffffffffffffffffffffffffffffffffff16816020015173ffffffffffffffffffffffffffffffffffffffff16837fc0e9573f36ecc2c37e5ec8988c85de8dfe0b895ebf9de04f2c234c72634a05f6846000015185604001518660600151604051610e1893929190612a45565b60405180910390a450610e29611971565b50565b60055481565b610e3a61197b565b610e446000611ac4565b565b6000600160009054906101000a900473ffffffffffffffffffffffffffffffffffffffff16905090565b600260009054906101000a900473ffffffffffffffffffffffffffffffffffffffff1681565b60048181548110610ea657600080fd5b906000526020600020016000915090505481565b606481565b60608060608060606000600480549050905060008167ffffffffffffffff811115610eed57610eec6123f6565b5b604051908082528060200260200182016040528015610f1b5781602001602082028036833780820191505090505b50905060008267ffffffffffffffff811115610f3a57610f396123f6565b5b604051908082528060200260200182016040528015610f685781602001602082028036833780820191505090505b50905060008367ffffffffffffffff811115610f8757610f866123f6565b5b604051908082528060200260200182016040528015610fb55781602001602082028036833780820191505090505b50905060008467ffffffffffffffff811115610fd457610fd36123f6565b5b6040519080825280602002602001820160405280156110025781602001602082028036833780820191505090505b50905060008567ffffffffffffffff811115611021576110206123f6565b5b60405190808252806020026020018201604052801561104f5781602001602082028036833780820191505090505b50905060005b868110156112605760006004828154811061107357611072612425565b5b90600052602060002001549050600060036000838152602001908152602001600020604051806080016040529081600082015481526020016001820160009054906101000a900473ffffffffffffffffffffffffffffffffffffffff1673ffffffffffffffffffffffffffffffffffffffff1673ffffffffffffffffffffffffffffffffffffffff1681526020016001820160149054906101000a900460ff16600481111561112557611124612030565b5b600481111561113757611136612030565b5b815260200160028201548152505090508188848151811061115b5761115a612425565b5b602002602001018181525050806000015187848151811061117f5761117e612425565b5b60200260200101818152505080602001518684815181106111a3576111a2612425565b5b602002602001019073ffffffffffffffffffffffffffffffffffffffff16908173ffffffffffffffffffffffffffffffffffffffff168152505080604001518584815181106111f5576111f4612425565b5b6020026020010190600481111561120f5761120e612030565b5b9081600481111561122357611222612030565b5b81525050806060015184848151811061123f5761123e612425565b5b60200260200101818152505050508080611258906126ae565b915050611055565b5084848484849a509a509a509a509a505050505050509091929394565b7f000000000000000000000000000000000000000000000000000000000000000081565b60036020528060005260406000206000915090508060000154908060010160009054906101000a900473ffffffffffffffffffffffffffffffffffffffff16908060010160149054906101000a900460ff16908060020154905084565b61130661197b565b600073ffffffffffffffffffffffffffffffffffffffff168173ffffffffffffffffffffffffffffffffffffffff1603611375576040517f08c379a000000000000000000000000000000000000000000000000000000000815260040161136c90612aee565b60405180910390fd5b61137e81611ac4565b50565b6002600054036113c6576040517f08c379a00000000000000000000000000000000000000000000000000000000081526004016113bd90612b5a565b60405180910390fd5b6002600081905550565b8073ffffffffffffffffffffffffffffffffffffffff167f000000000000000000000000000000000000000000000000000000000000000073ffffffffffffffffffffffffffffffffffffffff16636352211e856040518263ffffffff1660e01b81526004016114409190611dc9565b602060405180830381865afa15801561145d573d6000803e3d6000fd5b505050506040513d601f19601f820116820180604052508101906114819190612b8f565b73ffffffffffffffffffffffffffffffffffffffff16146114d7576040517f08c379a00000000000000000000000000000000000000000000000000000000081526004016114ce90612c08565b60405180910390fd5b3073ffffffffffffffffffffffffffffffffffffffff167f000000000000000000000000000000000000000000000000000000000000000073ffffffffffffffffffffffffffffffffffffffff1663081812fc856040518263ffffffff1660e01b81526004016115479190611dc9565b602060405180830381865afa158015611564573d6000803e3d6000fd5b505050506040513d601f19601f820116820180604052508101906115889190612b8f565b73ffffffffffffffffffffffffffffffffffffffff16148061164257507f000000000000000000000000000000000000000000000000000000000000000073ffffffffffffffffffffffffffffffffffffffff1663e985e9c582306040518363ffffffff1660e01b8152600401611600929190612c28565b602060405180830381865afa15801561161d573d6000803e3d6000fd5b505050506040513d601f19601f820116820180604052508101906116419190612941565b5b611681576040517f08c379a000000000000000000000000000000000000000000000000000000000815260040161167890612c9d565b60405180910390fd5b6000807f000000000000000000000000000000000000000000000000000000000000000073ffffffffffffffffffffffffffffffffffffffff166324c14160866040518263ffffffff1660e01b81526004016116dd9190611dc9565b600060405180830381865afa1580156116fa573d6000803e3d6000fd5b505050506040513d6000823e3d601f19601f8201168201806040525081019061172391906125fb565b50935050509150600260009054906101000a900473ffffffffffffffffffffffffffffffffffffffff1673ffffffffffffffffffffffffffffffffffffffff166349287c0b836040518263ffffffff1660e01b81526004016117859190611dc9565b602060405180830381865afa1580156117a2573d6000803e3d6000fd5b505050506040513d601f19601f820116820180604052508101906117c69190612941565b611805576040517f08c379a00000000000000000000000000000000000000000000000000000000081526004016117fc906129ba565b60405180910390fd5b60405180608001604052808581526020018473ffffffffffffffffffffffffffffffffffffffff16815260200182600481111561184557611844612030565b5b815260200183815250600360008781526020019081526020016000206000820151816000015560208201518160010160006101000a81548173ffffffffffffffffffffffffffffffffffffffff021916908373ffffffffffffffffffffffffffffffffffffffff16021790555060408201518160010160146101000a81548160ff021916908360048111156118dd576118dc612030565b5b0217905550606082015181600201559050506004859080600181540180825580915050600190039060005260206000200160009091909190915055818373ffffffffffffffffffffffffffffffffffffffff16867f8c6b70f6acd2645744bcfbf428127955155d192bc0a6d2e9638d2cda32d3b6cb8785604051611962929190612cbd565b60405180910390a45050505050565b6001600081905550565b611983611b8a565b73ffffffffffffffffffffffffffffffffffffffff166119a1610e46565b73ffffffffffffffffffffffffffffffffffffffff16146119f7576040517f08c379a00000000000000000000000000000000000000000000000000000000081526004016119ee90612d32565b60405180910390fd5b565b60005b600480549050811015611ac0578160048281548110611a1e57611a1d612425565b5b906000526020600020015403611aad5760046001600480549050611a429190612a11565b81548110611a5357611a52612425565b5b906000526020600020015460048281548110611a7257611a71612425565b5b90600052602060002001819055506004805480611a9257611a91612d52565b5b60019003818190600052602060002001600090559055611ac0565b8080611ab8906126ae565b9150506119fc565b5050565b6000600160009054906101000a900473ffffffffffffffffffffffffffffffffffffffff16905081600160006101000a81548173ffffffffffffffffffffffffffffffffffffffff021916908373ffffffffffffffffffffffffffffffffffffffff1602179055508173ffffffffffffffffffffffffffffffffffffffff168173ffffffffffffffffffffffffffffffffffffffff167f8be0079c531659141344cd1fd0a4f28419497f9722a3daafe3b4186f6b6457e060405160405180910390a35050565b600033905090565b6000604051905090565b600080fd5b600080fd5b600080fd5b600080fd5b600080fd5b60008083601f840112611bcb57611bca611ba6565b5b8235905067ffffffffffffffff811115611be857611be7611bab565b5b602083019150836020820283011115611c0457611c03611bb0565b5b9250929050565b60008060008060408587031215611c2557611c24611b9c565b5b600085013567ffffffffffffffff811115611c4357611c42611ba1565b5b611c4f87828801611bb5565b9450945050602085013567ffffffffffffffff811115611c7257611c71611ba1565b5b611c7e87828801611bb5565b925092505092959194509250565b6000819050919050565b611c9f81611c8c565b8114611caa57600080fd5b50565b600081359050611cbc81611c96565b92915050565b600060208284031215611cd857611cd7611b9c565b5b6000611ce684828501611cad565b91505092915050565b60008060408385031215611d0657611d05611b9c565b5b6000611d1485828601611cad565b9250506020611d2585828601611cad565b9150509250929050565b600073ffffffffffffffffffffffffffffffffffffffff82169050919050565b6000611d5a82611d2f565b9050919050565b611d6a81611d4f565b8114611d7557600080fd5b50565b600081359050611d8781611d61565b92915050565b600060208284031215611da357611da2611b9c565b5b6000611db184828501611d78565b91505092915050565b611dc381611c8c565b82525050565b6000602082019050611dde6000830184611dba565b92915050565b611ded81611d4f565b82525050565b6000602082019050611e086000830184611de4565b92915050565b6000819050919050565b6000611e33611e2e611e2984611d2f565b611e0e565b611d2f565b9050919050565b6000611e4582611e18565b9050919050565b6000611e5782611e3a565b9050919050565b611e6781611e4c565b82525050565b6000602082019050611e826000830184611e5e565b92915050565b600081519050919050565b600082825260208201905092915050565b6000819050602082019050919050565b611ebd81611c8c565b82525050565b6000611ecf8383611eb4565b60208301905092915050565b6000602082019050919050565b6000611ef382611e88565b611efd8185611e93565b9350611f0883611ea4565b8060005b83811015611f39578151611f208882611ec3565b9750611f2b83611edb565b925050600181019050611f0c565b5085935050505092915050565b600081519050919050565b600082825260208201905092915050565b6000819050602082019050919050565b611f7b81611d4f565b82525050565b6000611f8d8383611f72565b60208301905092915050565b6000602082019050919050565b6000611fb182611f46565b611fbb8185611f51565b9350611fc683611f62565b8060005b83811015611ff7578151611fde8882611f81565b9750611fe983611f99565b925050600181019050611fca565b5085935050505092915050565b600081519050919050565b600082825260208201905092915050565b6000819050602082019050919050565b7f4e487b7100000000000000000000000000000000000000000000000000000000600052602160045260246000fd5b600581106120705761206f612030565b5b50565b60008190506120818261205f565b919050565b600061209182612073565b9050919050565b6120a181612086565b82525050565b60006120b38383612098565b60208301905092915050565b6000602082019050919050565b60006120d782612004565b6120e1818561200f565b93506120ec83612020565b8060005b8381101561211d57815161210488826120a7565b975061210f836120bf565b9250506001810190506120f0565b5085935050505092915050565b600060a08201905081810360008301526121448188611ee8565b905081810360208301526121588187611ee8565b9050818103604083015261216c8186611fa6565b9050818103606083015261218081856120cc565b905081810360808301526121948184611ee8565b90509695505050505050565b60006121ab82611e3a565b9050919050565b6121bb816121a0565b82525050565b60006020820190506121d660008301846121b2565b92915050565b6121e581612086565b82525050565b60006080820190506122006000830187611dba565b61220d6020830186611de4565b61221a60408301856121dc565b6122276060830184611dba565b95945050505050565b600082825260208201905092915050565b7f417272617973206c656e677468206d69736d6174636800000000000000000000600082015250565b6000612277601683612230565b915061228282612241565b602082019050919050565b600060208201905081810360008301526122a68161226a565b9050919050565b7f496e76616c69642062617463682073697a650000000000000000000000000000600082015250565b60006122e3601283612230565b91506122ee826122ad565b602082019050919050565b60006020820190508181036000830152612312816122d6565b9050919050565b7f4e487b7100000000000000000000000000000000000000000000000000000000600052601160045260246000fd5b600061235382611c8c565b915061235e83611c8c565b925082820261236c81611c8c565b9150828204841483151761238357612382612319565b5b5092915050565b7f496e73756666696369656e74206c697374696e67206665650000000000000000600082015250565b60006123c0601883612230565b91506123cb8261238a565b602082019050919050565b600060208201905081810360008301526123ef816123b3565b9050919050565b7f4e487b7100000000000000000000000000000000000000000000000000000000600052604160045260246000fd5b7f4e487b7100000000000000000000000000000000000000000000000000000000600052603260045260246000fd5b60008151905061246381611c96565b92915050565b600080fd5b6000601f19601f8301169050919050565b6124888261246e565b810181811067ffffffffffffffff821117156124a7576124a66123f6565b5b80604052505050565b60006124ba611b92565b90506124c6828261247f565b919050565b600067ffffffffffffffff8211156124e6576124e56123f6565b5b6124ef8261246e565b9050602081019050919050565b60005b8381101561251a5780820151818401526020810190506124ff565b60008484015250505050565b6000612539612534846124cb565b6124b0565b90508281526020810184848401111561255557612554612469565b5b6125608482856124fc565b509392505050565b600082601f83011261257d5761257c611ba6565b5b815161258d848260208601612526565b91505092915050565b600067ffffffffffffffff82169050919050565b6125b381612596565b81146125be57600080fd5b50565b6000815190506125d0816125aa565b92915050565b600581106125e357600080fd5b50565b6000815190506125f5816125d6565b92915050565b600080600080600060a0868803121561261757612616611b9c565b5b600061262588828901612454565b955050602086015167ffffffffffffffff81111561264657612645611ba1565b5b61265288828901612568565b9450506040612663888289016125c1565b9350506060612674888289016125e6565b925050608086015167ffffffffffffffff81111561269557612694611ba1565b5b6126a188828901612568565b9150509295509295909350565b60006126b982611c8c565b91507fffffffffffffffffffffffffffffffffffffffffffffffffffffffffffffffff82036126eb576126ea612319565b5b600182019050919050565b600080fd5b82818337505050565b60006127108385611e93565b93507f07ffffffffffffffffffffffffffffffffffffffffffffffffffffffffffffff831115612743576127426126f6565b5b6020830292506127548385846126fb565b82840190509392505050565b6000608082019050818103600083015261277b81888a612704565b90508181036020830152612790818688612704565b905081810360408301526127a481856120cc565b905081810360608301526127b88184611ee8565b9050979650505050505050565b7f4e6f74207468652073656c6c6572000000000000000000000000000000000000600082015250565b60006127fb600e83612230565b9150612806826127c5565b602082019050919050565b6000602082019050818103600083015261282a816127ee565b9050919050565b7f4e6f7420666f722073616c650000000000000000000000000000000000000000600082015250565b6000612867600c83612230565b915061287282612831565b602082019050919050565b600060208201905081810360008301526128968161285a565b9050919050565b7f496e73756666696369656e74207061796d656e74000000000000000000000000600082015250565b60006128d3601483612230565b91506128de8261289d565b602082019050919050565b60006020820190508181036000830152612902816128c6565b9050919050565b60008115159050919050565b61291e81612909565b811461292957600080fd5b50565b60008151905061293b81612915565b92915050565b60006020828403121561295757612956611b9c565b5b60006129658482850161292c565b91505092915050565b7f4576656e74206973206e6f206c6f6e6765722076616c69640000000000000000600082015250565b60006129a4601883612230565b91506129af8261296e565b602082019050919050565b600060208201905081810360008301526129d381612997565b9050919050565b60006060820190506129ef6000830186611de4565b6129fc6020830185611de4565b612a096040830184611dba565b949350505050565b6000612a1c82611c8c565b9150612a2783611c8c565b9250828203905081811115612a3f57612a3e612319565b5b92915050565b6000606082019050612a5a6000830186611dba565b612a6760208301856121dc565b612a746040830184611dba565b949350505050565b7f4f776e61626c653a206e6577206f776e657220697320746865207a65726f206160008201527f6464726573730000000000000000000000000000000000000000000000000000602082015250565b6000612ad8602683612230565b9150612ae382612a7c565b604082019050919050565b60006020820190508181036000830152612b0781612acb565b9050919050565b7f5265656e7472616e637947756172643a207265656e7472616e742063616c6c00600082015250565b6000612b44601f83612230565b9150612b4f82612b0e565b602082019050919050565b60006020820190508181036000830152612b7381612b37565b9050919050565b600081519050612b8981611d61565b92915050565b600060208284031215612ba557612ba4611b9c565b5b6000612bb384828501612b7a565b91505092915050565b7f4e6f7420746865206f776e657200000000000000000000000000000000000000600082015250565b6000612bf2600d83612230565b9150612bfd82612bbc565b602082019050919050565b60006020820190508181036000830152612c2181612be5565b9050919050565b6000604082019050612c3d6000830185611de4565b612c4a6020830184611de4565b9392505050565b7f4e6f7420617070726f76656420666f72206d61726b6574706c61636500000000600082015250565b6000612c87601c83612230565b9150612c9282612c51565b602082019050919050565b60006020820190508181036000830152612cb681612c7a565b9050919050565b6000604082019050612cd26000830185611dba565b612cdf60208301846121dc565b9392505050565b7f4f776e61626c653a2063616c6c6572206973206e6f7420746865206f776e6572600082015250565b6000612d1c602083612230565b9150612d2782612ce6565b602082019050919050565b60006020820190508181036000830152612d4b81612d0f565b9050919050565b7f4e487b7100000000000000000000000000000000000000000000000000000000600052603160045260246000fdfea2646970667358221220e505b3b43ec76484f9ac5ffcaeef19c81cbb3b864e1ad0c19abb8e51b604e52564736f6c63430008130033",
  "linkReferences": {},
  "deployedLinkReferences": {}
}