{
  "_format": "hh-sol-artifact-1",
  "contractName": "EventManager",
  "sourceName": "contracts/EventManager.sol",
  "abi": [
    {
      "inputs": [],
      "stateMutability": "nonpayable",
      "type": "constructor"
    },
    {
      "anonymous": false,
      "inputs": [
        {
          "indexed": true,
          "internalType": "uint256",
          "name": "eventId",
          "type": "uint256"
        }
      ],
      "name": "EventCancelled",
      "type": "event"
    },
    {
      "anonymous": false,
      "inputs": [
        {
          "indexed": true,
          "internalType": "uint256",
          "name": "eventId",
          "type": "uint256"
        },
        {
          "indexed": false,
          "internalType": "string",
          "name": "name",
          "type": "string"
        },
        {
          "indexed": false,
          "internalType": "uint256",
          "name": "date",
          "type": "uint256"
        },
        {
          "indexed": false,
          "internalType": "string",
          "name": "venue",
          "type": "string"
        },
        {
          "indexed": false,
          "internalType": "uint256",
          "name": "capacity",
          "type": "uint256"
        },
        {
          "indexed": false,
          "internalType": "address",
          "name": "organizer",
          "type": "address"
        }
      ],
      "name": "EventCreated",
      "type": "event"
    },
    {
      "anonymous": false,
      "inputs": [
        {
          "indexed": true,
          "internalType": "uint256",
          "name": "eventId",
          "type": "uint256"
        },
        {
          "indexed": false,
          "internalType": "string",
          "name": "name",
          "type": "string"
        },
        {
          "indexed": false,
          "internalType": "uint256",
          "name": "date",
          "type": "uint256"
        },
        {
          "indexed": false,
          "internalType": "string",
          "name": "venue",
          "type": "string"
        },
        {
          "indexed": false,
          "internalType": "uint256",
          "name": "capacity",
          "type": "uint256"
        }
      ],
      "name": "EventUpdated",
      "type": "event"
    },
    {
      "anonymous": false,
      "inputs": [
        {
          "indexed": true,
          "internalType": "address",
          "name": "previousOwner",
          "type": "address"
        },
        {
          "indexed": true,
          "internalType": "address",
          "name": "newOwner",
          "type": "address"
        }
      ],
      "name": "OwnershipTransferred",
      "type": "event"
    },
    {
      "inputs": [
        {
          "internalType": "uint256",
          "name": "_eventId",
          "type": "uint256"
        }
      ],
      "name": "cancelEvent",
      "outputs": [],
      "stateMutability": "nonpayable",
      "type": "function"
    },
    {
      "inputs": [
        {
          "internalType": "string",
          "name": "_name",
          "type": "string"
        },
        {
          "internalType": "uint256",
          "name": "_date",
          "type": "uint256"
        },
        {
          "internalType": "string",
          "name": "_venue",
          "type": "string"
        },
        {
          "internalType": "uint256",
          "name": "_capacity",
          "type": "uint256"
        }
      ],
      "name": "createEvent",
      "outputs": [
        {
          "internalType": "uint256",
          "name": "",
          "type": "uint256"
        }
      ],
      "stateMutability": "nonpayable",
      "type": "function"
    },
    {
      "inputs": [],
      "name": "eventCount",
      "outputs": [
        {
          "internalType": "uint256",
          "name": "",
          "type": "uint256"
        }
      ],
      "stateMutability": "view",
      "type": "function"
    },
    {
      "inputs": [
        {
          "internalType": "uint256",
          "name": "",
          "type": "uint256"
        }
      ],
      "name": "events",
      "outputs": [
        {
          "internalType": "uint256",
          "name": "id",
          "type": "uint256"
        },
        {
          "internalType": "string",
          "name": "name",
          "type": "string"
        },
        {
          "internalType": "uint256",
          "name": "date",
          "type": "uint256"
        },
        {
          "internalType": "string",
          "name": "venue",
          "type": "string"
        },
        {
          "internalType": "uint256",
          "name": "capacity",
          "type": "uint256"
        },
        {
          "internalType": "bool",
          "name": "isActive",
          "type": "bool"
        },
        {
          "internalType": "address",
          "name": "organizer",
          "type": "address"
        }
      ],
      "stateMutability": "view",
      "type": "function"
    },
    {
      "inputs": [],
      "name": "getActiveEvents",
      "outputs": [
        {
          "internalType": "uint256[]",
          "name": "",
          "type": "uint256[]"
        }
      ],
      "stateMutability": "view",
      "type": "function"
    },
    {
      "inputs": [
        {
          "internalType": "uint256",
          "name": "_eventId",
          "type": "uint256"
        }
      ],
      "name": "getEvent",
      "outputs": [
        {
          "internalType": "uint256",
          "name": "id",
          "type": "uint256"
        },
        {
          "internalType": "string",
          "name": "name",
          "type": "string"
        },
        {
          "internalType": "uint256",
          "name": "date",
          "type": "uint256"
        },
        {
          "internalType": "string",
          "name": "venue",
          "type": "string"
        },
        {
          "internalType": "uint256",
          "name": "capacity",
          "type": "uint256"
        },
        {
          "internalType": "bool",
          "name": "isActive",
          "type": "bool"
        },
        {
          "internalType": "address",
          "name": "organizer",
          "type": "address"
        }
      ],
      "stateMutability": "view",
      "type": "function"
    },
    {
      "inputs": [
        {
          "internalType": "uint256",
          "name": "_eventId",
          "type": "uint256"
        }
      ],
      "name": "isValidEvent",
      "outputs": [
        {
          "internalType": "bool",
          "name": "",
          "type": "bool"
        }
      ],
      "stateMutability": "view",
      "type": "function"
    },
    {
      "inputs": [],
      "name": "owner",
      "outputs": [
        {
          "internalType": "address",
          "name": "",
          "type": "address"
        }
      ],
      "stateMutability": "view",
      "type": "function"
    },
    {
      "inputs": [],
      "name": "renounceOwnership",
      "outputs": [],
      "stateMutability": "nonpayable",
      "type": "function"
    },
    {
      "inputs": [
        {
          "internalType": "address",
          "name": "newOwner",
          "type": "address"
        }
      ],
      "name": "transferOwnership",
      "outputs": [],
      "stateMutability": "nonpayable",
      "type": "function"
    },
    {
      "inputs": [
        {
          "internalType": "uint256",
          "name": "_eventId",
          "type": "uint256"
        },
        {
          "internalType": "string",
          "name": "_name",
          "type": "string"
        },
        {
          "internalType": "uint256",
          "name": "_date",
          "type": "uint256"
        },
        {
          "internalType": "string",
          "name": "_venue",
          "type": "string"
        },
        {
          "internalType": "uint256",
          "name": "_capacity",
          "type": "uint256"
        }
      ],
      "name": "updateEvent",
      "outputs": [],
      "stateMutability": "nonpayable",
      "type": "function"
    }
  ],
  "bytecode": "0x608060405234801561001057600080fd5b5061002d61002261004160201b60201c565b61004960201b60201c565b60018081905550600060038190555061010d565b600033905090565b60008060009054906101000a900473ffffffffffffffffffffffffffffffffffffffff169050816000806101000a81548173ffffffffffffffffffffffffffffffffffffffff021916908373ffffffffffffffffffffffffffffffffffffffff1602179055508173ffffffffffffffffffffffffffffffffffffffff168173ffffffffffffffffffffffffffffffffffffffff167f8be0079c531659141344cd1fd0a4f28419497f9722a3daafe3b4186f6b6457e060405160405180910390a35050565b611f4e8061011c6000396000f3fe608060405234801561001057600080fd5b50600436106100a95760003560e01c80636d1884e0116100715780636d1884e01461016a578063715018a6146101a057806371be2e4a146101aa5780637f42e845146101c85780638da5cb5b146101f8578063f2fde38b14610216576100a9565b80630b791430146100ae5780633612280f146100e45780633971eeff146101025780633f69babd1461011e57806349287c0b1461013a575b600080fd5b6100c860048036038101906100c39190610fee565b610232565b6040516100db9796959493929190611116565b60405180910390f35b6100ec6103b1565b6040516100f99190611251565b60405180910390f35b61011c600480360381019061011791906113a8565b61048a565b005b61013860048036038101906101339190610fee565b6106e6565b005b610154600480360381019061014f9190610fee565b61088f565b604051610161919061145b565b60405180910390f35b610184600480360381019061017f9190610fee565b6108ef565b6040516101979796959493929190611116565b60405180910390f35b6101a8610ae3565b005b6101b2610af7565b6040516101bf9190611476565b60405180910390f35b6101e260048036038101906101dd9190611491565b610afd565b6040516101ef9190611476565b60405180910390f35b610200610d56565b60405161020d9190611530565b60405180910390f35b610230600480360381019061022b9190611577565b610d7f565b005b600260205280600052604060002060009150905080600001549080600101805461025b906115d3565b80601f0160208091040260200160405190810160405280929190818152602001828054610287906115d3565b80156102d45780601f106102a9576101008083540402835291602001916102d4565b820191906000526020600020905b8154815290600101906020018083116102b757829003601f168201915b5050505050908060020154908060030180546102ef906115d3565b80601f016020809104026020016040519081016040528092919081815260200182805461031b906115d3565b80156103685780601f1061033d57610100808354040283529160200191610368565b820191906000526020600020905b81548152906001019060200180831161034b57829003601f168201915b5050505050908060040154908060050160009054906101000a900460ff16908060050160019054906101000a900473ffffffffffffffffffffffffffffffffffffffff16905087565b6060600060035467ffffffffffffffff8111156103d1576103d061127d565b5b6040519080825280602002602001820160405280156103ff5781602001602082028036833780820191505090505b509050600080600190505b600354811161047e576002600082815260200190815260200160002060050160009054906101000a900460ff161561046b57808383815181106104505761044f611604565b5b602002602001018181525050818061046790611662565b9250505b808061047690611662565b91505061040a565b50808252819250505090565b610492610e02565b6000851180156104a457506003548511155b6104e3576040517f08c379a00000000000000000000000000000000000000000000000000000000081526004016104da906116f6565b60405180910390fd5b60006002600087815260200190815260200160002090503373ffffffffffffffffffffffffffffffffffffffff168160050160019054906101000a900473ffffffffffffffffffffffffffffffffffffffff1673ffffffffffffffffffffffffffffffffffffffff161461058c576040517f08c379a000000000000000000000000000000000000000000000000000000000815260040161058390611788565b60405180910390fd5b8060050160009054906101000a900460ff166105dd576040517f08c379a00000000000000000000000000000000000000000000000000000000081526004016105d4906117f4565b60405180910390fd5b42841161061f576040517f08c379a000000000000000000000000000000000000000000000000000000000815260040161061690611860565b60405180910390fd5b60008211610662576040517f08c379a0000000000000000000000000000000000000000000000000000000008152600401610659906118f2565b60405180910390fd5b848160010190816106739190611abe565b508381600201819055508281600301908161068e9190611abe565b50818160040181905550857f3add0388b24a67ad5f3a3e5e4c90d9685c89a24d75355d29dfca41f9ffbbe0ee868686866040516106ce9493929190611b90565b60405180910390a2506106df610e51565b5050505050565b6106ee610e02565b60008111801561070057506003548111155b61073f576040517f08c379a0000000000000000000000000000000000000000000000000000000008152600401610736906116f6565b60405180910390fd5b60006002600083815260200190815260200160002090503373ffffffffffffffffffffffffffffffffffffffff168160050160019054906101000a900473ffffffffffffffffffffffffffffffffffffffff1673ffffffffffffffffffffffffffffffffffffffff16146107e8576040517f08c379a00000000000000000000000000000000000000000000000000000000081526004016107df90611c55565b60405180910390fd5b8060050160009054906101000a900460ff16610839576040517f08c379a000000000000000000000000000000000000000000000000000000000815260040161083090611cc1565b60405180910390fd5b60008160050160006101000a81548160ff021916908315150217905550817fdc3cb569b066460f4a22dffa05317bdcce5d3826382ed49a21f13e5fa2063d3960405160405180910390a25061088c610e51565b50565b6000808214806108a0575060035482115b156108ae57600090506108ea565b60006002600084815260200190815260200160002090508060050160009054906101000a900460ff1680156108e65750428160020154115b9150505b919050565b60006060600060606000806000808811801561090d57506003548811155b61094c576040517f08c379a0000000000000000000000000000000000000000000000000000000008152600401610943906116f6565b60405180910390fd5b6000600260008a8152602001908152602001600020905080600001548160010182600201548360030184600401548560050160009054906101000a900460ff168660050160019054906101000a900473ffffffffffffffffffffffffffffffffffffffff168580546109bd906115d3565b80601f01602080910402602001604051908101604052809291908181526020018280546109e9906115d3565b8015610a365780601f10610a0b57610100808354040283529160200191610a36565b820191906000526020600020905b815481529060010190602001808311610a1957829003601f168201915b50505050509550838054610a49906115d3565b80601f0160208091040260200160405190810160405280929190818152602001828054610a75906115d3565b8015610ac25780601f10610a9757610100808354040283529160200191610ac2565b820191906000526020600020905b815481529060010190602001808311610aa557829003601f168201915b50505050509350975097509750975097509750975050919395979092949650565b610aeb610e5a565b610af56000610ed8565b565b60035481565b6000610b07610e02565b6000855111610b4b576040517f08c379a0000000000000000000000000000000000000000000000000000000008152600401610b4290611d2d565b60405180910390fd5b428411610b8d576040517f08c379a0000000000000000000000000000000000000000000000000000000008152600401610b8490611860565b60405180910390fd5b60008211610bd0576040517f08c379a0000000000000000000000000000000000000000000000000000000008152600401610bc7906118f2565b60405180910390fd5b60036000815480929190610be390611662565b91905055506040518060e0016040528060035481526020018681526020018581526020018481526020018381526020016001151581526020013373ffffffffffffffffffffffffffffffffffffffff16815250600260006003548152602001908152602001600020600082015181600001556020820151816001019081610c6a9190611abe565b50604082015181600201556060820151816003019081610c8a9190611abe565b506080820151816004015560a08201518160050160006101000a81548160ff02191690831515021790555060c08201518160050160016101000a81548173ffffffffffffffffffffffffffffffffffffffff021916908373ffffffffffffffffffffffffffffffffffffffff1602179055509050506003547f979fb8f5e06f17ba953e529a270755f94dba6d104bd4437930e9b6de846444428686868633604051610d39959493929190611d4d565b60405180910390a26003549050610d4e610e51565b949350505050565b60008060009054906101000a900473ffffffffffffffffffffffffffffffffffffffff16905090565b610d87610e5a565b600073ffffffffffffffffffffffffffffffffffffffff168173ffffffffffffffffffffffffffffffffffffffff1603610df6576040517f08c379a0000000000000000000000000000000000000000000000000000000008152600401610ded90611e20565b60405180910390fd5b610dff81610ed8565b50565b600260015403610e47576040517f08c379a0000000000000000000000000000000000000000000000000000000008152600401610e3e90611e8c565b60405180910390fd5b6002600181905550565b60018081905550565b610e62610f9c565b73ffffffffffffffffffffffffffffffffffffffff16610e80610d56565b73ffffffffffffffffffffffffffffffffffffffff1614610ed6576040517f08c379a0000000000000000000000000000000000000000000000000000000008152600401610ecd90611ef8565b60405180910390fd5b565b60008060009054906101000a900473ffffffffffffffffffffffffffffffffffffffff169050816000806101000a81548173ffffffffffffffffffffffffffffffffffffffff021916908373ffffffffffffffffffffffffffffffffffffffff1602179055508173ffffffffffffffffffffffffffffffffffffffff168173ffffffffffffffffffffffffffffffffffffffff167f8be0079c531659141344cd1fd0a4f28419497f9722a3daafe3b4186f6b6457e060405160405180910390a35050565b600033905090565b6000604051905090565b600080fd5b600080fd5b6000819050919050565b610fcb81610fb8565b8114610fd657600080fd5b50565b600081359050610fe881610fc2565b92915050565b60006020828403121561100457611003610fae565b5b600061101284828501610fd9565b91505092915050565b61102481610fb8565b82525050565b600081519050919050565b600082825260208201905092915050565b60005b83811015611064578082015181840152602081019050611049565b60008484015250505050565b6000601f19601f8301169050919050565b600061108c8261102a565b6110968185611035565b93506110a6818560208601611046565b6110af81611070565b840191505092915050565b60008115159050919050565b6110cf816110ba565b82525050565b600073ffffffffffffffffffffffffffffffffffffffff82169050919050565b6000611100826110d5565b9050919050565b611110816110f5565b82525050565b600060e08201905061112b600083018a61101b565b818103602083015261113d8189611081565b905061114c604083018861101b565b818103606083015261115e8187611081565b905061116d608083018661101b565b61117a60a08301856110c6565b61118760c0830184611107565b98975050505050505050565b600081519050919050565b600082825260208201905092915050565b6000819050602082019050919050565b6111c881610fb8565b82525050565b60006111da83836111bf565b60208301905092915050565b6000602082019050919050565b60006111fe82611193565b611208818561119e565b9350611213836111af565b8060005b8381101561124457815161122b88826111ce565b9750611236836111e6565b925050600181019050611217565b5085935050505092915050565b6000602082019050818103600083015261126b81846111f3565b905092915050565b600080fd5b600080fd5b7f4e487b7100000000000000000000000000000000000000000000000000000000600052604160045260246000fd5b6112b582611070565b810181811067ffffffffffffffff821117156112d4576112d361127d565b5b80604052505050565b60006112e7610fa4565b90506112f382826112ac565b919050565b600067ffffffffffffffff8211156113135761131261127d565b5b61131c82611070565b9050602081019050919050565b82818337600083830152505050565b600061134b611346846112f8565b6112dd565b90508281526020810184848401111561136757611366611278565b5b611372848285611329565b509392505050565b600082601f83011261138f5761138e611273565b5b813561139f848260208601611338565b91505092915050565b600080600080600060a086880312156113c4576113c3610fae565b5b60006113d288828901610fd9565b955050602086013567ffffffffffffffff8111156113f3576113f2610fb3565b5b6113ff8882890161137a565b945050604061141088828901610fd9565b935050606086013567ffffffffffffffff81111561143157611430610fb3565b5b61143d8882890161137a565b925050608061144e88828901610fd9565b9150509295509295909350565b600060208201905061147060008301846110c6565b92915050565b600060208201905061148b600083018461101b565b92915050565b600080600080608085870312156114ab576114aa610fae565b5b600085013567ffffffffffffffff8111156114c9576114c8610fb3565b5b6114d58782880161137a565b94505060206114e687828801610fd9565b935050604085013567ffffffffffffffff81111561150757611506610fb3565b5b6115138782880161137a565b925050606061152487828801610fd9565b91505092959194509250565b60006020820190506115456000830184611107565b92915050565b611554816110f5565b811461155f57600080fd5b50565b6000813590506115718161154b565b92915050565b60006020828403121561158d5761158c610fae565b5b600061159b84828501611562565b91505092915050565b7f4e487b7100000000000000000000000000000000000000000000000000000000600052602260045260246000fd5b600060028204905060018216806115eb57607f821691505b6020821081036115fe576115fd6115a4565b5b50919050565b7f4e487b7100000000000000000000000000000000000000000000000000000000600052603260045260246000fd5b7f4e487b7100000000000000000000000000000000000000000000000000000000600052601160045260246000fd5b600061166d82610fb8565b91507fffffffffffffffffffffffffffffffffffffffffffffffffffffffffffffffff820361169f5761169e611633565b5b600182019050919050565b7f496e76616c6964206576656e7420494400000000000000000000000000000000600082015250565b60006116e0601083611035565b91506116eb826116aa565b602082019050919050565b6000602082019050818103600083015261170f816116d3565b9050919050565b7f4f6e6c7920746865206576656e74206f7267616e697a65722063616e2075706460008201527f61746520746865206576656e7400000000000000000000000000000000000000602082015250565b6000611772602d83611035565b915061177d82611716565b604082019050919050565b600060208201905081810360008301526117a181611765565b9050919050565b7f43616e6e6f742075706461746520612063616e63656c6c6564206576656e7400600082015250565b60006117de601f83611035565b91506117e9826117a8565b602082019050919050565b6000602082019050818103600083015261180d816117d1565b9050919050565b7f4576656e742064617465206d75737420626520696e2074686520667574757265600082015250565b600061184a602083611035565b915061185582611814565b602082019050919050565b600060208201905081810360008301526118798161183d565b9050919050565b7f4576656e74206361706163697479206d7573742062652067726561746572207460008201527f68616e207a65726f000000000000000000000000000000000000000000000000602082015250565b60006118dc602883611035565b91506118e782611880565b604082019050919050565b6000602082019050818103600083015261190b816118cf565b9050919050565b60008190508160005260206000209050919050565b60006020601f8301049050919050565b600082821b905092915050565b6000600883026119747fffffffffffffffffffffffffffffffffffffffffffffffffffffffffffffffff82611937565b61197e8683611937565b95508019841693508086168417925050509392505050565b6000819050919050565b60006119bb6119b66119b184610fb8565b611996565b610fb8565b9050919050565b6000819050919050565b6119d5836119a0565b6119e96119e1826119c2565b848454611944565b825550505050565b600090565b6119fe6119f1565b611a098184846119cc565b505050565b5b81811015611a2d57611a226000826119f6565b600181019050611a0f565b5050565b601f821115611a7257611a4381611912565b611a4c84611927565b81016020851015611a5b578190505b611a6f611a6785611927565b830182611a0e565b50505b505050565b600082821c905092915050565b6000611a9560001984600802611a77565b1980831691505092915050565b6000611aae8383611a84565b9150826002028217905092915050565b611ac78261102a565b67ffffffffffffffff811115611ae057611adf61127d565b5b611aea82546115d3565b611af5828285611a31565b600060209050601f831160018114611b285760008415611b16578287015190505b611b208582611aa2565b865550611b88565b601f198416611b3686611912565b60005b82811015611b5e57848901518255600182019150602085019450602081019050611b39565b86831015611b7b5784890151611b77601f891682611a84565b8355505b6001600288020188555050505b505050505050565b60006080820190508181036000830152611baa8187611081565b9050611bb9602083018661101b565b8181036040830152611bcb8185611081565b9050611bda606083018461101b565b95945050505050565b7f4f6e6c7920746865206576656e74206f7267616e697a65722063616e2063616e60008201527f63656c20746865206576656e7400000000000000000000000000000000000000602082015250565b6000611c3f602d83611035565b9150611c4a82611be3565b604082019050919050565b60006020820190508181036000830152611c6e81611c32565b9050919050565b7f4576656e7420697320616c72656164792063616e63656c6c6564000000000000600082015250565b6000611cab601a83611035565b9150611cb682611c75565b602082019050919050565b60006020820190508181036000830152611cda81611c9e565b9050919050565b7f4576656e74206e616d652063616e6e6f7420626520656d707479000000000000600082015250565b6000611d17601a83611035565b9150611d2282611ce1565b602082019050919050565b60006020820190508181036000830152611d4681611d0a565b9050919050565b600060a0820190508181036000830152611d678188611081565b9050611d76602083018761101b565b8181036040830152611d888186611081565b9050611d97606083018561101b565b611da46080830184611107565b9695505050505050565b7f4f776e61626c653a206e6577206f776e657220697320746865207a65726f206160008201527f6464726573730000000000000000000000000000000000000000000000000000602082015250565b6000611e0a602683611035565b9150611e1582611dae565b604082019050919050565b60006020820190508181036000830152611e3981611dfd565b9050919050565b7f5265656e7472616e637947756172643a207265656e7472616e742063616c6c00600082015250565b6000611e76601f83611035565b9150611e8182611e40565b602082019050919050565b60006020820190508181036000830152611ea581611e69565b9050919050565b7f4f776e61626c653a2063616c6c6572206973206e6f7420746865206f776e6572600082015250565b6000611ee2602083611035565b9150611eed82611eac565b602082019050919050565b60006020820190508181036000830152611f1181611ed5565b905091905056fea2646970667358221220f04f7792acb5ea08f464156dd86051b2092d3ba2563210d484bd3695b17bea9664736f6c63430008130033",
  "linkReferences": {},
  "deployedLinkReferences": {}
}